{
  "_format": "hh-sol-artifact-1",
  "contractName": "ERC1155Prize",
  "sourceName": "contracts/ERC1155Prize.sol",
  "abi": [
    {
      "inputs": [],
      "stateMutability": "nonpayable",
      "type": "constructor"
    },
    {
      "anonymous": false,
      "inputs": [
        {
          "indexed": true,
          "internalType": "address",
          "name": "account",
          "type": "address"
        },
        {
          "indexed": true,
          "internalType": "address",
          "name": "operator",
          "type": "address"
        },
        {
          "indexed": false,
          "internalType": "bool",
          "name": "approved",
          "type": "bool"
        }
      ],
      "name": "ApprovalForAll",
      "type": "event"
    },
    {
      "anonymous": false,
      "inputs": [
        {
          "indexed": true,
          "internalType": "address",
          "name": "previousOwner",
          "type": "address"
        },
        {
          "indexed": true,
          "internalType": "address",
          "name": "newOwner",
          "type": "address"
        }
      ],
      "name": "OwnershipTransferred",
      "type": "event"
    },
    {
      "anonymous": false,
      "inputs": [
        {
          "indexed": true,
          "internalType": "address",
          "name": "minter",
          "type": "address"
        },
        {
          "indexed": true,
          "internalType": "uint256",
          "name": "tokenId",
          "type": "uint256"
        },
        {
          "indexed": false,
          "internalType": "uint256",
          "name": "amount",
          "type": "uint256"
        }
      ],
      "name": "PrizeMinted",
      "type": "event"
    },
    {
      "anonymous": false,
      "inputs": [
        {
          "indexed": true,
          "internalType": "address",
          "name": "operator",
          "type": "address"
        },
        {
          "indexed": true,
          "internalType": "address",
          "name": "from",
          "type": "address"
        },
        {
          "indexed": true,
          "internalType": "address",
          "name": "to",
          "type": "address"
        },
        {
          "indexed": false,
          "internalType": "uint256[]",
          "name": "ids",
          "type": "uint256[]"
        },
        {
          "indexed": false,
          "internalType": "uint256[]",
          "name": "values",
          "type": "uint256[]"
        }
      ],
      "name": "TransferBatch",
      "type": "event"
    },
    {
      "anonymous": false,
      "inputs": [
        {
          "indexed": true,
          "internalType": "address",
          "name": "operator",
          "type": "address"
        },
        {
          "indexed": true,
          "internalType": "address",
          "name": "from",
          "type": "address"
        },
        {
          "indexed": true,
          "internalType": "address",
          "name": "to",
          "type": "address"
        },
        {
          "indexed": false,
          "internalType": "uint256",
          "name": "id",
          "type": "uint256"
        },
        {
          "indexed": false,
          "internalType": "uint256",
          "name": "value",
          "type": "uint256"
        }
      ],
      "name": "TransferSingle",
      "type": "event"
    },
    {
      "anonymous": false,
      "inputs": [
        {
          "indexed": false,
          "internalType": "string",
          "name": "value",
          "type": "string"
        },
        {
          "indexed": true,
          "internalType": "uint256",
          "name": "id",
          "type": "uint256"
        }
      ],
      "name": "URI",
      "type": "event"
    },
    {
      "inputs": [
        {
          "internalType": "address",
          "name": "account",
          "type": "address"
        },
        {
          "internalType": "uint256",
          "name": "id",
          "type": "uint256"
        }
      ],
      "name": "balanceOf",
      "outputs": [
        {
          "internalType": "uint256",
          "name": "",
          "type": "uint256"
        }
      ],
      "stateMutability": "view",
      "type": "function"
    },
    {
      "inputs": [
        {
          "internalType": "address[]",
          "name": "accounts",
          "type": "address[]"
        },
        {
          "internalType": "uint256[]",
          "name": "ids",
          "type": "uint256[]"
        }
      ],
      "name": "balanceOfBatch",
      "outputs": [
        {
          "internalType": "uint256[]",
          "name": "",
          "type": "uint256[]"
        }
      ],
      "stateMutability": "view",
      "type": "function"
    },
    {
      "inputs": [],
      "name": "factorySignature",
      "outputs": [
        {
          "internalType": "bytes32",
          "name": "",
          "type": "bytes32"
        }
      ],
      "stateMutability": "view",
      "type": "function"
    },
    {
      "inputs": [
        {
          "internalType": "string",
          "name": "uri_",
          "type": "string"
        },
        {
          "internalType": "address",
          "name": "initialOwner",
          "type": "address"
        },
        {
          "internalType": "uint256",
          "name": "_royaltyPercentage",
          "type": "uint256"
        },
        {
          "internalType": "address",
          "name": "_royaltyRecipient",
          "type": "address"
        },
        {
          "internalType": "bytes32",
          "name": "_factorySignature",
          "type": "bytes32"
        },
        {
          "internalType": "address",
          "name": "_raffleManager",
          "type": "address"
        },
        {
          "internalType": "uint256",
          "name": "_prizeTokenId",
          "type": "uint256"
        },
        {
          "internalType": "uint256",
          "name": "_prizeMaxSupply",
          "type": "uint256"
        }
      ],
      "name": "initialize",
      "outputs": [],
      "stateMutability": "nonpayable",
      "type": "function"
    },
    {
      "inputs": [
        {
          "internalType": "address",
          "name": "account",
          "type": "address"
        },
        {
          "internalType": "address",
          "name": "operator",
          "type": "address"
        }
      ],
      "name": "isApprovedForAll",
      "outputs": [
        {
          "internalType": "bool",
          "name": "",
          "type": "bool"
        }
      ],
      "stateMutability": "view",
      "type": "function"
    },
    {
      "inputs": [],
      "name": "isGenuineProtocolContract",
      "outputs": [
        {
          "internalType": "bool",
          "name": "",
          "type": "bool"
        }
      ],
      "stateMutability": "view",
      "type": "function"
    },
    {
      "inputs": [
        {
          "internalType": "uint256",
          "name": "",
          "type": "uint256"
        }
      ],
      "name": "maxSupply",
      "outputs": [
        {
          "internalType": "uint256",
          "name": "",
          "type": "uint256"
        }
      ],
      "stateMutability": "view",
      "type": "function"
    },
    {
      "inputs": [
        {
          "internalType": "address",
          "name": "to",
          "type": "address"
        },
        {
          "internalType": "uint256",
          "name": "id",
          "type": "uint256"
        },
        {
          "internalType": "uint256",
          "name": "amount",
          "type": "uint256"
        }
      ],
      "name": "mint",
      "outputs": [],
      "stateMutability": "nonpayable",
      "type": "function"
    },
    {
      "inputs": [],
      "name": "owner",
      "outputs": [
        {
          "internalType": "address",
          "name": "",
          "type": "address"
        }
      ],
      "stateMutability": "view",
      "type": "function"
    },
    {
      "inputs": [],
      "name": "raffleManager",
      "outputs": [
        {
          "internalType": "address",
          "name": "",
          "type": "address"
        }
      ],
      "stateMutability": "view",
      "type": "function"
    },
    {
      "inputs": [],
      "name": "renounceOwnership",
      "outputs": [],
      "stateMutability": "nonpayable",
      "type": "function"
    },
    {
      "inputs": [
        {
          "internalType": "uint256",
          "name": "",
          "type": "uint256"
        },
        {
          "internalType": "uint256",
          "name": "salePrice",
          "type": "uint256"
        }
      ],
      "name": "royaltyInfo",
      "outputs": [
        {
          "internalType": "address",
          "name": "",
          "type": "address"
        },
        {
          "internalType": "uint256",
          "name": "",
          "type": "uint256"
        }
      ],
      "stateMutability": "view",
      "type": "function"
    },
    {
      "inputs": [],
      "name": "royaltyPercentage",
      "outputs": [
        {
          "internalType": "uint256",
          "name": "",
          "type": "uint256"
        }
      ],
      "stateMutability": "view",
      "type": "function"
    },
    {
      "inputs": [],
      "name": "royaltyRecipient",
      "outputs": [
        {
          "internalType": "address",
          "name": "",
          "type": "address"
        }
      ],
      "stateMutability": "view",
      "type": "function"
    },
    {
      "inputs": [
        {
          "internalType": "address",
          "name": "from",
          "type": "address"
        },
        {
          "internalType": "address",
          "name": "to",
          "type": "address"
        },
        {
          "internalType": "uint256[]",
          "name": "ids",
          "type": "uint256[]"
        },
        {
          "internalType": "uint256[]",
          "name": "amounts",
          "type": "uint256[]"
        },
        {
          "internalType": "bytes",
          "name": "data",
          "type": "bytes"
        }
      ],
      "name": "safeBatchTransferFrom",
      "outputs": [],
      "stateMutability": "nonpayable",
      "type": "function"
    },
    {
      "inputs": [
        {
          "internalType": "address",
          "name": "from",
          "type": "address"
        },
        {
          "internalType": "address",
          "name": "to",
          "type": "address"
        },
        {
          "internalType": "uint256",
          "name": "id",
          "type": "uint256"
        },
        {
          "internalType": "uint256",
          "name": "amount",
          "type": "uint256"
        },
        {
          "internalType": "bytes",
          "name": "data",
          "type": "bytes"
        }
      ],
      "name": "safeTransferFrom",
      "outputs": [],
      "stateMutability": "nonpayable",
      "type": "function"
    },
    {
      "inputs": [
        {
          "internalType": "address",
          "name": "operator",
          "type": "address"
        },
        {
          "internalType": "bool",
          "name": "approved",
          "type": "bool"
        }
      ],
      "name": "setApprovalForAll",
      "outputs": [],
      "stateMutability": "nonpayable",
      "type": "function"
    },
    {
      "inputs": [
        {
          "internalType": "uint256",
          "name": "_royaltyPercentage",
          "type": "uint256"
        },
        {
          "internalType": "address",
          "name": "_royaltyRecipient",
          "type": "address"
        }
      ],
      "name": "setRoyalty",
      "outputs": [],
      "stateMutability": "nonpayable",
      "type": "function"
    },
    {
      "inputs": [
        {
          "internalType": "bytes4",
          "name": "interfaceId",
          "type": "bytes4"
        }
      ],
      "name": "supportsInterface",
      "outputs": [
        {
          "internalType": "bool",
          "name": "",
          "type": "bool"
        }
      ],
      "stateMutability": "view",
      "type": "function"
    },
    {
      "inputs": [
        {
          "internalType": "uint256",
          "name": "",
          "type": "uint256"
        }
      ],
      "name": "totalSupply",
      "outputs": [
        {
          "internalType": "uint256",
          "name": "",
          "type": "uint256"
        }
      ],
      "stateMutability": "view",
      "type": "function"
    },
    {
      "inputs": [
        {
          "internalType": "address",
          "name": "newOwner",
          "type": "address"
        }
      ],
      "name": "transferOwnership",
      "outputs": [],
      "stateMutability": "nonpayable",
      "type": "function"
    },
    {
      "inputs": [
        {
          "internalType": "uint256",
          "name": "",
          "type": "uint256"
        }
      ],
      "name": "uri",
      "outputs": [
        {
          "internalType": "string",
          "name": "",
          "type": "string"
        }
      ],
      "stateMutability": "view",
      "type": "function"
    }
  ],
  "bytecode": "0x6080346200012657602081016001600160401b03811182821017620001105760405260008091526002546001908181811c9116801562000105575b6020821014620000f157601f8111620000a7575b600283905560038054336001600160a01b03198216811790925560405191906001600160a01b03167f8be0079c531659141344cd1fd0a4f28419497f9722a3daafe3b4186f6b6457e08680a3611bbd90816200012c8239f35b60028352601f0160051c7f405787fa12a823e0f2b7631cc41b3ba8828b3321ca811111fa75cd3aa3bb5ace908101905b818110620000e657506200004e565b8381558201620000d7565b634e487b7160e01b83526022600452602483fd5b90607f16906200003a565b634e487b7160e01b600052604160045260246000fd5b600080fdfe6040608081526004908136101561001557600080fd5b600091823560e01c8062fdd58e1461150457806301ffc9a71461147a57806302c97f0e1461118f5780630e89341c146110a5578063156e29f614610d2b57806323b934b214610c0f5780632a55205a14610bb15780632eb2c2d61461089e57806340e3276b146108475780634c00de821461081e5780634e1273f41461067d5780636f88bd8a14610660578063715018a614610600578063869f7594146105d95780638a71bb2d146105ba5780638da5cb5b14610591578063a22cb465146104b4578063aa6527d91461048b578063bd85b03914610464578063e985e9c514610412578063f242432a146101a65763f2fde38b1461011257600080fd5b346101a25760203660031901126101a25761012b611534565b916101346116ec565b6001600160a01b03831615610150578361014d84611744565b80f35b906020608492519162461bcd60e51b8352820152602660248201527f4f776e61626c653a206e6577206f776e657220697320746865207a65726f206160448201526564647265737360d01b6064820152fd5b8280fd5b5090346101a25760a03660031901126101a2576101c1611534565b836101ca61154f565b916044359060643560843567ffffffffffffffff811161040e576101f1903690890161169a565b926001600160a01b039283169233841480156103ef575b6102119061189b565b86169061021f8215156118fe565b61022881611b0f565b5061023283611b0f565b508086526020968688528887208588528852838988205461025582821015611958565b838952888a528a8920878a528a52038988205581875286885288872083885288528887206102848582546119b7565b905582858a51848152868b8201527fc3d58168c5ae7397731d063d5bbf3d657854427343f4c083240f7aacaa2d0f628c3392a43b6102c0578580f35b889587946103018a519788968795869463f23a6e6160e01b9c8d8752339087015260248601526044850152606484015260a0608484015260a48301906115e4565b03925af18691816103c0575b5061038f57505060019061031f611a2d565b6308c379a01461035c575b5061033f5750505b3880808381808080808580f35b5162461bcd60e51b815291508190610358908201611aba565b0390fd5b610364611a4b565b8061036f575061032a565b6103588591855193849362461bcd60e51b855284015260248301906115e4565b6001600160e01b0319160390506103a7575050610332565b5162461bcd60e51b8152915081906103589082016119e4565b6103e1919250843d86116103e8575b6103d98183611565565b8101906119c4565b903861030d565b503d6103cf565b508386526001602090815288872033885290528786205460ff16610208565b8480fd5b50503461046057806003193601126104605760ff81602093610432611534565b61043a61154f565b6001600160a01b0391821683526001875283832091168252855220549151911615158152f35b5080fd5b50346101a25760203660031901126101a25760209282913581526009845220549051908152f35b50503461046057816003193601126104605760075490516001600160a01b039091168152602090f35b5090346101a257806003193601126101a2576104ce611534565b906024359182151580930361040e576001600160a01b03169233841461053d5750338452600160205280842083855260205280842060ff1981541660ff8416179055519081527f17307eab39ab6107e8899845ad3d59bd9653f200f220920489ca2b5937696c3160203392a380f35b6020608492519162461bcd60e51b8352820152602960248201527f455243313135353a2073657474696e6720617070726f76616c20737461747573604482015268103337b91039b2b63360b91b6064820152fd5b50503461046057816003193601126104605760035490516001600160a01b039091168152602090f35b5050346104605781600319360112610460576020906005549051908152f35b50346101a25760203660031901126101a25760209282913581526008845220549051908152f35b833461065d578060031936011261065d576106196116ec565b600380546001600160a01b0319811690915581906001600160a01b03167f8be0079c531659141344cd1fd0a4f28419497f9722a3daafe3b4186f6b6457e08280a380f35b80fd5b50346101a257826003193601126101a25760209250549051908152f35b50346101a257816003193601126101a257803567ffffffffffffffff80821161040e573660238301121561040e5781830135906106b982611624565b926106c686519485611565565b82845260209260248486019160051b8301019136831161081a57602401905b8282106107f7575050506024359081116107f357610706903690850161163c565b9282518451036107a0575081519461071d86611624565b9561072a86519788611565565b808752610739601f1991611624565b0136838801375b825181101561078a57610785906107756001600160a01b036107628387611871565b511661076e8388611871565b51906117c7565b61077f8289611871565b5261184c565b610740565b84518281528061079c818501896116b8565b0390f35b60849185519162461bcd60e51b8352820152602960248201527f455243313135353a206163636f756e747320616e6420696473206c656e677468604482015268040dad2e6dac2e8c6d60bb1b6064820152fd5b8580fd5b81356001600160a01b03811681036108165781529084019084016106e5565b8980fd5b8880fd5b50503461046057816003193601126104605760065490516001600160a01b039091168152602090f35b5090346101a257366003190112610460573561086161154f565b9061086a6116ec565b6108786103e8821115611b45565b60055560018060a01b03166bffffffffffffffffffffffff60a01b600654161760065580f35b50346101a2576003199160a036840112610bad576108ba611534565b926108c361154f565b9367ffffffffffffffff93604435858111610ba9576108e5903690830161163c565b9060643586811161081a576108fd903690830161163c565b9560843590811161081a57610915903690830161169a565b936001600160a01b03938416933385148015610b8a575b6109359061189b565b8351885103610b365788169461094c8615156118fe565b895b8a85518210156109d25790896109c68a6109cd9461097785610970818d611871565b5195611871565b51938082526020908282528383208d84528252858d858520549061099d83831015611958565b838652858552868620908652845203848420558252818152828220908d835252209182546119b7565b905561184c565b61094e565b50509094939596929197848789518a81527f4a39dc06d4c0dbc64b70af90fd698a233a518aa5d07e595d983b8c0526c8f7fb610a108c8301886116b8565b91808303602082015280610a2533948b6116b8565b0390a43b610a31578880f35b8651948593849363bc197c8160e01b98898652338c87015260248601526044850160a0905260a48501610a63916116b8565b82858203016064860152610a76916116b8565b90838203016084840152610a89916115e4565b0381885a94602095f1859181610b16575b50610b005750506001610aab611a2d565b6308c379a014610ac9575b61033f5750505b38808080808080808880f35b610ad1611a4b565b80610adc5750610ab6565b905061035891602094505193849362461bcd60e51b855284015260248301906115e4565b6001600160e01b031916036103a7575050610abd565b610b2f91925060203d81116103e8576103d98183611565565b9038610a9a565b865162461bcd60e51b8152602081850152602860248201527f455243313135353a2069647320616e6420616d6f756e7473206c656e677468206044820152670dad2e6dac2e8c6d60c31b6064820152608490fd5b50848a5260016020908152878b20338c529052868a205460ff1661092c565b8780fd5b8380fd5b50823461065d578260031936011261065d576006546005546001600160a01b039091169260243580830293928185041490151715610bfc575050612710908351928352046020820152f35b634e487b7160e01b825260119052602490fd5b50919034610460578160031936011261046057600754815163d63843cd60e01b81526020949093916001600160a01b039190869086908390829086165afa948515610d2157908692918496610ce4575b508060449154928651978894859363ea4dae9160e01b855230908501526024840152165afa928315610cd8578193610c9c575b5050519015158152f35b909192508381813d8311610cd1575b610cb58183611565565b81010312610460575190811515820361065d5750903880610c92565b503d610cab565b509051903d90823e3d90fd5b838193949297503d8311610d1a575b610cfd8183611565565b810103126101a2575181811681036101a257938591906044610c5f565b503d610cf3565b84513d85823e3d90fd5b5090346101a25760603660031901126101a257610d46611534565b60249182359360443593610d586116ec565b8587526020936008855283882054156110645786885260098552610d7f86858a20546119b7565b87895260088652848920541061102e5786885260098552838820610da48782546119b7565b905583519085820182811067ffffffffffffffff82111761101c5785528882526001600160a01b038116908115610fd05790889291610de284611b0f565b50610dec89611b0f565b50838b528a8852868b20828c528852868b20610e098a82546119b7565b9055818b88518681528b8b8201527fc3d58168c5ae7397731d063d5bbf3d657854427343f4c083240f7aacaa2d0f628a3392a43b610e72575b8983897faafa1dbc87d0d4fc4b41b7ea689f27064944bce2e8d5dd922ba7c35a463606d88a8a519283523392a380f35b610eb4918791898c895180968195829463f23a6e6160e01b9a8b85528d3390860152858d8601526044850152606484015260a0608484015260a48301906115e4565b03925af1899181610fb1575b50610f5e575050600190610ed2611a2d565b6308c379a014610f2b575b50610f125750907faafa1dbc87d0d4fc4b41b7ea689f27064944bce2e8d5dd922ba7c35a463606d8915b909138858180610e42565b905162461bcd60e51b8152908190610358908201611aba565b610f33611a4b565b9081610f3f5750610edd565b610358925085945194859462461bcd60e51b86528501528301906115e4565b6001600160e01b031916039050610f985750907faafa1dbc87d0d4fc4b41b7ea689f27064944bce2e8d5dd922ba7c35a463606d891610f07565b905162461bcd60e51b81529081906103589082016119e4565b610fc9919250873d89116103e8576103d98183611565565b9038610ec0565b855162461bcd60e51b81528086018890526021818601527f455243313135353a206d696e7420746f20746865207a65726f206164647265736044820152607360f81b6064820152608490fd5b634e487b7160e01b8a5260418552838afd5b5060649360129293519362461bcd60e51b85528401528201527145786365656473206d617820737570706c7960701b6044820152fd5b50606493601a9293519362461bcd60e51b85528401528201527f537570706c79206e6f742073657420666f7220746869732049440000000000006044820152fd5b50503461046057602090816003193601126101a2578051838194906002546110cc8161178d565b9182855260019187838216918260001461116857505060011461110c575b50505061079c92916110fd910385611565565b519282849384528301906115e4565b9190869350600283527f405787fa12a823e0f2b7631cc41b3ba8828b3321ca811111fa75cd3aa3bb5ace5b82841061115057505050820101816110fd61079c6110ea565b8054848a018601528895508794909301928101611137565b60ff19168782015293151560051b860190930193508492506110fd915061079c90506110ea565b50829034610460576101003660031901126104605767ffffffffffffffff928135848111610bad5736602382011215610bad576111d5903690602481860135910161159d565b936111de61154f565b6001600160a01b0393606435858116919060443590839003610ba95760a4359387851680950361081a5760e4359760035416611441578254611406576112286103e8831115611b45565b87156113ca5789519586116113b75761124260025461178d565b601f8111611354575b5060209586601f82116001146112ca57908061128993928c9d60089b9c9d926112bf575b50508160011b916000199060031b1c191617600255611744565b6005556bffffffffffffffffffffffff60a01b918260065416176006556084359055600754161760075560c43585525282205580f35b015190508d8061126f565b60028b527f405787fa12a823e0f2b7631cc41b3ba8828b3321ca811111fa75cd3aa3bb5ace90601f1983168c5b81811061133d575091839160089b9c9d9e611289969560019510611324575b505050811b01600255611744565b015160001960f88460031b161c191690558d8080611316565b8e8301518455600190930192918a01918a016112f7565b60028a527f405787fa12a823e0f2b7631cc41b3ba8828b3321ca811111fa75cd3aa3bb5ace601f880160051c810191602089106113ad575b601f0160051c01905b8181106113a2575061124b565b8a8155600101611395565b909150819061138c565b634e487b7160e01b895260418352602489fd5b865162461bcd60e51b8152602081850152601660248201527504d617820737570706c79206d757374206265203e20360541b6044820152606490fd5b865162461bcd60e51b8152602081850152601560248201527414da59db985d1d5c9948185b1c9958591e481cd95d605a1b6044820152606490fd5b865162461bcd60e51b81526020818501526013602482015272105b1c9958591e481a5b9a5d1a585b1a5e9959606a1b6044820152606490fd5b50346101a25760203660031901126101a257359063ffffffff60e01b82168092036101a2576020925063152a902d60e11b82149182156114be575b50519015158152f35b909150636cdb3d1360e11b81149081156114f3575b81156114e2575b5090386114b5565b6301ffc9a760e01b149050386114da565b6303a24d0760e21b811491506114d3565b50503461046057806003193601126104605760209061152d611524611534565b602435906117c7565b9051908152f35b600435906001600160a01b038216820361154a57565b600080fd5b602435906001600160a01b038216820361154a57565b90601f8019910116810190811067ffffffffffffffff82111761158757604052565b634e487b7160e01b600052604160045260246000fd5b92919267ffffffffffffffff821161158757604051916115c7601f8201601f191660200184611565565b82948184528183011161154a578281602093846000960137010152565b919082519283825260005b848110611610575050826000602080949584010152601f8019910116010190565b6020818301810151848301820152016115ef565b67ffffffffffffffff81116115875760051b60200190565b81601f8201121561154a5780359161165383611624565b926116616040519485611565565b808452602092838086019260051b82010192831161154a578301905b82821061168b575050505090565b8135815290830190830161167d565b9080601f8301121561154a578160206116b59335910161159d565b90565b90815180825260208080930193019160005b8281106116d8575050505090565b8351855293810193928101926001016116ca565b6003546001600160a01b0316330361170057565b606460405162461bcd60e51b815260206004820152602060248201527f4f776e61626c653a2063616c6c6572206973206e6f7420746865206f776e65726044820152fd5b600380546001600160a01b039283166001600160a01b0319821681179092559091167f8be0079c531659141344cd1fd0a4f28419497f9722a3daafe3b4186f6b6457e0600080a3565b90600182811c921680156117bd575b60208310146117a757565b634e487b7160e01b600052602260045260246000fd5b91607f169161179c565b6001600160a01b03169081156117f457600052600060205260406000209060005260205260406000205490565b60405162461bcd60e51b815260206004820152602a60248201527f455243313135353a2061646472657373207a65726f206973206e6f742061207660448201526930b634b21037bbb732b960b11b6064820152608490fd5b600019811461185b5760010190565b634e487b7160e01b600052601160045260246000fd5b80518210156118855760209160051b010190565b634e487b7160e01b600052603260045260246000fd5b156118a257565b60405162461bcd60e51b815260206004820152602e60248201527f455243313135353a2063616c6c6572206973206e6f7420746f6b656e206f776e60448201526d195c881bdc88185c1c1c9bdd995960921b6064820152608490fd5b1561190557565b60405162461bcd60e51b815260206004820152602560248201527f455243313135353a207472616e7366657220746f20746865207a65726f206164604482015264647265737360d81b6064820152608490fd5b1561195f57565b60405162461bcd60e51b815260206004820152602a60248201527f455243313135353a20696e73756666696369656e742062616c616e636520666f60448201526939103a3930b739b332b960b11b6064820152608490fd5b9190820180921161185b57565b9081602091031261154a57516001600160e01b03198116810361154a5790565b60809060208152602860208201527f455243313135353a204552433131353552656365697665722072656a656374656040820152676420746f6b656e7360c01b60608201520190565b60009060033d11611a3a57565b905060046000803e60005160e01c90565b600060443d106116b557604051600319913d83016004833e815167ffffffffffffffff918282113d602484011117611aa957818401948551938411611ab1573d85010160208487010111611aa957506116b592910160200190611565565b949350505050565b50949350505050565b60809060208152603460208201527f455243313135353a207472616e7366657220746f206e6f6e2d455243313135356040820152732932b1b2b4bb32b91034b6b83632b6b2b73a32b960611b60608201520190565b604051906040820182811067ffffffffffffffff8211176115875760405260018252602082016020368237825115611885575290565b15611b4c57565b60405162461bcd60e51b8152602060048201526013602482015272526f79616c747920657863656564732031302560681b6044820152606490fdfea2646970667358221220581a9d49c06415134a178c8ba450d6f736cacf8be2bdeef53f9b23e52ad66fd964736f6c63430008130033",
  "linkReferences": {},
  "deployedLinkReferences": {}
}