{
  "_format": "hh-sol-artifact-1",
  "contractName": "ERC721Prize",
  "sourceName": "contracts/ERC721Prize.sol",
  "abi": [
    {
      "inputs": [],
      "stateMutability": "nonpayable",
      "type": "constructor"
    },
    {
      "anonymous": false,
      "inputs": [
        {
          "indexed": true,
          "internalType": "address",
          "name": "owner",
          "type": "address"
        },
        {
          "indexed": true,
          "internalType": "address",
          "name": "approved",
          "type": "address"
        },
        {
          "indexed": true,
          "internalType": "uint256",
          "name": "tokenId",
          "type": "uint256"
        }
      ],
      "name": "Approval",
      "type": "event"
    },
    {
      "anonymous": false,
      "inputs": [
        {
          "indexed": true,
          "internalType": "address",
          "name": "owner",
          "type": "address"
        },
        {
          "indexed": true,
          "internalType": "address",
          "name": "operator",
          "type": "address"
        },
        {
          "indexed": false,
          "internalType": "bool",
          "name": "approved",
          "type": "bool"
        }
      ],
      "name": "ApprovalForAll",
      "type": "event"
    },
    {
      "anonymous": false,
      "inputs": [],
      "name": "MinterApprovalLocked",
      "type": "event"
    },
    {
      "anonymous": false,
      "inputs": [],
      "name": "MinterApprovalUnlocked",
      "type": "event"
    },
    {
      "anonymous": false,
      "inputs": [
        {
          "indexed": true,
          "internalType": "address",
          "name": "previousOwner",
          "type": "address"
        },
        {
          "indexed": true,
          "internalType": "address",
          "name": "newOwner",
          "type": "address"
        }
      ],
      "name": "OwnershipTransferred",
      "type": "event"
    },
    {
      "anonymous": false,
      "inputs": [
        {
          "indexed": true,
          "internalType": "address",
          "name": "winner",
          "type": "address"
        },
        {
          "indexed": false,
          "internalType": "uint256",
          "name": "tokenId",
          "type": "uint256"
        }
      ],
      "name": "PrizeMinted",
      "type": "event"
    },
    {
      "anonymous": false,
      "inputs": [
        {
          "indexed": false,
          "internalType": "uint256",
          "name": "price",
          "type": "uint256"
        },
        {
          "indexed": false,
          "internalType": "uint256",
          "name": "maxPerWallet",
          "type": "uint256"
        }
      ],
      "name": "PublicSaleConfigured",
      "type": "event"
    },
    {
      "anonymous": false,
      "inputs": [
        {
          "indexed": false,
          "internalType": "bool",
          "name": "isActive",
          "type": "bool"
        }
      ],
      "name": "SaleStateChanged",
      "type": "event"
    },
    {
      "anonymous": false,
      "inputs": [
        {
          "indexed": true,
          "internalType": "address",
          "name": "from",
          "type": "address"
        },
        {
          "indexed": true,
          "internalType": "address",
          "name": "to",
          "type": "address"
        },
        {
          "indexed": true,
          "internalType": "uint256",
          "name": "tokenId",
          "type": "uint256"
        }
      ],
      "name": "Transfer",
      "type": "event"
    },
    {
      "inputs": [
        {
          "internalType": "address",
          "name": "to",
          "type": "address"
        },
        {
          "internalType": "uint256",
          "name": "tokenId",
          "type": "uint256"
        }
      ],
      "name": "approve",
      "outputs": [],
      "stateMutability": "nonpayable",
      "type": "function"
    },
    {
      "inputs": [],
      "name": "availableSupply",
      "outputs": [
        {
          "internalType": "uint256",
          "name": "",
          "type": "uint256"
        }
      ],
      "stateMutability": "view",
      "type": "function"
    },
    {
      "inputs": [
        {
          "internalType": "address",
          "name": "owner",
          "type": "address"
        }
      ],
      "name": "balanceOf",
      "outputs": [
        {
          "internalType": "uint256",
          "name": "",
          "type": "uint256"
        }
      ],
      "stateMutability": "view",
      "type": "function"
    },
    {
      "inputs": [
        {
          "internalType": "uint256",
          "name": "_mintPrice",
          "type": "uint256"
        },
        {
          "internalType": "uint256",
          "name": "_maxMintPerWallet",
          "type": "uint256"
        }
      ],
      "name": "configurePublicSale",
      "outputs": [],
      "stateMutability": "nonpayable",
      "type": "function"
    },
    {
      "inputs": [
        {
          "internalType": "address",
          "name": "to",
          "type": "address"
        },
        {
          "internalType": "uint256",
          "name": "quantity",
          "type": "uint256"
        }
      ],
      "name": "creatorMint",
      "outputs": [],
      "stateMutability": "nonpayable",
      "type": "function"
    },
    {
      "inputs": [],
      "name": "creatorMintedCount",
      "outputs": [
        {
          "internalType": "uint256",
          "name": "",
          "type": "uint256"
        }
      ],
      "stateMutability": "view",
      "type": "function"
    },
    {
      "inputs": [],
      "name": "factorySignature",
      "outputs": [
        {
          "internalType": "bytes32",
          "name": "",
          "type": "bytes32"
        }
      ],
      "stateMutability": "view",
      "type": "function"
    },
    {
      "inputs": [
        {
          "internalType": "uint256",
          "name": "tokenId",
          "type": "uint256"
        }
      ],
      "name": "getApproved",
      "outputs": [
        {
          "internalType": "address",
          "name": "",
          "type": "address"
        }
      ],
      "stateMutability": "view",
      "type": "function"
    },
    {
      "inputs": [
        {
          "internalType": "string",
          "name": "name_",
          "type": "string"
        },
        {
          "internalType": "string",
          "name": "symbol_",
          "type": "string"
        },
        {
          "internalType": "string",
          "name": "baseURI",
          "type": "string"
        },
        {
          "internalType": "address",
          "name": "initialOwner",
          "type": "address"
        },
        {
          "internalType": "address",
          "name": "_raffleManager",
          "type": "address"
        },
        {
          "internalType": "uint256",
          "name": "_royaltyPercentage",
          "type": "uint256"
        },
        {
          "internalType": "address",
          "name": "_royaltyRecipient",
          "type": "address"
        },
        {
          "internalType": "bytes32",
          "name": "_factorySignature",
          "type": "bytes32"
        },
        {
          "internalType": "uint256",
          "name": "_maxSupply",
          "type": "uint256"
        },
        {
          "internalType": "address",
          "name": "preApprovedMinter",
          "type": "address"
        }
      ],
      "name": "initialize",
      "outputs": [],
      "stateMutability": "nonpayable",
      "type": "function"
    },
    {
      "inputs": [
        {
          "internalType": "address",
          "name": "owner",
          "type": "address"
        },
        {
          "internalType": "address",
          "name": "operator",
          "type": "address"
        }
      ],
      "name": "isApprovedForAll",
      "outputs": [
        {
          "internalType": "bool",
          "name": "",
          "type": "bool"
        }
      ],
      "stateMutability": "view",
      "type": "function"
    },
    {
      "inputs": [],
      "name": "isGenuineProtocolContract",
      "outputs": [
        {
          "internalType": "bool",
          "name": "",
          "type": "bool"
        }
      ],
      "stateMutability": "view",
      "type": "function"
    },
    {
      "inputs": [],
      "name": "lockMinterApproval",
      "outputs": [],
      "stateMutability": "nonpayable",
      "type": "function"
    },
    {
      "inputs": [],
      "name": "maxMintPerWallet",
      "outputs": [
        {
          "internalType": "uint256",
          "name": "",
          "type": "uint256"
        }
      ],
      "stateMutability": "view",
      "type": "function"
    },
    {
      "inputs": [],
      "name": "maxSupply",
      "outputs": [
        {
          "internalType": "uint256",
          "name": "",
          "type": "uint256"
        }
      ],
      "stateMutability": "view",
      "type": "function"
    },
    {
      "inputs": [
        {
          "internalType": "address",
          "name": "to",
          "type": "address"
        }
      ],
      "name": "mint",
      "outputs": [
        {
          "internalType": "uint256",
          "name": "",
          "type": "uint256"
        }
      ],
      "stateMutability": "nonpayable",
      "type": "function"
    },
    {
      "inputs": [
        {
          "internalType": "address",
          "name": "to",
          "type": "address"
        },
        {
          "internalType": "uint256",
          "name": "quantity",
          "type": "uint256"
        }
      ],
      "name": "mintMultiple",
      "outputs": [],
      "stateMutability": "nonpayable",
      "type": "function"
    },
    {
      "inputs": [],
      "name": "mintPrice",
      "outputs": [
        {
          "internalType": "uint256",
          "name": "",
          "type": "uint256"
        }
      ],
      "stateMutability": "view",
      "type": "function"
    },
    {
      "inputs": [],
      "name": "minter",
      "outputs": [
        {
          "internalType": "address",
          "name": "",
          "type": "address"
        }
      ],
      "stateMutability": "view",
      "type": "function"
    },
    {
      "inputs": [],
      "name": "minterLocked",
      "outputs": [
        {
          "internalType": "bool",
          "name": "",
          "type": "bool"
        }
      ],
      "stateMutability": "view",
      "type": "function"
    },
    {
      "inputs": [],
      "name": "name",
      "outputs": [
        {
          "internalType": "string",
          "name": "",
          "type": "string"
        }
      ],
      "stateMutability": "view",
      "type": "function"
    },
    {
      "inputs": [],
      "name": "owner",
      "outputs": [
        {
          "internalType": "address",
          "name": "",
          "type": "address"
        }
      ],
      "stateMutability": "view",
      "type": "function"
    },
    {
      "inputs": [
        {
          "internalType": "uint256",
          "name": "tokenId",
          "type": "uint256"
        }
      ],
      "name": "ownerOf",
      "outputs": [
        {
          "internalType": "address",
          "name": "",
          "type": "address"
        }
      ],
      "stateMutability": "view",
      "type": "function"
    },
    {
      "inputs": [
        {
          "internalType": "uint256",
          "name": "quantity",
          "type": "uint256"
        }
      ],
      "name": "publicMint",
      "outputs": [],
      "stateMutability": "payable",
      "type": "function"
    },
    {
      "inputs": [],
      "name": "raffleManager",
      "outputs": [
        {
          "internalType": "address",
          "name": "",
          "type": "address"
        }
      ],
      "stateMutability": "view",
      "type": "function"
    },
    {
      "inputs": [
        {
          "internalType": "address",
          "name": "newMinter",
          "type": "address"
        }
      ],
      "name": "reassignAndLockMinter",
      "outputs": [],
      "stateMutability": "nonpayable",
      "type": "function"
    },
    {
      "inputs": [],
      "name": "renounceOwnership",
      "outputs": [],
      "stateMutability": "nonpayable",
      "type": "function"
    },
    {
      "inputs": [
        {
          "internalType": "uint256",
          "name": "",
          "type": "uint256"
        },
        {
          "internalType": "uint256",
          "name": "salePrice",
          "type": "uint256"
        }
      ],
      "name": "royaltyInfo",
      "outputs": [
        {
          "internalType": "address",
          "name": "",
          "type": "address"
        },
        {
          "internalType": "uint256",
          "name": "",
          "type": "uint256"
        }
      ],
      "stateMutability": "view",
      "type": "function"
    },
    {
      "inputs": [],
      "name": "royaltyPercentage",
      "outputs": [
        {
          "internalType": "uint256",
          "name": "",
          "type": "uint256"
        }
      ],
      "stateMutability": "view",
      "type": "function"
    },
    {
      "inputs": [],
      "name": "royaltyRecipient",
      "outputs": [
        {
          "internalType": "address",
          "name": "",
          "type": "address"
        }
      ],
      "stateMutability": "view",
      "type": "function"
    },
    {
      "inputs": [
        {
          "internalType": "address",
          "name": "from",
          "type": "address"
        },
        {
          "internalType": "address",
          "name": "to",
          "type": "address"
        },
        {
          "internalType": "uint256",
          "name": "tokenId",
          "type": "uint256"
        }
      ],
      "name": "safeTransferFrom",
      "outputs": [],
      "stateMutability": "nonpayable",
      "type": "function"
    },
    {
      "inputs": [
        {
          "internalType": "address",
          "name": "from",
          "type": "address"
        },
        {
          "internalType": "address",
          "name": "to",
          "type": "address"
        },
        {
          "internalType": "uint256",
          "name": "tokenId",
          "type": "uint256"
        },
        {
          "internalType": "bytes",
          "name": "data",
          "type": "bytes"
        }
      ],
      "name": "safeTransferFrom",
      "outputs": [],
      "stateMutability": "nonpayable",
      "type": "function"
    },
    {
      "inputs": [],
      "name": "saleIsActive",
      "outputs": [
        {
          "internalType": "bool",
          "name": "",
          "type": "bool"
        }
      ],
      "stateMutability": "view",
      "type": "function"
    },
    {
      "inputs": [
        {
          "internalType": "address",
          "name": "operator",
          "type": "address"
        },
        {
          "internalType": "bool",
          "name": "approved",
          "type": "bool"
        }
      ],
      "name": "setApprovalForAll",
      "outputs": [],
      "stateMutability": "nonpayable",
      "type": "function"
    },
    {
      "inputs": [
        {
          "internalType": "address",
          "name": "_minter",
          "type": "address"
        },
        {
          "internalType": "bool",
          "name": "approved",
          "type": "bool"
        }
      ],
      "name": "setMinterApproval",
      "outputs": [],
      "stateMutability": "nonpayable",
      "type": "function"
    },
    {
      "inputs": [
        {
          "internalType": "uint256",
          "name": "_royaltyPercentage",
          "type": "uint256"
        },
        {
          "internalType": "address",
          "name": "_royaltyRecipient",
          "type": "address"
        }
      ],
      "name": "setRoyalty",
      "outputs": [],
      "stateMutability": "nonpayable",
      "type": "function"
    },
    {
      "inputs": [
        {
          "internalType": "bytes4",
          "name": "interfaceId",
          "type": "bytes4"
        }
      ],
      "name": "supportsInterface",
      "outputs": [
        {
          "internalType": "bool",
          "name": "",
          "type": "bool"
        }
      ],
      "stateMutability": "view",
      "type": "function"
    },
    {
      "inputs": [],
      "name": "symbol",
      "outputs": [
        {
          "internalType": "string",
          "name": "",
          "type": "string"
        }
      ],
      "stateMutability": "view",
      "type": "function"
    },
    {
      "inputs": [],
      "name": "toggleSaleState",
      "outputs": [],
      "stateMutability": "nonpayable",
      "type": "function"
    },
    {
      "inputs": [
        {
          "internalType": "uint256",
          "name": "tokenId",
          "type": "uint256"
        }
      ],
      "name": "tokenURI",
      "outputs": [
        {
          "internalType": "string",
          "name": "",
          "type": "string"
        }
      ],
      "stateMutability": "view",
      "type": "function"
    },
    {
      "inputs": [
        {
          "internalType": "address",
          "name": "from",
          "type": "address"
        },
        {
          "internalType": "address",
          "name": "to",
          "type": "address"
        },
        {
          "internalType": "uint256",
          "name": "tokenId",
          "type": "uint256"
        }
      ],
      "name": "transferFrom",
      "outputs": [],
      "stateMutability": "nonpayable",
      "type": "function"
    },
    {
      "inputs": [
        {
          "internalType": "address",
          "name": "newOwner",
          "type": "address"
        }
      ],
      "name": "transferOwnership",
      "outputs": [],
      "stateMutability": "nonpayable",
      "type": "function"
    },
    {
      "inputs": [],
      "name": "unlockMinterApproval",
      "outputs": [],
      "stateMutability": "nonpayable",
      "type": "function"
    },
    {
      "inputs": [
        {
          "internalType": "address",
          "name": "",
          "type": "address"
        }
      ],
      "name": "walletMintedCount",
      "outputs": [
        {
          "internalType": "uint256",
          "name": "",
          "type": "uint256"
        }
      ],
      "stateMutability": "view",
      "type": "function"
    },
    {
      "inputs": [],
      "name": "withdraw",
      "outputs": [],
      "stateMutability": "nonpayable",
      "type": "function"
    }
  ],
  "bytecode": "0x6080604052346200032c576200001462000331565b6200001e62000331565b81519091906001600160401b0380821162000316576000928354906001938483811c93169182156200030b575b60209283851014620002f7578190601f94858111620002a4575b5083908583116001146200024057889262000234575b5050600019600383901b1c191690851b1785555b8551928311620002205783548481811c9116801562000215575b828210146200020157828111620001b9575b508091831160011462000153575083948293949262000147575b5050600019600383901b1c191690821b1781555b600681905560078054336001600160a01b031982168117909255604051936001600160a01b03909116907f8be0079c531659141344cd1fd0a4f28419497f9722a3daafe3b4186f6b6457e09080a3600b55612cc69081620003568239f35b015190503880620000d5565b90601f198316958486528286209286905b888210620001a1575050838596971062000187575b505050811b018155620000e9565b015160001960f88460031b161c1916905538808062000179565b80878596829496860151815501950193019062000164565b8486528186208380860160051c820192848710620001f7575b0160051c019085905b828110620001eb575050620000bb565b878155018590620001db565b92508192620001d2565b634e487b7160e01b86526022600452602486fd5b90607f1690620000a9565b634e487b7160e01b85526041600452602485fd5b0151905038806200007b565b8880528489208894509190601f1984168a5b878282106200028d575050841162000273575b505050811b0185556200008f565b015160001960f88460031b161c1916905538808062000265565b8385015186558b9790950194938401930162000252565b9091508780528388208580850160051c820192868610620002ed575b918991869594930160051c01915b828110620002de57505062000065565b8a8155859450899101620002ce565b92508192620002c0565b634e487b7160e01b87526022600452602487fd5b92607f16926200004b565b634e487b7160e01b600052604160045260246000fd5b600080fd5b60405190602082016001600160401b0381118382101762000316576040526000825256fe6080604090808252600436101561001557600080fd5b60003560e01c90816301ffc9a7146121135750806306fdde03146120695780630754617214612040578063081812fc14612020578063095ea7b314611ead5780630de54ba014611e27578063182ee48514611cf25780631c38258914611b0c57806323b872dd14611ae857806323b934b2146119ec578063249f851b146119b357806324bc46e61461138e5780632a55205a146113555780632db115441461114e5780633ccfd60b1461108757806340e3276b1461103057806342842e0e14610ffc5780634c00de8214610fd35780634d991b7114610fb45780636352211e14610f835780636817c76c14610f645780636a62784214610e735780636f88bd8a14610e5457806370a0823114610dbf578063715018a614610d6257806372b308fa14610ca95780637ecc2b5614610c715780638a71bb2d14610c525780638da5cb5b14610c2957806395d89b4114610b56578063a22cb46514610a9c578063aa6527d914610a73578063b228d92514610a54578063b3fa4a4c14610978578063b88d4fde146108f2578063bcaa7f0014610728578063c87b56dd14610468578063cc54cce314610441578063d5abeb0114610422578063daaeec8614610361578063dc817c2e1461030e578063e985e9c5146102bc578063eb8d2444146102985763f2fde38b1461020557600080fd5b346102935760203660031901126102935761021e6121f8565b9061022761234d565b6001600160a01b038216156102415761023f826123a5565b005b5162461bcd60e51b815260206004820152602660248201527f4f776e61626c653a206e6577206f776e657220697320746865207a65726f206160448201526564647265737360d01b6064820152608490fd5b600080fd5b50346102935760003660031901126102935760209060ff6013541690519015158152f35b50346102935780600319360112610293576020906102d86121f8565b6102e061220e565b9060018060a01b0380911660005260058452826000209116600052825260ff81600020541690519015158152f35b346102935760003660031901126102935761032761234d565b600e805460ff60a01b1916600160a01b1790557fd5cb2e985e95fd394547f9c7ee44d15aeb87738279930d016adf6a6c3f1a25c1600080a1005b50346102935760003660031901126102935761037b61234d565b600e546001600160a01b03166103cd5760207fe333f8a36ee86e754548af2d6f50c73ff0d501e22e6c784662123dbbe493c602916013549060ff8083161516809260ff191617601355519015158152a1005b5162461bcd60e51b815260206004820152602960248201527f43616e6e6f7420746f67676c652073616c65207768696c65207469656420746f604482015268206120726166666c6560b81b6064820152608490fd5b5034610293576000366003190112610293576020906011549051908152f35b50346102935760003660031901126102935760209060ff600e5460a01c1690519015158152f35b503461029357602080600319360112610293576004356000818152600260205260409020546104a1906001600160a01b031615156123ee565b818351916000600a90815491856104b784612935565b928382528682019360019588878216918260001461070b5750506001146106b5575b50906104e69103876122a4565b85511561069757600093807a184f03e93ff9f4daa797ed6e38ed64bf6a1f010000000000000000818181101561068a575b50508290876d04ee2d6d415b85acef81000000008083101561067e575b5050662386f26fc1000080821015610671575b506305f5e10080821015610664575b5061271080821015610657575b506064811015610649575b1015610640575b92889381602161059e82890161059661058d826122c6565b9951998a6122a4565b8089526122c6565b878a019890601f1901368a37870101905b61060a575b50505050936105f5926105da94926105e9610606978a51978895518092888801906121b0565b840191518093868401906121b0565b010380845201826122a4565b925b519282849384528301906121d3565b0390f35b600019019083906f181899199a1a9b1b9c1cb0b131b232b360811b8282061a83530491821561063b579190826105af565b6105b4565b93830193610575565b60646002910496019561056e565b6004910496019538610563565b6008910496019538610556565b6010910496019538610547565b97019690048738610534565b8b97500490508238610517565b50505050505061060682516106ab81612288565b60008152926105f7565b600084815291507fc65a7bb8d6351c1cf70c95a316cc6a92839c986682d98bc35f958f4883f9d2a85b8183106106f3575050810186016104e66104d9565b8054838b018a01528a988a94509092019186016106de565b60ff1916875291151560051b840190910191506104e690506104d9565b50346102935760003660031901126102935761074261234d565b600e54906001600160a01b03821680156108b857602060049183519283809263c19d93fb60e01b82525afa9081156108ad57600091610873575b506009811015908161083e5760078114918215610865575b8215610854575b821561082d575b5050156107de57506001600160a81b031916600e557f5e7f52ff86abf7b572123888a9e67a9ff6c324bc8cf6217f0ee997b28531fa8e600080a1005b5162461bcd60e51b815260206004820152602360248201527f526166666c65206e6f7420696e20612073616665207465726d696e616c20737460448201526261746560e81b6064820152608490fd5b90915061083e5760081438806107a2565b634e487b7160e01b600052602160045260246000fd5b80925061083e57600681149161079b565b506005811491506000610794565b90506020813d82116108a5575b8161088d602093836122a4565b8101031261029357516009811015610293573861077c565b3d9150610880565b82513d6000823e3d90fd5b815162461bcd60e51b81526020600482015260136024820152724e6f206d696e74657220746f20756e6c6f636b60681b6044820152606490fd5b346102935760803660031901126102935761090b6121f8565b61091361220e565b906064359060443567ffffffffffffffff831161029357366023840112156102935761023f936109506109739436906024816004013591016122e2565b9261096361095e8433612574565b61249b565b61096e83838361263c565b612878565b612550565b50346102935780600319360112610293576109916121f8565b9060243561099d6129df565b600e546001600160a01b0392906109b7908416331461298e565b6109c2821515612b98565b600b80546000198101908111610a3e576109e2846109ec92969596612be4565b6011541015612bf1565b6000928516925b848110610a01576001600655005b610a399084600080516020612c5183398151915260208554610a22816129d0565b8755610a2e818c612a35565b8751908152a26129d0565b6109f3565b634e487b7160e01b600052601160045260246000fd5b5034610293576000366003190112610293576020906015549051908152f35b50346102935760003660031901126102935760105490516001600160a01b039091168152602090f35b503461029357610aab36612224565b6001600160a01b0390911691338314610b13573360005260056020528060002083600052602052806000209115159160ff1981541660ff8416179055519081527f17307eab39ab6107e8899845ad3d59bd9653f200f220920489ca2b5937696c3160203392a3005b5162461bcd60e51b815260206004820152601960248201527f4552433732313a20617070726f766520746f2063616c6c6572000000000000006044820152606490fd5b5034610293576000366003190112610293578051600091600954610b7981612935565b80845290600190818116908115610c015750600114610bb6575b5050610ba4826106069403836122a4565b519182916020835260208301906121d3565b600960009081529450600080516020612c718339815191525b828610610be95750505091810160200191610ba482610b93565b80546020878701810191909152909501948101610bcf565b61060696508592506020915092610ba49360ff191682840152151560051b8201019450610b93565b50346102935760003660031901126102935760075490516001600160a01b039091168152602090f35b503461029357600036600319011261029357602090600c549051908152f35b503461029357600036600319011261029357601154600b5480600019810111610a3e578103600101908111610a3e5760209151908152f35b503461029357610cb836612337565b9190610cc261234d565b600e546001600160a01b0316610d09577f37cd71faac1e03245089e1f80709a8db3925386e5e5f01e3958dafa369a34b3692816014558060155582519182526020820152a1005b815162461bcd60e51b815260206004820152602c60248201527f43616e6e6f7420636f6e6669677572652073616c65207768696c65207469656460448201526b20746f206120726166666c6560a01b6064820152608490fd5b3461029357600036600319011261029357610d7b61234d565b600780546001600160a01b031981169091556000906001600160a01b03167f8be0079c531659141344cd1fd0a4f28419497f9722a3daafe3b4186f6b6457e08280a3005b5034610293576020366003190112610293576001600160a01b03610de16121f8565b16908115610dff576020916000526003825280600020549051908152f35b5162461bcd60e51b815260206004820152602960248201527f4552433732313a2061646472657373207a65726f206973206e6f7420612076616044820152683634b21037bbb732b960b91b6064820152608490fd5b503461029357600036600319011261029357602090600f549051908152f35b503461029357602036600319011261029357610e8d6121f8565b610e956129df565b600e546001600160a01b03929083163381148015610f46575b610eb8915061298e565b600b54916011548311610f0257600080516020612c5183398151915260208095610ee1866129d0565b600b55610eee8685612a35565b8451938685521692a2600160065551908152f35b815162461bcd60e51b815260206004820152601b60248201527f416c6c20746f6b656e732068617665206265656e206d696e74656400000000006044820152606490fd5b501580610f57575b610eb890610eae565b5060075483163314610f4e565b5034610293576000366003190112610293576020906014549051908152f35b503461029357602036600319011261029357602090610fa360043561243a565b90516001600160a01b039091168152f35b5034610293576000366003190112610293576020906012549051908152f35b503461029357600036600319011261029357600d5490516001600160a01b039091168152602090f35b50346102935761097361023f9161101236612253565b9192519261101f84612288565b6000845261096361095e8433612574565b5034610293573660031901126102935760043561104b61220e565b9061105461234d565b6110626103e88211156128f3565b600c55600d80546001600160a01b0319166001600160a01b0392909216919091179055005b5034610293576000366003190112610293576110a161234d565b6110a96129df565b478015611113576007546000918291829182916001600160a01b03165af16110cf61274d565b50156110dc576001600655005b5162461bcd60e51b815260206004820152601160248201527015da5d1a191c985dd85b0819985a5b1959607a1b6044820152606490fd5b815162461bcd60e51b81526020600482015260146024820152734e6f2066756e647320746f20776974686472617760601b6044820152606490fd5b506020908160031936011261029357600435906111696129df565b60ff601354161561131257600e546001600160a01b03166112bd5761118f821515612b98565b61119b82601454612c3d565b340361127a5733600052601683526111b7828260002054612be4565b6015541061123757600b906111d06109e2848454612be4565b3360005260168452806000206111e7848254612be4565b905560005b8381106111fa576001600655005b611232908354611209816129d0565b85556112158133612a35565b8351908152600080516020612c51833981519152873392a26129d0565b6111ec565b5162461bcd60e51b815260048101839052601c60248201527f45786365656473206d6178206d696e7473207065722077616c6c6574000000006044820152606490fd5b5162461bcd60e51b815260048101839052601860248201527f496e636f7272656374207061796d656e7420616d6f756e7400000000000000006044820152606490fd5b5162461bcd60e51b815260048101839052602960248201527f43616e6e6f74207075626c6963206d696e74207768696c65207469656420746f604482015268206120726166666c6560b81b6064820152608490fd5b5162461bcd60e51b815260048101839052601960248201527f5075626c69632073616c65206973206e6f7420616374697665000000000000006044820152606490fd5b50346102935761136436612337565b905061271061138160018060a01b03600d541692600c5490612c3d565b0482519182526020820152f35b5034610293576101403660031901126102935760043567ffffffffffffffff8111610293576113c1903690600401612319565b60243567ffffffffffffffff8111610293576113e1903690600401612319565b60443567ffffffffffffffff811161029357611401903690600401612319565b6001600160a01b03926064358085169003610293576084359284841684036102935760c435918583168303610293576101243596868816880361029357866007541661197a5760115461194257600f5461190757506114666103e860a43511156128f3565b80519067ffffffffffffffff82116116fa578190611485600854612935565b601f8111611897575b50602090601f831160011461181157600092611806575b50508160011b916000199060031b1c1916176008555b80519067ffffffffffffffff82116116fa5781906114da600954612935565b601f811161178f575b50602090601f831160011461171b57600092611710575b50508160011b916000199060031b1c1916176009555b815167ffffffffffffffff81116116fa57849261152e600a54612935565b601f8111611686575b50602090601f83116001146115fb5760009190836115f0575b50508160011b916000199060031b1c191617600a555b816001600160601b0360a01b93168360105416176010556115886064356123a5565b60a435600c551690600d541617600d5560e435600f55610104356011558082166115ae57005b600e80546001600160a81b0319169190921617600160a01b1790557fd5cb2e985e95fd394547f9c7ee44d15aeb87738279930d016adf6a6c3f1a25c1600080a1005b015190503880611550565b93929190601f19821690600a6000527fc65a7bb8d6351c1cf70c95a316cc6a92839c986682d98bc35f958f4883f9d2a89160005b81811061166b57509583600195969710611652575b505050811b01600a55611566565b015160001960f88460031b161c19169055388080611644565b8783015184558996506001909301926020928301920161162f565b9091929350600a6000527fc65a7bb8d6351c1cf70c95a316cc6a92839c986682d98bc35f958f4883f9d2a8601f840160051c810191602085106116f0575b90601f8896959493920160051c01905b8181106116e15750611537565b600081558795506001016116d4565b90915081906116c4565b634e487b7160e01b600052604160045260246000fd5b0151905038806114fa565b60096000908152600080516020612c718339815191529350601f198516905b818110611777575090846001959493921061175e575b505050811b01600955611510565b015160001960f88460031b161c19169055388080611750565b9293602060018192878601518155019501930161173a565b9091506009600052601f830160051c600080516020612c718339815191520190602084106117f0575b90601f8493920160051c600080516020612c7183398151915201905b8181106117e157506114e3565b600081558493506001016117d4565b600080516020612c7183398151915291506117b8565b0151905038806114a5565b600860009081527ff3f7a9fe364faab93b216da50a3214154f22a0a2b415b23a84c8169e8b636ee39350601f198516905b81811061187f5750908460019594939210611866575b505050811b016008556114bb565b015160001960f88460031b161c19169055388080611858565b92936020600181928786015181550195019301611842565b90915060086000527ff3f7a9fe364faab93b216da50a3214154f22a0a2b415b23a84c8169e8b636ee3601f840160051c810191602085106118fd575b90601f859493920160051c01905b8181106118ee575061148e565b600081558493506001016118e1565b90915081906118d3565b5162461bcd60e51b815260206004820152601560248201527414da59db985d1d5c9948185b1c9958591e481cd95d605a1b6044820152606490fd5b5162461bcd60e51b815260206004820152601260248201527114dd5c1c1b1e48185b1c9958591e481cd95d60721b6044820152606490fd5b5162461bcd60e51b8152602060048201526013602482015272105b1c9958591e481a5b9a5d1a585b1a5e9959606a1b6044820152606490fd5b5034610293576020366003190112610293576020906001600160a01b036119d86121f8565b166000526016825280600020549051908152f35b503461029357600036600319011261029357601054815163d63843cd60e01b81526020926001600160a01b039290919084908290600490829087165afa9081156108ad57908491600091611abb575b506044600f548451958693849263ea4dae9160e01b84523060048501526024840152165afa918215611ab057600092611a78575b50519015158152f35b9091508281813d8311611aa9575b611a9081836122a4565b8101031261029357518015158103610293579038611a6f565b503d611a86565b50513d6000823e3d90fd5b611adb9150823d8411611ae1575b611ad381836122a4565b81019061296f565b38611a3b565b503d611ac9565b346102935761023f611af936612253565b91611b0761095e8433612574565b61263c565b5034610293576020908160031936011261029357611b286121f8565b6010548251631d4bb73d60e01b81529193916001600160a01b039183908290600490829086165afa908115611ce757600091611cca575b508133911603611c6157600e5493818516611c0c5716918215611bbb5750506001600160a81b031990911617600160a01b17600e557fd5cb2e985e95fd394547f9c7ee44d15aeb87738279930d016adf6a6c3f1a25c1600080a1005b60849250519062461bcd60e51b82526004820152602560248201527f4e6577206d696e7465722063616e6e6f7420626520746865207a65726f206164604482015264647265737360d81b6064820152fd5b835162461bcd60e51b815260048101849052602860248201527f436f6e747261637420697320616c72656164792061737369676e656420746f20604482015267309036b4b73a32b960c11b6064820152608490fd5b50608491519062461bcd60e51b82526004820152603a60248201527f4f6e6c79207468652070726f746f636f6c277320526166666c654465706c6f7960448201527f65722063616e2063616c6c20746869732066756e6374696f6e2e0000000000006064820152fd5b611ce19150833d8511611ae157611ad381836122a4565b38611b5f565b84513d6000823e3d90fd5b5034610293578060031936011261029357611d0b6121f8565b90602435611d1761234d565b611d1f6129df565b601154918115611ded57601254600a8404611d3a8483612be4565b11611da95782611d6491611d5f600b96959695611d58848854612be4565b1115612bf1565b612be4565b6012556001600160a01b0384169160005b848110611d83576001600655005b611da49084600080516020612c5183398151915260208554610a22816129d0565b611d75565b815162461bcd60e51b815260206004820152601e60248201527f45786365656473203130252063726561746f7220616c6c6f636174696f6e00006044820152606490fd5b5162461bcd60e51b815260206004820152601460248201527305175616e74697479206d757374206265203e20360641b6044820152606490fd5b503461029357611e3636612224565b611e3e61234d565b600e549260ff8460a01c16611e78575015611e70575b6001600160a01b03166001600160a01b03199190911617600e55005b506000611e54565b5162461bcd60e51b815260206004820152600f60248201526e105c1c1c9bdd985b081b1bd8dad959608a1b6044820152606490fd5b5034610293578060031936011261029357611ec66121f8565b602435916001600160a01b03908180611ede8661243a565b16931692808414611fd257803314908115611faf575b5015611f4657600084815260046020522080546001600160a01b03191683179055611f1e8361243a565b167f8c5be1e5ebec7d5bd14f71427d1e84f3dd0314c0f7b2291e5b200ac8c7c3b925600080a4005b5162461bcd60e51b815260206004820152603d60248201527f4552433732313a20617070726f76652063616c6c6572206973206e6f7420746f60448201527f6b656e206f776e6572206f7220617070726f76656420666f7220616c6c0000006064820152608490fd5b90506000526005602052806000203360005260205260ff81600020541638611ef4565b815162461bcd60e51b815260206004820152602160248201527f4552433732313a20617070726f76616c20746f2063757272656e74206f776e656044820152603960f91b6064820152608490fd5b503461029357602036600319011261029357602090610fa360043561245d565b503461029357600036600319011261029357600e5490516001600160a01b039091168152602090f35b503461029357600036600319011261029357805160009160085461208c81612935565b80845290600190818116908115610c0157506001146120b6575050610ba4826106069403836122a4565b6008600090815294507ff3f7a9fe364faab93b216da50a3214154f22a0a2b415b23a84c8169e8b636ee35b8286106120fb5750505091810160200191610ba482610b93565b805460208787018101919091529095019481016120e1565b34610293576020366003190112610293576004359063ffffffff60e01b821680920361029357602091632cfe929360e21b811490811561219f575b811561215c575b5015158152f35b6380ac58cd60e01b81149150811561218e575b811561217d575b5083612155565b6301ffc9a760e01b14905083612176565b635b5e139f60e01b8114915061216f565b63152a902d60e11b8114915061214e565b60005b8381106121c35750506000910152565b81810151838201526020016121b3565b906020916121ec815180928185528580860191016121b0565b601f01601f1916010190565b600435906001600160a01b038216820361029357565b602435906001600160a01b038216820361029357565b6040906003190112610293576004356001600160a01b0381168103610293579060243580151581036102935790565b6060906003190112610293576001600160a01b0390600435828116810361029357916024359081168103610293579060443590565b6020810190811067ffffffffffffffff8211176116fa57604052565b90601f8019910116810190811067ffffffffffffffff8211176116fa57604052565b67ffffffffffffffff81116116fa57601f01601f191660200190565b9291926122ee826122c6565b916122fc60405193846122a4565b829481845281830111610293578281602093846000960137010152565b9080601f8301121561029357816020612334933591016122e2565b90565b6040906003190112610293576004359060243590565b6007546001600160a01b0316330361236157565b606460405162461bcd60e51b815260206004820152602060248201527f4f776e61626c653a2063616c6c6572206973206e6f7420746865206f776e65726044820152fd5b600780546001600160a01b039283166001600160a01b0319821681179092559091167f8be0079c531659141344cd1fd0a4f28419497f9722a3daafe3b4186f6b6457e0600080a3565b156123f557565b60405162461bcd60e51b815260206004820152601860248201527f4552433732313a20696e76616c696420746f6b656e20494400000000000000006044820152606490fd5b6000908152600260205260409020546001600160a01b03166123348115156123ee565b600081815260026020526040902054612480906001600160a01b031615156123ee565b6000908152600460205260409020546001600160a01b031690565b156124a257565b60405162461bcd60e51b815260206004820152602d60248201527f4552433732313a2063616c6c6572206973206e6f7420746f6b656e206f776e6560448201526c1c881bdc88185c1c1c9bdd9959609a1b6064820152608490fd5b60809060208152603260208201527f4552433732313a207472616e7366657220746f206e6f6e20455243373231526560408201527131b2b4bb32b91034b6b83632b6b2b73a32b960711b60608201520190565b1561255757565b60405162461bcd60e51b815280612570600482016124fd565b0390fd5b906001600160a01b0380806125888461243a565b169316918383149384156125bb575b5083156125a5575b50505090565b6125b19192935061245d565b161438808061259f565b909350600052600560205260406000208260005260205260ff604060002054169238612597565b156125e957565b60405162461bcd60e51b815260206004820152602560248201527f4552433732313a207472616e736665722066726f6d20696e636f72726563742060448201526437bbb732b960d91b6064820152608490fd5b906126649161264a8461243a565b6001600160a01b03939184169284929091831684146125e2565b169182156126fc57816126819161267a8661243a565b16146125e2565b7fddf252ad1be2c89b69c2b068fc378daa952ba7f163c4a11628f55a4df523b3ef60008481526004602052604081206001600160601b0360a01b9081815416905583825260036020526040822060001981540190558482526040822060018154019055858252600260205284604083209182541617905580a4565b60405162461bcd60e51b8152602060048201526024808201527f4552433732313a207472616e7366657220746f20746865207a65726f206164646044820152637265737360e01b6064820152608490fd5b3d15612778573d9061275e826122c6565b9161276c60405193846122a4565b82523d6000602084013e565b606090565b9091600091803b1561286f576127c86020918493604051948580948193630a85bd0160e11b9a8b845233600485015284602485015260448401526080606484015260848301906121d3565b03926001600160a01b03165af190829082612820575b5050612812576127ec61274d565b8051908161280d5760405162461bcd60e51b815280612570600482016124fd565b602001fd5b6001600160e01b0319161490565b909192506020813d8211612867575b8161283c602093836122a4565b810103126128635751906001600160e01b03198216820361286057509038806127de565b80fd5b5080fd5b3d915061282f565b50505050600190565b91926000929190813b156128e9576020916128ce9185604051958680958194630a85bd0160e11b9b8c845233600485015260018060a01b03809516602485015260448401526080606484015260848301906121d3565b0393165af190829082612820575050612812576127ec61274d565b5050505050600190565b156128fa57565b60405162461bcd60e51b8152602060048201526013602482015272526f79616c747920657863656564732031302560681b6044820152606490fd5b90600182811c92168015612965575b602083101461294f57565b634e487b7160e01b600052602260045260246000fd5b91607f1691612944565b9081602091031261029357516001600160a01b03811681036102935790565b1561299557565b60405162461bcd60e51b81526020600482015260136024820152722ab730baba3437b934bd32b21036b4b73a32b960691b6044820152606490fd5b6000198114610a3e5760010190565b6002600654146129f0576002600655565b60405162461bcd60e51b815260206004820152601f60248201527f5265656e7472616e637947756172643a207265656e7472616e742063616c6c006044820152606490fd5b604051612a4181612288565b6000808252926001600160a01b038316928315612b08578161097394612b0696612a89612a8384600052600260205260018060a01b0360406000205416151590565b15612b4c565b600083815260026020526040902054612aac906001600160a01b03161515612a83565b81815260036020526040812060018154019055828152600260205260408120826001600160601b0360a01b8254161790557fddf252ad1be2c89b69c2b068fc378daa952ba7f163c4a11628f55a4df523b3ef8180a461277d565b565b606460405162461bcd60e51b815260206004820152602060248201527f4552433732313a206d696e7420746f20746865207a65726f20616464726573736044820152fd5b15612b5357565b60405162461bcd60e51b815260206004820152601c60248201527f4552433732313a20746f6b656e20616c7265616479206d696e746564000000006044820152606490fd5b15612b9f57565b60405162461bcd60e51b815260206004820152601f60248201527f5175616e74697479206d7573742062652067726561746572207468616e2030006044820152606490fd5b91908201809211610a3e57565b15612bf857565b60405162461bcd60e51b815260206004820152601f60248201527f4d696e74696e6720776f756c6420657863656564206d617820737570706c79006044820152606490fd5b81810292918115918404141715610a3e5756fe3b782080656380c62378fe492892b8dcb9c50affce49759e169b8c7e5ef270e76e1540171b6c0c960b71a7020d9f60077f6af931a8bbf590da0223dacf75c7afa264697066735822122007523ba4228af73b8fa2206d3ecc3a832ddc920511572682b132cb8e2d3430c164736f6c63430008130033",
  "linkReferences": {},
  "deployedLinkReferences": {}
}