{
  "_format": "hh-sol-artifact-1",
  "contractName": "NFTFactory",
  "sourceName": "contracts/NFTFactory.sol",
  "abi": [
    {
      "inputs": [
        {
          "internalType": "address",
          "name": "_erc721Implementation",
          "type": "address"
        },
        {
          "internalType": "address",
          "name": "_erc1155Implementation",
          "type": "address"
        },
        {
          "internalType": "address",
          "name": "_raffleManager",
          "type": "address"
        }
      ],
      "stateMutability": "nonpayable",
      "type": "constructor"
    },
    {
      "anonymous": false,
      "inputs": [
        {
          "indexed": true,
          "internalType": "address",
          "name": "collection",
          "type": "address"
        },
        {
          "indexed": true,
          "internalType": "address",
          "name": "creator",
          "type": "address"
        },
        {
          "indexed": false,
          "internalType": "enum PrizeTypes.Standard",
          "name": "standard",
          "type": "uint8"
        }
      ],
      "name": "PrizeCollectionCreated",
      "type": "event"
    },
    {
      "inputs": [
        {
          "internalType": "enum PrizeTypes.Standard",
          "name": "standard",
          "type": "uint8"
        },
        {
          "internalType": "string",
          "name": "name",
          "type": "string"
        },
        {
          "internalType": "string",
          "name": "symbol",
          "type": "string"
        },
        {
          "internalType": "string",
          "name": "baseURI",
          "type": "string"
        },
        {
          "internalType": "address",
          "name": "initialOwner",
          "type": "address"
        },
        {
          "internalType": "uint256",
          "name": "royaltyPercentage",
          "type": "uint256"
        },
        {
          "internalType": "address",
          "name": "royaltyRecipient",
          "type": "address"
        },
        {
          "internalType": "uint256",
          "name": "maxSupply",
          "type": "uint256"
        },
        {
          "internalType": "address",
          "name": "raffleAddress",
          "type": "address"
        }
      ],
      "name": "createPrizeCollection",
      "outputs": [
        {
          "internalType": "address",
          "name": "",
          "type": "address"
        }
      ],
      "stateMutability": "nonpayable",
      "type": "function"
    },
    {
      "inputs": [],
      "name": "erc1155Implementation",
      "outputs": [
        {
          "internalType": "address",
          "name": "",
          "type": "address"
        }
      ],
      "stateMutability": "view",
      "type": "function"
    },
    {
      "inputs": [],
      "name": "erc721Implementation",
      "outputs": [
        {
          "internalType": "address",
          "name": "",
          "type": "address"
        }
      ],
      "stateMutability": "view",
      "type": "function"
    },
    {
      "inputs": [],
      "name": "raffleManager",
      "outputs": [
        {
          "internalType": "address",
          "name": "",
          "type": "address"
        }
      ],
      "stateMutability": "view",
      "type": "function"
    },
    {
      "inputs": [
        {
          "internalType": "address",
          "name": "collection",
          "type": "address"
        },
        {
          "internalType": "bytes32",
          "name": "signature",
          "type": "bytes32"
        }
      ],
      "name": "validateSignature",
      "outputs": [
        {
          "internalType": "bool",
          "name": "",
          "type": "bool"
        }
      ],
      "stateMutability": "view",
      "type": "function"
    }
  ],
  "bytecode": "0x60c0346100b657601f61099038819003918201601f19168301916001600160401b038311848410176100bb578084926060946040528339810103126100b657610047816100d1565b906100606040610059602084016100d1565b92016100d1565b60809290925260a052600080546001600160a01b0319166001600160a01b039092169190911790556040516108aa90816100e6823960805181818161021e01526106ce015260a05181818160de01526104bd0152f35b600080fd5b634e487b7160e01b600052604160045260246000fd5b51906001600160a01b03821682036100b65756fe608080604052600436101561001357600080fd5b600090813560e01c9081634a80a319146106ba575080634fd63f091461010d5780636e204c41146100c8578063aa6527d9146100a15763ea4dae911461005857600080fd5b3461009e57604036600319011261009e576004356001600160a01b038181169182900361009957604060209360243581526001855220541614604051908152f35b600080fd5b80fd5b503461009e578060031936011261009e57546040516001600160a01b039091168152602090f35b503461009e578060031936011261009e576040517f00000000000000000000000000000000000000000000000000000000000000006001600160a01b03168152602090f35b503461009e5761012036600319011261009e576002600435101561009e5767ffffffffffffffff906024358281116104435761014d903690600401610749565b9060443583811161044357610166903690600401610749565b926064359081116104435761017f903690600401610749565b608435939091906001600160a01b03851685036104435760c435936001600160a01b03851685036106b65761010435936001600160a01b03851685036106b2578354604051631d4bb73d60e01b815290602090829060049082906001600160a01b03165afa9081156106a7578591610661575b50336001600160a01b0390911603610626578394600435156000146104a45760e4351561045f576102427f00000000000000000000000000000000000000000000000000000000000000006107e0565b604051606082901b6bffffffffffffffffffffffff1916602082019081524260348301529198919061028181605481015b03601f198101835282610727565b51902080875260016020526040872080546001600160a01b0319166001600160a01b038b8116918217909255885490911694919291903b1561045b5791879593916103166102f296946103046040519a8b998a9963125e237360e11b8b5261014060048c01526101448b01906107a0565b8981036003190160248b0152906107a0565b878103600319016044890152906107a0565b6001600160a01b038d81166064880152608487019590955260a480359087015290841660c486015260e480860192909252903561010485015290821661012484015291909103908290849089165af1801561043857908291610447575b50505b80546001600160a01b031692833b1561044357604051634a2e22d360e01b81526001600160a01b03909116600482018190529382908290602490829084905af1801561043857908291610424575b505060405191610410575060043581526020926001600160a01b03169082907fcb0d919df2a078ab469ae0bbf066a91eba015762d3990770470f01c860962cd4908590a3604051908152f35b634e487b7160e01b81526021600452602490fd5b61042d906106fd565b61009e5780386103c4565b6040513d84823e3d90fd5b5080fd5b610450906106fd565b61009e578038610373565b8780fd5b60405162461bcd60e51b815260206004820152601e60248201527f4d617820737570706c7920726571756972656420666f722045524337323100006044820152606490fd5b509350505080916001600435146000146105e8576104e17f00000000000000000000000000000000000000000000000000000000000000006107e0565b604051606082901b6bffffffffffffffffffffffff191660208201908152426034830152919591906105168160548101610273565b51902080845260016020526040842080546001600160a01b0319166001600160a01b03888116918217909255855492949092909116823b156105e457604051630164bf8760e11b815261010060048201529486948694938593879385938e93610584906101048701906107a0565b6001600160a01b03948516602487015260a4803560448801529190941660648601526084850191909152830152600160c483015260e480359083015203925af18015610438576105d5575b50610376565b6105de906106fd565b386105cf565b8580fd5b60405162461bcd60e51b8152602060048201526016602482015275125b9d985b1a59081d1bdad95b881cdd185b99185c9960521b6044820152606490fd5b60405162461bcd60e51b815260206004820152601360248201527227b7363c902930b3333632a232b83637bcb2b960691b6044820152606490fd5b90506020813d60201161069f575b8161067c60209383610727565b8101031261069b57516001600160a01b038116810361069b57386101f2565b8480fd5b3d915061066f565b6040513d87823e3d90fd5b8380fd5b8280fd5b9050346104435781600319360112610443577f00000000000000000000000000000000000000000000000000000000000000006001600160a01b03168152602090f35b67ffffffffffffffff811161071157604052565b634e487b7160e01b600052604160045260246000fd5b90601f8019910116810190811067ffffffffffffffff82111761071157604052565b81601f820112156100995780359067ffffffffffffffff8211610711576040519261077e601f8401601f191660200185610727565b8284526020838301011161009957816000926020809301838601378301015290565b919082519283825260005b8481106107cc575050826000602080949584010152601f8019910116010190565b6020818301810151848301820152016107ab565b6e5af43d82803e903d91602b57fd5bf390763d602d80600a3d3981f3363d3d373d3d3d363d7300000062ffffff8260881c161760005260781b17602052603760096000f0906001600160a01b0382161561083657565b60405162461bcd60e51b8152602060048201526016602482015275115490cc4c4d8dce8818dc99585d194819985a5b195960521b6044820152606490fdfea26469706673582212209a0ca616e401b2485f11169dd41dee0920f33bd895d2970e8f40d33893e8c03364736f6c63430008130033",
  "linkReferences": {},
  "deployedLinkReferences": {}
}