{
  "_format": "hh-sol-artifact-1",
  "contractName": "RaffleManager",
  "sourceName": "contracts/RaffleManager.sol",
  "abi": [
    {
      "inputs": [
        {
          "internalType": "address",
          "name": "_vrfCoordinator",
          "type": "address"
        },
        {
          "internalType": "address",
          "name": "_upkeepRegistry",
          "type": "address"
        },
        {
          "internalType": "bytes32",
          "name": "_keyHash",
          "type": "bytes32"
        },
        {
          "internalType": "address",
          "name": "_linkToken",
          "type": "address"
        },
        {
          "internalType": "uint32",
          "name": "_callbackGasLimit",
          "type": "uint32"
        },
        {
          "internalType": "uint16",
          "name": "_requestConfirmations",
          "type": "uint16"
        }
      ],
      "stateMutability": "nonpayable",
      "type": "constructor"
    },
    {
      "anonymous": false,
      "inputs": [
        {
          "indexed": false,
          "internalType": "bool",
          "name": "status",
          "type": "bool"
        }
      ],
      "name": "AllowExistingCollectionsToggled",
      "type": "event"
    },
    {
      "anonymous": false,
      "inputs": [
        {
          "indexed": true,
          "internalType": "address",
          "name": "collection",
          "type": "address"
        },
        {
          "indexed": false,
          "internalType": "bool",
          "name": "isWhitelisted",
          "type": "bool"
        }
      ],
      "name": "CollectionWhitelistUpdated",
      "type": "event"
    },
    {
      "anonymous": false,
      "inputs": [
        {
          "indexed": false,
          "internalType": "string",
          "name": "contractType",
          "type": "string"
        },
        {
          "indexed": false,
          "internalType": "address",
          "name": "newAddress",
          "type": "address"
        }
      ],
      "name": "ContractReplaced",
      "type": "event"
    },
    {
      "anonymous": false,
      "inputs": [
        {
          "indexed": false,
          "internalType": "uint256",
          "name": "newPercentage",
          "type": "uint256"
        }
      ],
      "name": "CreationFeePercentageUpdated",
      "type": "event"
    },
    {
      "anonymous": false,
      "inputs": [
        {
          "indexed": false,
          "internalType": "uint256",
          "name": "min",
          "type": "uint256"
        },
        {
          "indexed": false,
          "internalType": "uint256",
          "name": "max",
          "type": "uint256"
        }
      ],
      "name": "DurationLimitsUpdated",
      "type": "event"
    },
    {
      "anonymous": false,
      "inputs": [
        {
          "indexed": true,
          "internalType": "address",
          "name": "collection",
          "type": "address"
        }
      ],
      "name": "ExternalCollectionAdded",
      "type": "event"
    },
    {
      "anonymous": false,
      "inputs": [
        {
          "indexed": false,
          "internalType": "uint256",
          "name": "newPrice",
          "type": "uint256"
        }
      ],
      "name": "GlobalTicketPriceUpdated",
      "type": "event"
    },
    {
      "anonymous": false,
      "inputs": [
        {
          "indexed": true,
          "internalType": "address",
          "name": "collection",
          "type": "address"
        }
      ],
      "name": "InternalCollectionAdded",
      "type": "event"
    },
    {
      "anonymous": false,
      "inputs": [
        {
          "indexed": false,
          "internalType": "address",
          "name": "newLinkToken",
          "type": "address"
        }
      ],
      "name": "LinkTokenUpdated",
      "type": "event"
    },
    {
      "anonymous": false,
      "inputs": [
        {
          "indexed": false,
          "internalType": "uint256",
          "name": "newLimit",
          "type": "uint256"
        }
      ],
      "name": "MaxTicketsPerParticipantUpdated",
      "type": "event"
    },
    {
      "anonymous": false,
      "inputs": [
        {
          "indexed": false,
          "internalType": "uint256",
          "name": "newMin",
          "type": "uint256"
        }
      ],
      "name": "MinTicketLimitNonPrizedUpdated",
      "type": "event"
    },
    {
      "anonymous": false,
      "inputs": [
        {
          "indexed": false,
          "internalType": "address",
          "name": "operator",
          "type": "address"
        },
        {
          "indexed": false,
          "internalType": "bool",
          "name": "status",
          "type": "bool"
        }
      ],
      "name": "OperatorUpdated",
      "type": "event"
    },
    {
      "anonymous": false,
      "inputs": [
        {
          "indexed": true,
          "internalType": "address",
          "name": "previousOwner",
          "type": "address"
        },
        {
          "indexed": true,
          "internalType": "address",
          "name": "newOwner",
          "type": "address"
        }
      ],
      "name": "OwnershipTransferred",
      "type": "event"
    },
    {
      "anonymous": false,
      "inputs": [
        {
          "indexed": false,
          "internalType": "bool",
          "name": "status",
          "type": "bool"
        }
      ],
      "name": "PrizedRafflesToggled",
      "type": "event"
    },
    {
      "anonymous": false,
      "inputs": [
        {
          "indexed": false,
          "internalType": "uint256",
          "name": "newPercentage",
          "type": "uint256"
        }
      ],
      "name": "ProtocolFeeUpdated",
      "type": "event"
    },
    {
      "anonymous": false,
      "inputs": [
        {
          "indexed": false,
          "internalType": "bool",
          "name": "paused",
          "type": "bool"
        }
      ],
      "name": "RaffleCreationPaused",
      "type": "event"
    },
    {
      "anonymous": false,
      "inputs": [
        {
          "indexed": true,
          "internalType": "address",
          "name": "raffle",
          "type": "address"
        }
      ],
      "name": "RaffleRegistered",
      "type": "event"
    },
    {
      "anonymous": false,
      "inputs": [
        {
          "indexed": false,
          "internalType": "uint256",
          "name": "newPercentage",
          "type": "uint256"
        }
      ],
      "name": "RefundablePercentageUpdated",
      "type": "event"
    },
    {
      "anonymous": false,
      "inputs": [
        {
          "indexed": false,
          "internalType": "address",
          "name": "newAddress",
          "type": "address"
        }
      ],
      "name": "RevenueManagerUpdated",
      "type": "event"
    },
    {
      "anonymous": false,
      "inputs": [
        {
          "indexed": true,
          "internalType": "uint256",
          "name": "subscriptionId",
          "type": "uint256"
        }
      ],
      "name": "SubscriptionCreated",
      "type": "event"
    },
    {
      "anonymous": false,
      "inputs": [
        {
          "indexed": false,
          "internalType": "uint96",
          "name": "amount",
          "type": "uint96"
        }
      ],
      "name": "SubscriptionFunded",
      "type": "event"
    },
    {
      "anonymous": false,
      "inputs": [
        {
          "indexed": false,
          "internalType": "uint256",
          "name": "minTicketLimit",
          "type": "uint256"
        },
        {
          "indexed": false,
          "internalType": "uint256",
          "name": "maxTicketLimit",
          "type": "uint256"
        }
      ],
      "name": "TicketLimitsUpdated",
      "type": "event"
    },
    {
      "anonymous": false,
      "inputs": [
        {
          "indexed": true,
          "internalType": "address",
          "name": "raffle",
          "type": "address"
        }
      ],
      "name": "UpkeepCanceled",
      "type": "event"
    },
    {
      "anonymous": false,
      "inputs": [
        {
          "indexed": true,
          "internalType": "address",
          "name": "raffle",
          "type": "address"
        },
        {
          "indexed": false,
          "internalType": "uint96",
          "name": "amount",
          "type": "uint96"
        }
      ],
      "name": "UpkeepFunded",
      "type": "event"
    },
    {
      "anonymous": false,
      "inputs": [
        {
          "indexed": true,
          "internalType": "address",
          "name": "raffle",
          "type": "address"
        }
      ],
      "name": "UpkeepRegistered",
      "type": "event"
    },
    {
      "anonymous": false,
      "inputs": [
        {
          "indexed": false,
          "internalType": "address",
          "name": "newRegistry",
          "type": "address"
        }
      ],
      "name": "UpkeepRegistryUpdated",
      "type": "event"
    },
    {
      "anonymous": false,
      "inputs": [
        {
          "indexed": false,
          "internalType": "uint256",
          "name": "newId",
          "type": "uint256"
        }
      ],
      "name": "UpkeepSubscriptionIDUpdated",
      "type": "event"
    },
    {
      "anonymous": false,
      "inputs": [
        {
          "indexed": true,
          "internalType": "address",
          "name": "raffle",
          "type": "address"
        }
      ],
      "name": "UpkeepUnregistered",
      "type": "event"
    },
    {
      "anonymous": false,
      "inputs": [
        {
          "indexed": true,
          "internalType": "address",
          "name": "consumer",
          "type": "address"
        }
      ],
      "name": "VRFConsumerAdded",
      "type": "event"
    },
    {
      "anonymous": false,
      "inputs": [
        {
          "indexed": true,
          "internalType": "address",
          "name": "consumer",
          "type": "address"
        }
      ],
      "name": "VRFConsumerRemoved",
      "type": "event"
    },
    {
      "anonymous": false,
      "inputs": [],
      "name": "VRFParamsUpdated",
      "type": "event"
    },
    {
      "anonymous": false,
      "inputs": [],
      "name": "VRFSubscriptionCancelled",
      "type": "event"
    },
    {
      "inputs": [
        {
          "internalType": "address",
          "name": "_collection",
          "type": "address"
        }
      ],
      "name": "addExternalCollection",
      "outputs": [],
      "stateMutability": "nonpayable",
      "type": "function"
    },
    {
      "inputs": [
        {
          "internalType": "address",
          "name": "_collection",
          "type": "address"
        }
      ],
      "name": "addInternalCollection",
      "outputs": [],
      "stateMutability": "nonpayable",
      "type": "function"
    },
    {
      "inputs": [
        {
          "internalType": "address",
          "name": "consumer",
          "type": "address"
        }
      ],
      "name": "addVRFConsumer",
      "outputs": [],
      "stateMutability": "nonpayable",
      "type": "function"
    },
    {
      "inputs": [
        {
          "internalType": "uint256",
          "name": "",
          "type": "uint256"
        }
      ],
      "name": "allRaffles",
      "outputs": [
        {
          "internalType": "address",
          "name": "",
          "type": "address"
        }
      ],
      "stateMutability": "view",
      "type": "function"
    },
    {
      "inputs": [],
      "name": "allowExistingCollections",
      "outputs": [
        {
          "internalType": "bool",
          "name": "",
          "type": "bool"
        }
      ],
      "stateMutability": "view",
      "type": "function"
    },
    {
      "inputs": [
        {
          "internalType": "address",
          "name": "",
          "type": "address"
        }
      ],
      "name": "approvedCollections",
      "outputs": [
        {
          "internalType": "bool",
          "name": "",
          "type": "bool"
        }
      ],
      "stateMutability": "view",
      "type": "function"
    },
    {
      "inputs": [],
      "name": "callbackGasLimit",
      "outputs": [
        {
          "internalType": "uint32",
          "name": "",
          "type": "uint32"
        }
      ],
      "stateMutability": "view",
      "type": "function"
    },
    {
      "inputs": [
        {
          "internalType": "address",
          "name": "raffle",
          "type": "address"
        }
      ],
      "name": "cancelUpkeep",
      "outputs": [],
      "stateMutability": "nonpayable",
      "type": "function"
    },
    {
      "inputs": [],
      "name": "cancelVRFSubscription",
      "outputs": [],
      "stateMutability": "nonpayable",
      "type": "function"
    },
    {
      "inputs": [],
      "name": "createUpkeepSubscription",
      "outputs": [],
      "stateMutability": "nonpayable",
      "type": "function"
    },
    {
      "inputs": [],
      "name": "createVRFSubscription",
      "outputs": [],
      "stateMutability": "nonpayable",
      "type": "function"
    },
    {
      "inputs": [],
      "name": "creationFeePercentage",
      "outputs": [
        {
          "internalType": "uint256",
          "name": "",
          "type": "uint256"
        }
      ],
      "stateMutability": "view",
      "type": "function"
    },
    {
      "inputs": [
        {
          "internalType": "address",
          "name": "",
          "type": "address"
        }
      ],
      "name": "creationFeeWhitelist",
      "outputs": [
        {
          "internalType": "bool",
          "name": "",
          "type": "bool"
        }
      ],
      "stateMutability": "view",
      "type": "function"
    },
    {
      "inputs": [],
      "name": "creationPaused",
      "outputs": [
        {
          "internalType": "bool",
          "name": "",
          "type": "bool"
        }
      ],
      "stateMutability": "view",
      "type": "function"
    },
    {
      "inputs": [
        {
          "internalType": "uint96",
          "name": "amount",
          "type": "uint96"
        }
      ],
      "name": "fundUpkeepSubscription",
      "outputs": [],
      "stateMutability": "nonpayable",
      "type": "function"
    },
    {
      "inputs": [
        {
          "internalType": "uint96",
          "name": "amount",
          "type": "uint96"
        }
      ],
      "name": "fundVRFSubscriptionWithLink",
      "outputs": [],
      "stateMutability": "nonpayable",
      "type": "function"
    },
    {
      "inputs": [
        {
          "internalType": "uint96",
          "name": "amount",
          "type": "uint96"
        }
      ],
      "name": "fundVRFSubscriptionWithNative",
      "outputs": [],
      "stateMutability": "payable",
      "type": "function"
    },
    {
      "inputs": [],
      "name": "getAllRaffles",
      "outputs": [
        {
          "internalType": "address[]",
          "name": "",
          "type": "address[]"
        }
      ],
      "stateMutability": "view",
      "type": "function"
    },
    {
      "inputs": [],
      "name": "getAllTicketLimits",
      "outputs": [
        {
          "internalType": "uint256",
          "name": "minPrized",
          "type": "uint256"
        },
        {
          "internalType": "uint256",
          "name": "minNonPrized",
          "type": "uint256"
        },
        {
          "internalType": "uint256",
          "name": "max",
          "type": "uint256"
        }
      ],
      "stateMutability": "view",
      "type": "function"
    },
    {
      "inputs": [],
      "name": "getCreationFeePercentage",
      "outputs": [
        {
          "internalType": "uint256",
          "name": "",
          "type": "uint256"
        }
      ],
      "stateMutability": "view",
      "type": "function"
    },
    {
      "inputs": [],
      "name": "getDurationLimits",
      "outputs": [
        {
          "internalType": "uint256",
          "name": "",
          "type": "uint256"
        },
        {
          "internalType": "uint256",
          "name": "",
          "type": "uint256"
        }
      ],
      "stateMutability": "view",
      "type": "function"
    },
    {
      "inputs": [],
      "name": "getMaxTicketsPerParticipant",
      "outputs": [
        {
          "internalType": "uint256",
          "name": "",
          "type": "uint256"
        }
      ],
      "stateMutability": "view",
      "type": "function"
    },
    {
      "inputs": [
        {
          "internalType": "bool",
          "name": "hasPrize",
          "type": "bool"
        }
      ],
      "name": "getMinTicketLimit",
      "outputs": [
        {
          "internalType": "uint256",
          "name": "",
          "type": "uint256"
        }
      ],
      "stateMutability": "view",
      "type": "function"
    },
    {
      "inputs": [],
      "name": "getRaffleConfig",
      "outputs": [
        {
          "internalType": "uint256",
          "name": "",
          "type": "uint256"
        },
        {
          "internalType": "uint256",
          "name": "",
          "type": "uint256"
        },
        {
          "internalType": "uint256",
          "name": "",
          "type": "uint256"
        }
      ],
      "stateMutability": "view",
      "type": "function"
    },
    {
      "inputs": [],
      "name": "getRevenueManager",
      "outputs": [
        {
          "internalType": "address",
          "name": "",
          "type": "address"
        }
      ],
      "stateMutability": "view",
      "type": "function"
    },
    {
      "inputs": [],
      "name": "getRevenueParameters",
      "outputs": [
        {
          "internalType": "uint256",
          "name": "_protocolFee",
          "type": "uint256"
        },
        {
          "internalType": "uint256",
          "name": "_refundablePercentage",
          "type": "uint256"
        },
        {
          "internalType": "uint256",
          "name": "_creationFeePercentage",
          "type": "uint256"
        }
      ],
      "stateMutability": "view",
      "type": "function"
    },
    {
      "inputs": [],
      "name": "getRevenueShare",
      "outputs": [
        {
          "internalType": "bool",
          "name": "",
          "type": "bool"
        },
        {
          "internalType": "uint256",
          "name": "",
          "type": "uint256"
        }
      ],
      "stateMutability": "view",
      "type": "function"
    },
    {
      "inputs": [],
      "name": "getSubscriptionId",
      "outputs": [
        {
          "internalType": "uint256",
          "name": "",
          "type": "uint256"
        }
      ],
      "stateMutability": "view",
      "type": "function"
    },
    {
      "inputs": [],
      "name": "getTicketLimits",
      "outputs": [
        {
          "internalType": "uint256",
          "name": "",
          "type": "uint256"
        },
        {
          "internalType": "uint256",
          "name": "",
          "type": "uint256"
        }
      ],
      "stateMutability": "view",
      "type": "function"
    },
    {
      "inputs": [],
      "name": "getTicketPrice",
      "outputs": [
        {
          "internalType": "uint256",
          "name": "",
          "type": "uint256"
        }
      ],
      "stateMutability": "view",
      "type": "function"
    },
    {
      "inputs": [
        {
          "internalType": "address",
          "name": "raffle",
          "type": "address"
        }
      ],
      "name": "getUpkeepId",
      "outputs": [
        {
          "internalType": "uint256",
          "name": "",
          "type": "uint256"
        }
      ],
      "stateMutability": "view",
      "type": "function"
    },
    {
      "inputs": [],
      "name": "getVRFParams",
      "outputs": [
        {
          "internalType": "address",
          "name": "",
          "type": "address"
        },
        {
          "internalType": "uint256",
          "name": "",
          "type": "uint256"
        },
        {
          "internalType": "bytes32",
          "name": "",
          "type": "bytes32"
        },
        {
          "internalType": "uint32",
          "name": "",
          "type": "uint32"
        },
        {
          "internalType": "uint16",
          "name": "",
          "type": "uint16"
        }
      ],
      "stateMutability": "view",
      "type": "function"
    },
    {
      "inputs": [],
      "name": "globalTicketPrice",
      "outputs": [
        {
          "internalType": "uint256",
          "name": "",
          "type": "uint256"
        }
      ],
      "stateMutability": "view",
      "type": "function"
    },
    {
      "inputs": [],
      "name": "initializeOwnership",
      "outputs": [],
      "stateMutability": "nonpayable",
      "type": "function"
    },
    {
      "inputs": [
        {
          "internalType": "address",
          "name": "_collection",
          "type": "address"
        }
      ],
      "name": "isCollectionApproved",
      "outputs": [
        {
          "internalType": "bool",
          "name": "",
          "type": "bool"
        }
      ],
      "stateMutability": "view",
      "type": "function"
    },
    {
      "inputs": [],
      "name": "isCreationPaused",
      "outputs": [
        {
          "internalType": "bool",
          "name": "",
          "type": "bool"
        }
      ],
      "stateMutability": "view",
      "type": "function"
    },
    {
      "inputs": [
        {
          "internalType": "address",
          "name": "",
          "type": "address"
        }
      ],
      "name": "isInternalCollection",
      "outputs": [
        {
          "internalType": "bool",
          "name": "",
          "type": "bool"
        }
      ],
      "stateMutability": "view",
      "type": "function"
    },
    {
      "inputs": [
        {
          "internalType": "address",
          "name": "operator",
          "type": "address"
        }
      ],
      "name": "isOperator",
      "outputs": [
        {
          "internalType": "bool",
          "name": "",
          "type": "bool"
        }
      ],
      "stateMutability": "view",
      "type": "function"
    },
    {
      "inputs": [
        {
          "internalType": "address",
          "name": "",
          "type": "address"
        }
      ],
      "name": "isVRFConsumer",
      "outputs": [
        {
          "internalType": "bool",
          "name": "",
          "type": "bool"
        }
      ],
      "stateMutability": "view",
      "type": "function"
    },
    {
      "inputs": [
        {
          "internalType": "address",
          "name": "caller",
          "type": "address"
        }
      ],
      "name": "isValidUpkeepCaller",
      "outputs": [
        {
          "internalType": "bool",
          "name": "",
          "type": "bool"
        }
      ],
      "stateMutability": "view",
      "type": "function"
    },
    {
      "inputs": [],
      "name": "keyHash",
      "outputs": [
        {
          "internalType": "bytes32",
          "name": "",
          "type": "bytes32"
        }
      ],
      "stateMutability": "view",
      "type": "function"
    },
    {
      "inputs": [],
      "name": "linkToken",
      "outputs": [
        {
          "internalType": "contract ILinkTransferAndCall",
          "name": "",
          "type": "address"
        }
      ],
      "stateMutability": "view",
      "type": "function"
    },
    {
      "inputs": [],
      "name": "maxRaffleDuration",
      "outputs": [
        {
          "internalType": "uint256",
          "name": "",
          "type": "uint256"
        }
      ],
      "stateMutability": "view",
      "type": "function"
    },
    {
      "inputs": [],
      "name": "maxTicketLimit",
      "outputs": [
        {
          "internalType": "uint256",
          "name": "",
          "type": "uint256"
        }
      ],
      "stateMutability": "view",
      "type": "function"
    },
    {
      "inputs": [],
      "name": "maxTicketsPerParticipant",
      "outputs": [
        {
          "internalType": "uint256",
          "name": "",
          "type": "uint256"
        }
      ],
      "stateMutability": "view",
      "type": "function"
    },
    {
      "inputs": [],
      "name": "minRaffleDuration",
      "outputs": [
        {
          "internalType": "uint256",
          "name": "",
          "type": "uint256"
        }
      ],
      "stateMutability": "view",
      "type": "function"
    },
    {
      "inputs": [],
      "name": "minTicketLimit",
      "outputs": [
        {
          "internalType": "uint256",
          "name": "",
          "type": "uint256"
        }
      ],
      "stateMutability": "view",
      "type": "function"
    },
    {
      "inputs": [],
      "name": "minTicketLimitNonPrized",
      "outputs": [
        {
          "internalType": "uint256",
          "name": "",
          "type": "uint256"
        }
      ],
      "stateMutability": "view",
      "type": "function"
    },
    {
      "inputs": [],
      "name": "nftFactory",
      "outputs": [
        {
          "internalType": "address",
          "name": "",
          "type": "address"
        }
      ],
      "stateMutability": "view",
      "type": "function"
    },
    {
      "inputs": [
        {
          "internalType": "address",
          "name": "",
          "type": "address"
        }
      ],
      "name": "operators",
      "outputs": [
        {
          "internalType": "bool",
          "name": "",
          "type": "bool"
        }
      ],
      "stateMutability": "view",
      "type": "function"
    },
    {
      "inputs": [],
      "name": "owner",
      "outputs": [
        {
          "internalType": "address",
          "name": "",
          "type": "address"
        }
      ],
      "stateMutability": "view",
      "type": "function"
    },
    {
      "inputs": [
        {
          "internalType": "bool",
          "name": "pause",
          "type": "bool"
        }
      ],
      "name": "pauseRaffleCreation",
      "outputs": [],
      "stateMutability": "nonpayable",
      "type": "function"
    },
    {
      "inputs": [],
      "name": "prizedRafflesEnabled",
      "outputs": [
        {
          "internalType": "bool",
          "name": "",
          "type": "bool"
        }
      ],
      "stateMutability": "view",
      "type": "function"
    },
    {
      "inputs": [],
      "name": "protocolFeePercentage",
      "outputs": [
        {
          "internalType": "uint256",
          "name": "",
          "type": "uint256"
        }
      ],
      "stateMutability": "view",
      "type": "function"
    },
    {
      "inputs": [],
      "name": "raffleDeployer",
      "outputs": [
        {
          "internalType": "address",
          "name": "",
          "type": "address"
        }
      ],
      "stateMutability": "view",
      "type": "function"
    },
    {
      "inputs": [],
      "name": "refundablePercentage",
      "outputs": [
        {
          "internalType": "uint256",
          "name": "",
          "type": "uint256"
        }
      ],
      "stateMutability": "view",
      "type": "function"
    },
    {
      "inputs": [
        {
          "internalType": "address",
          "name": "raffle",
          "type": "address"
        }
      ],
      "name": "registerForUpkeep",
      "outputs": [],
      "stateMutability": "nonpayable",
      "type": "function"
    },
    {
      "inputs": [
        {
          "internalType": "address",
          "name": "raffle",
          "type": "address"
        }
      ],
      "name": "registerRaffle",
      "outputs": [],
      "stateMutability": "nonpayable",
      "type": "function"
    },
    {
      "inputs": [
        {
          "internalType": "address",
          "name": "_collection",
          "type": "address"
        }
      ],
      "name": "removeApprovedCollection",
      "outputs": [],
      "stateMutability": "nonpayable",
      "type": "function"
    },
    {
      "inputs": [
        {
          "internalType": "address",
          "name": "consumer",
          "type": "address"
        }
      ],
      "name": "removeVRFConsumer",
      "outputs": [],
      "stateMutability": "nonpayable",
      "type": "function"
    },
    {
      "inputs": [],
      "name": "renounceOwnership",
      "outputs": [],
      "stateMutability": "nonpayable",
      "type": "function"
    },
    {
      "inputs": [
        {
          "internalType": "string",
          "name": "contractType",
          "type": "string"
        },
        {
          "internalType": "address",
          "name": "newAddress",
          "type": "address"
        }
      ],
      "name": "replaceContract",
      "outputs": [],
      "stateMutability": "nonpayable",
      "type": "function"
    },
    {
      "inputs": [],
      "name": "requestConfirmations",
      "outputs": [
        {
          "internalType": "uint16",
          "name": "",
          "type": "uint16"
        }
      ],
      "stateMutability": "view",
      "type": "function"
    },
    {
      "inputs": [],
      "name": "revenueManager",
      "outputs": [
        {
          "internalType": "address",
          "name": "",
          "type": "address"
        }
      ],
      "stateMutability": "view",
      "type": "function"
    },
    {
      "inputs": [],
      "name": "revenueSharePercentage",
      "outputs": [
        {
          "internalType": "uint256",
          "name": "",
          "type": "uint256"
        }
      ],
      "stateMutability": "view",
      "type": "function"
    },
    {
      "inputs": [],
      "name": "revenueSharingEnabled",
      "outputs": [
        {
          "internalType": "bool",
          "name": "",
          "type": "bool"
        }
      ],
      "stateMutability": "view",
      "type": "function"
    },
    {
      "inputs": [
        {
          "internalType": "uint256",
          "name": "_percentage",
          "type": "uint256"
        }
      ],
      "name": "setCreationFeePercentage",
      "outputs": [],
      "stateMutability": "nonpayable",
      "type": "function"
    },
    {
      "inputs": [
        {
          "internalType": "uint256",
          "name": "_min",
          "type": "uint256"
        },
        {
          "internalType": "uint256",
          "name": "_max",
          "type": "uint256"
        }
      ],
      "name": "setDurationLimits",
      "outputs": [],
      "stateMutability": "nonpayable",
      "type": "function"
    },
    {
      "inputs": [
        {
          "internalType": "uint256",
          "name": "_price",
          "type": "uint256"
        }
      ],
      "name": "setGlobalTicketPrice",
      "outputs": [],
      "stateMutability": "nonpayable",
      "type": "function"
    },
    {
      "inputs": [
        {
          "internalType": "address",
          "name": "_linkToken",
          "type": "address"
        }
      ],
      "name": "setLinkToken",
      "outputs": [],
      "stateMutability": "nonpayable",
      "type": "function"
    },
    {
      "inputs": [
        {
          "internalType": "uint256",
          "name": "_maxTickets",
          "type": "uint256"
        }
      ],
      "name": "setMaxTicketsPerParticipant",
      "outputs": [],
      "stateMutability": "nonpayable",
      "type": "function"
    },
    {
      "inputs": [
        {
          "internalType": "uint256",
          "name": "_min",
          "type": "uint256"
        }
      ],
      "name": "setMinTicketLimitNonPrized",
      "outputs": [],
      "stateMutability": "nonpayable",
      "type": "function"
    },
    {
      "inputs": [
        {
          "internalType": "address",
          "name": "_nftFactory",
          "type": "address"
        }
      ],
      "name": "setNFTFactory",
      "outputs": [],
      "stateMutability": "nonpayable",
      "type": "function"
    },
    {
      "inputs": [
        {
          "internalType": "address",
          "name": "operator",
          "type": "address"
        },
        {
          "internalType": "bool",
          "name": "status",
          "type": "bool"
        }
      ],
      "name": "setOperator",
      "outputs": [],
      "stateMutability": "nonpayable",
      "type": "function"
    },
    {
      "inputs": [
        {
          "internalType": "uint256",
          "name": "_percentage",
          "type": "uint256"
        }
      ],
      "name": "setProtocolFee",
      "outputs": [],
      "stateMutability": "nonpayable",
      "type": "function"
    },
    {
      "inputs": [
        {
          "internalType": "address",
          "name": "_raffleDeployer",
          "type": "address"
        }
      ],
      "name": "setRaffleDeployer",
      "outputs": [],
      "stateMutability": "nonpayable",
      "type": "function"
    },
    {
      "inputs": [
        {
          "internalType": "uint256",
          "name": "_percentage",
          "type": "uint256"
        }
      ],
      "name": "setRefundablePercentage",
      "outputs": [],
      "stateMutability": "nonpayable",
      "type": "function"
    },
    {
      "inputs": [
        {
          "internalType": "address",
          "name": "_revenueManager",
          "type": "address"
        }
      ],
      "name": "setRevenueManager",
      "outputs": [],
      "stateMutability": "nonpayable",
      "type": "function"
    },
    {
      "inputs": [
        {
          "internalType": "uint256",
          "name": "_min",
          "type": "uint256"
        },
        {
          "internalType": "uint256",
          "name": "_max",
          "type": "uint256"
        }
      ],
      "name": "setTicketLimits",
      "outputs": [],
      "stateMutability": "nonpayable",
      "type": "function"
    },
    {
      "inputs": [
        {
          "internalType": "address",
          "name": "_registry",
          "type": "address"
        }
      ],
      "name": "setUpkeepRegistry",
      "outputs": [],
      "stateMutability": "nonpayable",
      "type": "function"
    },
    {
      "inputs": [
        {
          "internalType": "uint256",
          "name": "_subscriptionId",
          "type": "uint256"
        }
      ],
      "name": "setUpkeepSubscriptionId",
      "outputs": [],
      "stateMutability": "nonpayable",
      "type": "function"
    },
    {
      "inputs": [
        {
          "internalType": "address",
          "name": "_coordinator",
          "type": "address"
        },
        {
          "internalType": "bytes32",
          "name": "_keyHash",
          "type": "bytes32"
        },
        {
          "internalType": "uint32",
          "name": "_gasLimit",
          "type": "uint32"
        }
      ],
      "name": "setVRFParams",
      "outputs": [],
      "stateMutability": "nonpayable",
      "type": "function"
    },
    {
      "inputs": [
        {
          "internalType": "uint256",
          "name": "_subscriptionId",
          "type": "uint256"
        }
      ],
      "name": "setVRFSubscriptionId",
      "outputs": [],
      "stateMutability": "nonpayable",
      "type": "function"
    },
    {
      "inputs": [
        {
          "internalType": "bool",
          "name": "_status",
          "type": "bool"
        }
      ],
      "name": "toggleAllowExistingCollections",
      "outputs": [],
      "stateMutability": "nonpayable",
      "type": "function"
    },
    {
      "inputs": [
        {
          "internalType": "bool",
          "name": "_status",
          "type": "bool"
        }
      ],
      "name": "togglePrizedRaffles",
      "outputs": [],
      "stateMutability": "nonpayable",
      "type": "function"
    },
    {
      "inputs": [
        {
          "internalType": "address",
          "name": "newOwner",
          "type": "address"
        }
      ],
      "name": "transferOwnership",
      "outputs": [],
      "stateMutability": "nonpayable",
      "type": "function"
    },
    {
      "inputs": [
        {
          "internalType": "address",
          "name": "",
          "type": "address"
        }
      ],
      "name": "upkeepIds",
      "outputs": [
        {
          "internalType": "uint256",
          "name": "",
          "type": "uint256"
        }
      ],
      "stateMutability": "view",
      "type": "function"
    },
    {
      "inputs": [],
      "name": "upkeepRegistry",
      "outputs": [
        {
          "internalType": "contract AutomationRegistryInterface",
          "name": "",
          "type": "address"
        }
      ],
      "stateMutability": "view",
      "type": "function"
    },
    {
      "inputs": [],
      "name": "upkeepSubscriptionId",
      "outputs": [
        {
          "internalType": "uint256",
          "name": "",
          "type": "uint256"
        }
      ],
      "stateMutability": "view",
      "type": "function"
    },
    {
      "inputs": [],
      "name": "vrfCoordinator",
      "outputs": [
        {
          "internalType": "contract VRFCoordinatorV2PlusInterface",
          "name": "",
          "type": "address"
        }
      ],
      "stateMutability": "view",
      "type": "function"
    },
    {
      "inputs": [],
      "name": "vrfSubscriptionId",
      "outputs": [
        {
          "internalType": "uint256",
          "name": "",
          "type": "uint256"
        }
      ],
      "stateMutability": "view",
      "type": "function"
    }
  ],
  "bytecode": "0x60808060405234620001ff5760c08162002dce803803809162000023828562000204565b833981010312620001ff5762000039816200023e565b602090620000498284016200023e565b6040840151936200005d606082016200023e565b9060808101519063ffffffff8216809203620001ff5760a001519361ffff85168503620001ff578592600491600098899182549560018060a01b031998338a8916178555604051998a98899760018060a01b0391823391167f8be0079c531659141344cd1fd0a4f28419497f9722a3daafe3b4186f6b6457e08a80a381600554966001600d556001600e55612710600f55610e1060105562278d00601155662386f26fc10000601255600a6015551696878460015416176001558a551690600a541617600a5565ffff0000000060ff199b8c601e5416601e558a1b169260018060d01b031916906601000000000000600160d01b039060301b1617171760055563288688f960e21b83525af1928315620001f4578493620001ba575b505081600255600c5416600c557f6a2b70dde6ae0193f84b6a9eeb3b0ebdc3a35e99d9167b88c570158dd09cb0f76040519280a2612b7a9081620002548239f35b9080929350813d8311620001ec575b620001d5818362000204565b81010312620001e8575190388062000179565b8280fd5b503d620001c9565b6040513d86823e3d90fd5b600080fd5b601f909101601f19168101906001600160401b038211908210176200022857604052565b634e487b7160e01b600052604160045260246000fd5b51906001600160a01b0382168203620001ff5756fe608080604052600436101561001357600080fd5b600090813560e01c90816301b71a26146128225750806301fcb535146127f55780630207999f146127c3578063026cf6011461277357806304199eeb146127175780630ac2c18d14611d1a5780630c178516146125a75780631107fff1146124e757806313e7c9d81461191e5780631454ac26146124c957806316accbeb1461248a5780631a74b3f31461244b5780631be32cb8146123f25780631cb49aa01461236e5780631d4bb73d1461234557806323bd8dcd14611fcf57806324f7469714611fab578063253ad0d514611f7e5780632c56011014611f305780632e4a33cb14611ec257806330a41521146104c3578063359123f914611e045780633aaa814714611d385780633d1705e014611d1a5780633dc7aad414611c6e578063414e56ca1461124d5780634a2e22d314611bad578063521a9ab414611b8f578063524d530b14611b66578063558a729714611ae2578063565457bf14611ac857806357970e9314611a9f5780635b4c929514611a3f5780635d361470146119e35780635e7b8eea146119be57806360f1eaf51461199957806361728f391461197b5780636d61abb71461195d5780636d70f7ae1461191e578063715018a6146118c457806374b4040314611864578063787dce3d1461180857806378ee1749146117a85780637bf046a9146117855780638195195d1461174f57806387bb7ae0146104fc5780638da33c07146116545780638da5cb5b1461162d5780638e50e5091461160f578063933eea6b1461154957806398c095531461152b57806399edf1771461150d5780639c24ea401461149f5780639e55378e146114325780639eb06718146113ee578063a3e56fa8146113c5578063a61b096c1461139f578063ab9e3bba146112f0578063af0e8c8c146112cd578063af44f7f214611294578063b0fb162f14611270578063b5e1a3c014610abd578063bd12dd641461124d578063be7d411614611029578063be83191914610f22578063bfcbfa5c14610ef0578063c1fa933814610ec2578063cb2d93ce14610e36578063d144cbae14610da7578063d1a9228814610d75578063d63843cd14610d4c578063d7c7752414610af9578063d80aaa4514610adb578063d91043f214610abd578063de3d9fb71461082d578063dedf14b01461089c578063e57ac96e14610a13578063e95805c01461096b578063ea7e3a3a146108db578063ec07fb741461089c578063ec644ddd1461084b578063ed647d211461082d578063ef11753c1461080f578063f0f90d9f146107d0578063f25949f91461066d578063f2fde38b146105dc578063f726272c1461051a578063f9f08bd9146104fc578063fcf7cdb1146104c3578063fd62120e146104355763ff3cd61e1461040a57600080fd5b346104325780600319360112610432576013546040516001600160a01b039091168152602090f35b80fd5b50346104325760603660031901126104325761044f612854565b6044359063ffffffff82168092036104bf576104696128c6565b60018060a01b03166001600160601b0360a01b600154161760015560243560045563ffffffff1960055416176005557f4c6a50dab5e2b4bdf345de73b06a62ca5c45dde34eecef3c38eb568564f6547c8180a180f35b8280fd5b5034610432576020366003190112610432576020906040906001600160a01b036104eb612854565b168152600683522054604051908152f35b50346104325780600319360112610432576020601254604051908152f35b50346104325780600319360112610432576105336128c6565b600154600254825483926001600160a01b03908116929116823b156105d757604051622b825560e61b815260048101929092526001600160a01b031660248201529082908290604490829084905af180156105cc576105b8575b506002557fad9127d67531701fd4222369e46413ad989a276f8ae432b7a2bb01a147a1be9e8180a180f35b6105c190612965565b61043257803861058d565b6040513d84823e3d90fd5b505050fd5b5034610432576020366003190112610432576105f6612854565b6105fe6128c6565b6001600160a01b03811615610619576106169061291e565b80f35b60405162461bcd60e51b815260206004820152602660248201527f4f776e61626c653a206e6577206f776e657220697320746865207a65726f206160448201526564647265737360d01b6064820152608490fd5b50346104325760403660031901126104325760043567ffffffffffffffff8082116104bf57366023830112156104bf5781600401359081116104bf57602482019160248236920101116104bf576024356001600160a01b038116908190036107cb577f1592f515c298c578903964a58733180fe97bdf05860fc70a7e21b61e8cc2d1b192826060926106fd6128c6565b7f86defe14b01ea99a14b4ea1aa7653acb785d64e243d89c26eb47fb36b2fc0c03610729368486612aa5565b602081519101201460001461077c57601a80546001600160a01b031916821790555b604051948593604085528160408601528585013782820184018790526020830152601f01601f19168101030190a180f35b7fd826c10e37a7770f02c01ddf03373f8c12e6ec73eac52b5d0ff825017dc682ef6107a8368486612aa5565b602081519101200361074b57601b80546001600160a01b0319168217905561074b565b600080fd5b50346104325760203660031901126104325760209060ff906040906001600160a01b036107fb612854565b168152601d84522054166040519015158152f35b50346104325780600319360112610432576020601454604051908152f35b50346104325780600319360112610432576020600254604051908152f35b503461043257806003193601126104325760a0600180821b036001541661ffff600254600454600554916040519485526020850152604084015263ffffffff8116606084015260201c166080820152f35b50346104325760203660031901126104325760209060ff906040906001600160a01b036108c7612854565b168152600984522054166040519015158152f35b5034610432576020366003190112610432577f1592f515c298c578903964a58733180fe97bdf05860fc70a7e21b61e8cc2d1b16080610918612854565b6109206128c6565b60018060a01b0316806001600160601b0360a01b601a541617601a556040519060408252600e60408301526d2930b3333632a232b83637bcb2b960911b60608301526020820152a180f35b5034610432576020366003190112610432576004356109886128c6565b610993811515612a1f565b600f5481116109ce576020817f5e4e273fcfb2259b6f206e48e817145a6f970a00ed6159e73ea79ae4d03fa89492600e55604051908152a180f35b60405162461bcd60e51b815260206004820152601760248201527f43616e6e6f7420657863656564206d6178206c696d69740000000000000000006044820152606490fd5b503461043257610a223661283e565b610a2a6128c6565b610a35821515612a1f565b81811115610a7857816040917f873847b0a596e4dab1719b7ac3b5bbc6f31d3534818784017ab5675cfc30a1b193600d5580600f5582519182526020820152a180f35b60405162461bcd60e51b815260206004820152601c60248201527f4d6178206d7573742062652067726561746572207468616e206d696e000000006044820152606490fd5b50346104325780600319360112610432576020601954604051908152f35b50346104325780600319360112610432576020600e54604051908152f35b503461043257602080600319360112610d48576004356001600160601b03811690818103610d4457610b296128c6565b600a546040516323b872dd60e01b81523360048201523060248201526001600160601b039290921660448301526001600160a01b039190849082906064908290899087165af1908115610d39578591610d1c575b5015610cb1578281610bdb92600a5416906001541690600254916040519284840152838352610bab83612979565b87604051809681958294630200057560e51b84526004840152896024840152606060448401526064830190612b04565b03925af1908115610ca6578491610c79575b5015610c2057907f0148caca16863fb5a77543489023e89a5d3360fe9229a1e6f9d553b800aa916991604051908152a180f35b60405162461bcd60e51b815260048101839052602b60248201527f4c494e4b207472616e73666572416e6443616c6c20746f20636f6f7264696e6160448201526a3a37b9103330b4b632b21760a91b6064820152608490fd5b610c999150833d8511610c9f575b610c9181836129b1565b810190612aec565b38610bed565b503d610c87565b6040513d86823e3d90fd5b60405162461bcd60e51b815260048101849052603c60248201527f4c494e4b207472616e7366657246726f6d206661696c65642e2044696420796f60448201527f7520617070726f76652074686520526166666c654d616e616765723f000000006064820152608490fd5b610d339150843d8611610c9f57610c9181836129b1565b38610b7d565b6040513d87823e3d90fd5b8380fd5b5080fd5b5034610432578060031936011261043257601b546040516001600160a01b039091168152602090f35b503461043257806003193601126104325760175460185460195460408051938452602084019290925290820152606090f35b503461043257602036600319011261043257600435610dc46128c6565b8015610dfc576020817f84b38766a68c6036a3921be35a68dbf02026b3465e3b9072ae266423ff54735f92601555604051908152a180f35b60405162461bcd60e51b81526020600482015260126024820152714d757374206265206174206c65617374203160701b6044820152606490fd5b5034610432576020366003190112610432577f1592f515c298c578903964a58733180fe97bdf05860fc70a7e21b61e8cc2d1b16080610e73612854565b610e7b6128c6565b60018060a01b0316806001600160601b0360a01b601b541617601b556040519060408252600a6040830152694e4654466163746f727960b01b60608301526020820152a180f35b503461043257602036600319011261043257600435610edf6128c6565b610eea8115156129d3565b60025580f35b5034610432578060031936011261043257600d54600f5460155460408051938452602084019290925290820152606090f35b506020366003190112610432576004356001600160601b038116908181036104bf57610f4c6128c6565b813403610fed5760015460025484926001600160a01b0390921691823b15610d4457604051634cf94d8760e01b815260048101929092526001600160601b031660248201529082908290604490829087905af180156105cc57610fd9575b507f0148caca16863fb5a77543489023e89a5d3360fe9229a1e6f9d553b800aa9169602083604051908152a180f35b610fe290612965565b610d48578138610faa565b60405162461bcd60e51b8152602060048201526014602482015273125b98dbdc9c9958dd0811551208185b5bdd5b9d60621b6044820152606490fd5b503461043257602080600319360112610d4857600435906001600160601b03821691828103610d445761105a6128c6565b600a546040516323b872dd60e01b81523360048201523060248201526001600160601b03831660448201526001600160a01b03918490829060649082908a9087165af19081156111e9578691611230575b50156111f45780600a54168382604460055489604051958694859363095ea7b360e01b855260301c1660048401528a60248401525af19081156111e95786916111cc575b50156111895790849160055460301c169060035490823b15610d445760405163948108f760e01b815260048101929092526001600160601b031660248201529082908290604490829084905af180156105cc57611175575b50507f0148caca16863fb5a77543489023e89a5d3360fe9229a1e6f9d553b800aa916991604051908152a180f35b61117e90612965565b6104bf578238611147565b6064836040519062461bcd60e51b825280600483015260248201527f4c494e4b20617070726f766520666f72207265676973747279206661696c65646044820152fd5b6111e39150843d8611610c9f57610c9181836129b1565b386110ef565b6040513d88823e3d90fd5b60405162461bcd60e51b815260048101849052601460248201527313125392c81d1c985b9cd9995c8819985a5b195960621b6044820152606490fd5b6112479150843d8611610c9f57610c9181836129b1565b386110ab565b5034610432578060031936011261043257602060ff601654166040519015158152f35b5034610432578060031936011261043257602060055461ffff60405191831c168152f35b5034610432576020366003190112610432576112ae61286a565b1590506112c3576020600d545b604051908152f35b6020600e546112bb565b5034610432578060031936011261043257602060ff600c54166040519015158152f35b50346104325780600319360112610432576113096128c6565b60055460405163288688f960e21b81529060209082906004908290869060301c6001600160a01b03165af19081156105cc57829161136e575b50806003557f6a2b70dde6ae0193f84b6a9eeb3b0ebdc3a35e99d9167b88c570158dd09cb0f78280a280f35b90506020813d8211611397575b81611388602093836129b1565b810103126107cb575138611342565b3d915061137b565b5034610432578060031936011261043257602060ff60135460a01c166040519015158152f35b50346104325780600319360112610432576001546040516001600160a01b039091168152602090f35b50346104325760203660031901126104325760043590600b5482101561043257602061141983612879565b905460405160039290921b1c6001600160a01b03168152f35b50346104325760203660031901126104325761144c612854565b6114546128c6565b6001600160a01b0316808252600960209081526040808420805460ff19169055518381527f40808e0b8abe11003e2600976ec5b2ce8528b142740576d0a00d80c2d37df8f29190a280f35b5034610432576020366003190112610432577fe2d763f65bbed04f8954b0f0a3af42f687469bdd154132ba533accf0f0291a2b60206114dc612854565b6114e46128c6565b600a80546001600160a01b0319166001600160a01b03929092169182179055604051908152a180f35b50346104325780600319360112610432576020600354604051908152f35b50346104325780600319360112610432576020600f54604051908152f35b50346104325780600319360112610432576040518091600b549081835260208093018092600b83527f0175b7a638427703f0dbe7bb9bbf987a2551717b34e79f33b5b1008d1fa01db990835b8181106115f257505050846115ab9103856129b1565b60405193838594850191818652518092526040850193925b8281106115d257505050500390f35b83516001600160a01b0316855286955093810193928101926001016115c3565b82546001600160a01b031684529286019260019283019201611595565b50346104325780600319360112610432576020601754604051908152f35b5034610432578060031936011261043257546040516001600160a01b039091168152602090f35b50346104325760203660031901126104325761166e612854565b601a546001600160a01b039190821633036116f957600b54680100000000000000008110156116e5576116a8816001859301600b55612879565b939092169282549060031b9184831b921b19161790557f633ce1c9388c97d7993f137095f9978b0605881949d6640da48ce48504fcaddd8280a280f35b634e487b7160e01b84526041600452602484fd5b60405162461bcd60e51b815260206004820152602860248201527f4f6e6c7920526166666c654465706c6f7965722063616e20726567697374657260448201526720726166666c657360c01b6064820152608490fd5b503461043257602036600319011261043257602061176b612854565b60018060a01b038060055460301c16911614604051908152f35b5034610432578060031936011261043257602060ff601e54166040519015158152f35b5034610432576020366003190112610432577fc6cdaeb4f6d727c3887c141f0d69c59a9aeb1d84417f954d3a95ebc11a9d4b4d60206117e561286a565b6117ed6128c6565b151560ff196016541660ff821617601655604051908152a180f35b5034610432576020366003190112610432577fd10d75876659a287a59a6ccfa2e3fff42f84d94b542837acd30bc184d562de4060206004356118486128c6565b611856612710821115612a64565b80601755604051908152a180f35b5034610432576020366003190112610432577f264b7be983e0a8040850b7692062142e84c1d518c32ed584b0c7c55a5c4906d560206118a161286a565b6118a96128c6565b151560ff19601e541660ff821617601e55604051908152a180f35b50346104325780600319360112610432576118dd6128c6565b600080546001600160a01b0319811682556001600160a01b03167f8be0079c531659141344cd1fd0a4f28419497f9722a3daafe3b4186f6b6457e08280a380f35b50346104325760203660031901126104325760209060ff906040906001600160a01b03611949612854565b168152601c84522054166040519015158152f35b50346104325780600319360112610432576020600d54604051908152f35b50346104325780600319360112610432576020600454604051908152f35b50346104325780600319360112610432576040600d54600f5482519182526020820152f35b5034610432578060031936011261043257604060105460115482519182526020820152f35b5034610432576020366003190112610432577f685e2da338020bc51d1f76fac8327a4f82785d45131eb2ace71b8b45ff0ef1ed6020600435611a236128c6565b611a31612710821115612a64565b80601855604051908152a180f35b5034610432576020366003190112610432577f83a18a8dea701f6d1f04c27670cb800d2a39a35cf130023c66472e9a581d7fba6020611a7c61286a565b611a846128c6565b151560ff19600c541660ff821617600c55604051908152a180f35b5034610432578060031936011261043257600a546040516001600160a01b039091168152602090f35b50346104325780600319360112610432576106163361291e565b503461043257604036600319011261043257611afc612854565b602435908115158092036107cb577f966c160e1c4dbc7df8d69af4ace01e9297c3cf016397b7914971f2fbfa32672d91604091611b376128c6565b60018060a01b031690818552601c60205282852060ff1981541660ff831617905582519182526020820152a180f35b50346104325780600319360112610432576013546040516001600160a01b039091168152602090f35b50346104325780600319360112610432576020601854604051908152f35b503461043257602036600319011261043257611bc7612854565b601b546001600160a01b03919082163303611c36571680825260096020526040822060ff19906001828254161790556008602052600160408420918254161790557f40808e0b8abe11003e2600976ec5b2ce8528b142740576d0a00d80c2d37df8f2602060405160018152a280f35b60405162461bcd60e51b815260206004820152601060248201526f4f6e6c79204e465420666163746f727960801b6044820152606490fd5b5034610432578060031936011261043257611c876128c6565b60015460405163288688f960e21b8152906020908290600490829086906001600160a01b03165af19081156105cc578291611ce9575b50806002557f6a2b70dde6ae0193f84b6a9eeb3b0ebdc3a35e99d9167b88c570158dd09cb0f78280a280f35b90506020813d8211611d12575b81611d03602093836129b1565b810103126107cb575138611cbd565b3d9150611cf6565b50346104325780600319360112610432576020601554604051908152f35b503461043257602036600319011261043257611d52612854565b611d5a6128c6565b6001546002546001600160a01b0392918491908416803b156104bf5760405163cb63179760e01b815260048101929092526001600160a01b038416602483015282908290604490829084905af180156105cc57611df0575b505016808252600760205260408220805460ff191690557f8e6c0f1ad83e33fdf8ea1344afe3af950e6375009c970e534fef4c30358f10e58280a280f35b611df990612965565b6104bf578238611db2565b503461043257602036600319011261043257611e1e612854565b611e266128c6565b6001600160a01b03168015611e8b5780825260096020526040822060ff19906001828254161790556008602052604083209081541690557f40808e0b8abe11003e2600976ec5b2ce8528b142740576d0a00d80c2d37df8f2602060405160018152a280f35b60405162461bcd60e51b815260206004820152600f60248201526e496e76616c6964206164647265737360881b6044820152606490fd5b5034610432576020366003190112610432577ffd76f8ed4d910bcb9cc812e605a5c8b31f7b84ab658feb2d9bf60de6f7adf0726020611eff612854565b611f076128c6565b601380546001600160a01b0319166001600160a01b03929092169182179055604051908152a180f35b5034610432576020366003190112610432577f0674ce6599197c608dd416e0a77800f021cb3704437f8651d94e9a1a07f02af96020600435611f706128c6565b80601255604051908152a180f35b5034610432578060031936011261043257604060ff60135460a01c16601454825191151582526020820152f35b5034610432578060031936011261043257602063ffffffff60055416604051908152f35b5034610432576020366003190112610432576001600160a01b03611ff1612854565b168082526006602052604082205461231057601a546001600160a01b031633036122bd5760055460405190610140820182811067ffffffffffffffff8211176122a757849283928260209360405261204881612979565b600d81526c0526166666c652055706b65657609c1b610160840152825260405161207181612995565b848152838301528560408301526207a12060608301523060808301528360a083015260405161209f81612995565b84815260c08301526040516120b381612995565b84815260e08301526040516120c781612995565b848152610100830152836101208301526040518094818094633f678e1160e01b82528660048301526001600160601b036101206121b361211584516101406024880152610164870190612b04565b61219c6121876121368d8801519360231994858b83030160448c0152612b04565b60408801516001600160a01b0390811660648b0152606089015163ffffffff1660848b015260808901511660a48a015260a088015160ff1660c48a015260c0880151898203850160e48b0152612b04565b60e087015183898303016101048a0152612b04565b906101008601519087830301610124880152612b04565b92015116610144830152039260301c6001600160a01b03165af19081156105cc578291612272575b5082825260066020526040822081905560055460035460309190911c6001600160a01b031691823b15610d445760448492836040519586948593637353886760e01b8552600485015260248401525af180156105cc5761225e575b50807f516ab8d049a5f45e19f278030718bb092748f26c83c7d3bf33241d7bd9fb586791a280f35b61226790612965565b610d48578138612236565b9150506020813d60201161229f575b8161228e602093836129b1565b810103126107cb57829051386121db565b3d9150612281565b634e487b7160e01b600052604160045260246000fd5b60405162461bcd60e51b815260206004820152602560248201527f4f6e6c7920526166666c654465706c6f7965722063616e206175746f2d72656760448201526434b9ba32b960d91b6064820152608490fd5b60405162461bcd60e51b815260206004820152600d60248201526c55706b6565702065786973747360981b6044820152606490fd5b5034610432578060031936011261043257601a546040516001600160a01b039091168152602090f35b5034610432576020366003190112610432577f928f3b9b16f03663cac1eb1e95ee36b149401d87a03999c0e723bd95084ae75860206123ab612854565b6123b36128c6565b600580546601000000000000600160d01b031916603083901b6601000000000000600160d01b03161790556040516001600160a01b039091168152a180f35b5034610432576020366003190112610432577f0c16709a347324275ced66f46305ec331f973fcac1855ed1806957d5f94cea4960206004356124326128c6565b61243d8115156129d3565b80600355604051908152a180f35b50346104325760203660031901126104325760209060ff906040906001600160a01b03612476612854565b168152600884522054166040519015158152f35b50346104325760203660031901126104325760209060ff906040906001600160a01b036124b5612854565b168152600784522054166040519015158152f35b50346104325780600319360112610432576020601054604051908152f35b503461043257602036600319011261043257612501612854565b6125096128c6565b6001600160a01b03908116808352600660205260408320546005549192849260301c1690813b156104bf578291602483926040519485938492636402401160e11b845260048401525af180156105cc57612593575b5081905260066020528160408120557edff65c13fb202248e3357eba6f281631230ffce4d232f34d0fbf068b8162e58280a280f35b61259c90612965565b610d4857813861255e565b5034610432576020366003190112610432576125c1612854565b601a546001600160a01b03929190831633036126c45782811692838352600760205260ff60408420541661268a5760015416600254813b15610d4457604051632fb1302360e21b815260048101919091526001600160a01b0392909216602483015282908290604490829084905af180156105cc5761267b575b50818152600760205260408120805460ff19166001179055907fb41d934a0dd6e1bf4c440ee1ddd56a658677c13e8e2bcc52f065e845995456bd8280a280f35b61268490612965565b3861263b565b60405162461bcd60e51b815260206004820152601260248201527120b63932b0b23c90309031b7b739bab6b2b960711b6044820152606490fd5b60405162461bcd60e51b815260206004820152602560248201527f4f6e6c7920526166666c654465706c6f7965722063616e2061646420636f6e73604482015264756d65727360d81b6064820152608490fd5b5034610432576020366003190112610432577facd3908fc55d712582462490cee05d9057e65c26303b042525311532c62d20df60206004356127576128c6565b612765612710821115612a64565b80601955604051908152a180f35b5034610432577f060e9bb7b24700e1f67f61d02209b1fb7e61dcb50699bd88a5004e8649f3e4ec60406127a53661283e565b6127ad6128c6565b816010558060115582519182526020820152a180f35b5034610432578060031936011261043257600d54600e54600f5460408051938452602084019290925290820152606090f35b503461043257806003193601126104325760055460405160309190911c6001600160a01b03168152602090f35b905034610d485781600319360112610d48576020906011548152f35b60409060031901126107cb576004359060243590565b600435906001600160a01b03821682036107cb57565b6004359081151582036107cb57565b600b548110156128b057600b6000527f0175b7a638427703f0dbe7bb9bbf987a2551717b34e79f33b5b1008d1fa01db90190600090565b634e487b7160e01b600052603260045260246000fd5b6000546001600160a01b031633036128da57565b606460405162461bcd60e51b815260206004820152602060248201527f4f776e61626c653a2063616c6c6572206973206e6f7420746865206f776e65726044820152fd5b600080546001600160a01b039283166001600160a01b03198216811783559216907f8be0079c531659141344cd1fd0a4f28419497f9722a3daafe3b4186f6b6457e09080a3565b67ffffffffffffffff81116122a757604052565b6040810190811067ffffffffffffffff8211176122a757604052565b6020810190811067ffffffffffffffff8211176122a757604052565b90601f8019910116810190811067ffffffffffffffff8211176122a757604052565b156129da57565b60405162461bcd60e51b815260206004820152601e60248201527f537562736372697074696f6e2049442063616e6e6f74206265207a65726f00006044820152606490fd5b15612a2657565b60405162461bcd60e51b81526020600482015260166024820152754d696e206d757374206265206174206c65617374203160501b6044820152606490fd5b15612a6b57565b60405162461bcd60e51b815260206004820152601260248201527143616e6e6f7420657863656564203130302560701b6044820152606490fd5b92919267ffffffffffffffff82116122a75760405191612acf601f8201601f1916602001846129b1565b8294818452818301116107cb578281602093846000960137010152565b908160209103126107cb575180151581036107cb5790565b919082519283825260005b848110612b30575050826000602080949584010152601f8019910116010190565b602081830181015184830182015201612b0f56fea2646970667358221220bfd8ae1665315a2fe9d9831fda3f88d694dcdc63b62df2c2474c42a3f2a8769864736f6c63430008130033",
  "linkReferences": {},
  "deployedLinkReferences": {}
}