{
  "_format": "hh-sol-artifact-1",
  "contractName": "Raffle",
  "sourceName": "contracts/Raffle.sol",
  "abi": [
    {
      "inputs": [],
      "stateMutability": "nonpayable",
      "type": "constructor"
    },
    {
      "inputs": [],
      "name": "InvalidState",
      "type": "error"
    },
    {
      "inputs": [],
      "name": "OnlyOperator",
      "type": "error"
    },
    {
      "anonymous": false,
      "inputs": [
        {
          "indexed": false,
          "internalType": "string",
          "name": "reason",
          "type": "string"
        }
      ],
      "name": "ActivationCleanupFailed",
      "type": "event"
    },
    {
      "anonymous": false,
      "inputs": [
        {
          "indexed": true,
          "internalType": "address",
          "name": "participant",
          "type": "address"
        },
        {
          "indexed": false,
          "internalType": "uint256",
          "name": "amount",
          "type": "uint256"
        }
      ],
      "name": "DeletionRefund",
      "type": "event"
    },
    {
      "anonymous": false,
      "inputs": [],
      "name": "FullRefundEnabledForDeletion",
      "type": "event"
    },
    {
      "anonymous": false,
      "inputs": [
        {
          "indexed": true,
          "internalType": "address",
          "name": "participant",
          "type": "address"
        },
        {
          "indexed": false,
          "internalType": "uint256",
          "name": "amount",
          "type": "uint256"
        }
      ],
      "name": "FullRefundForDeletion",
      "type": "event"
    },
    {
      "anonymous": false,
      "inputs": [
        {
          "indexed": true,
          "internalType": "address",
          "name": "previousOwner",
          "type": "address"
        },
        {
          "indexed": true,
          "internalType": "address",
          "name": "newOwner",
          "type": "address"
        }
      ],
      "name": "OwnershipTransferred",
      "type": "event"
    },
    {
      "anonymous": false,
      "inputs": [
        {
          "indexed": false,
          "internalType": "address",
          "name": "account",
          "type": "address"
        }
      ],
      "name": "Paused",
      "type": "event"
    },
    {
      "anonymous": false,
      "inputs": [
        {
          "indexed": true,
          "internalType": "address",
          "name": "winner",
          "type": "address"
        },
        {
          "indexed": false,
          "internalType": "uint256",
          "name": "tokenId",
          "type": "uint256"
        }
      ],
      "name": "PrizeClaimed",
      "type": "event"
    },
    {
      "anonymous": false,
      "inputs": [],
      "name": "RaffleActivated",
      "type": "event"
    },
    {
      "anonymous": false,
      "inputs": [
        {
          "indexed": false,
          "internalType": "string",
          "name": "reason",
          "type": "string"
        }
      ],
      "name": "RaffleActivationFailed",
      "type": "event"
    },
    {
      "anonymous": false,
      "inputs": [],
      "name": "RaffleDeleted",
      "type": "event"
    },
    {
      "anonymous": false,
      "inputs": [],
      "name": "RaffleEnded",
      "type": "event"
    },
    {
      "anonymous": false,
      "inputs": [],
      "name": "RaffleUnengaged",
      "type": "event"
    },
    {
      "anonymous": false,
      "inputs": [
        {
          "indexed": true,
          "internalType": "uint256",
          "name": "requestId",
          "type": "uint256"
        },
        {
          "indexed": false,
          "internalType": "uint256",
          "name": "randomWord",
          "type": "uint256"
        }
      ],
      "name": "RandomReceived",
      "type": "event"
    },
    {
      "anonymous": false,
      "inputs": [
        {
          "indexed": false,
          "internalType": "uint256",
          "name": "requestId",
          "type": "uint256"
        }
      ],
      "name": "RandomRequested",
      "type": "event"
    },
    {
      "anonymous": false,
      "inputs": [
        {
          "indexed": true,
          "internalType": "address",
          "name": "recipient",
          "type": "address"
        },
        {
          "indexed": false,
          "internalType": "uint256",
          "name": "amount",
          "type": "uint256"
        }
      ],
      "name": "RevenueWithdrawn",
      "type": "event"
    },
    {
      "anonymous": false,
      "inputs": [
        {
          "indexed": true,
          "internalType": "address",
          "name": "participant",
          "type": "address"
        },
        {
          "indexed": false,
          "internalType": "uint256",
          "name": "quantity",
          "type": "uint256"
        }
      ],
      "name": "TicketsPurchased",
      "type": "event"
    },
    {
      "anonymous": false,
      "inputs": [
        {
          "indexed": false,
          "internalType": "address",
          "name": "account",
          "type": "address"
        }
      ],
      "name": "Unpaused",
      "type": "event"
    },
    {
      "anonymous": false,
      "inputs": [],
      "name": "VRFRequestReset",
      "type": "event"
    },
    {
      "anonymous": false,
      "inputs": [
        {
          "indexed": false,
          "internalType": "address[]",
          "name": "winners",
          "type": "address[]"
        }
      ],
      "name": "WinnersSelected",
      "type": "event"
    },
    {
      "inputs": [],
      "name": "activate",
      "outputs": [],
      "stateMutability": "nonpayable",
      "type": "function"
    },
    {
      "inputs": [],
      "name": "amountPerWinner",
      "outputs": [
        {
          "internalType": "uint256",
          "name": "",
          "type": "uint256"
        }
      ],
      "stateMutability": "view",
      "type": "function"
    },
    {
      "inputs": [
        {
          "internalType": "bytes",
          "name": "",
          "type": "bytes"
        }
      ],
      "name": "checkUpkeep",
      "outputs": [
        {
          "internalType": "bool",
          "name": "upkeepNeeded",
          "type": "bool"
        },
        {
          "internalType": "bytes",
          "name": "performData",
          "type": "bytes"
        }
      ],
      "stateMutability": "view",
      "type": "function"
    },
    {
      "inputs": [],
      "name": "claimPrize",
      "outputs": [
        {
          "internalType": "uint256",
          "name": "",
          "type": "uint256"
        }
      ],
      "stateMutability": "nonpayable",
      "type": "function"
    },
    {
      "inputs": [],
      "name": "claimPrizes",
      "outputs": [],
      "stateMutability": "nonpayable",
      "type": "function"
    },
    {
      "inputs": [],
      "name": "claimRefund",
      "outputs": [],
      "stateMutability": "nonpayable",
      "type": "function"
    },
    {
      "inputs": [
        {
          "internalType": "address",
          "name": "",
          "type": "address"
        }
      ],
      "name": "claimedWins",
      "outputs": [
        {
          "internalType": "uint256",
          "name": "",
          "type": "uint256"
        }
      ],
      "stateMutability": "view",
      "type": "function"
    },
    {
      "inputs": [],
      "name": "completeDrawing",
      "outputs": [],
      "stateMutability": "nonpayable",
      "type": "function"
    },
    {
      "inputs": [],
      "name": "creationFeePercentage",
      "outputs": [
        {
          "internalType": "uint256",
          "name": "",
          "type": "uint256"
        }
      ],
      "stateMutability": "view",
      "type": "function"
    },
    {
      "inputs": [],
      "name": "creator",
      "outputs": [
        {
          "internalType": "address",
          "name": "",
          "type": "address"
        }
      ],
      "stateMutability": "view",
      "type": "function"
    },
    {
      "inputs": [],
      "name": "deleteRaffle",
      "outputs": [],
      "stateMutability": "nonpayable",
      "type": "function"
    },
    {
      "inputs": [],
      "name": "duration",
      "outputs": [
        {
          "internalType": "uint256",
          "name": "",
          "type": "uint256"
        }
      ],
      "stateMutability": "view",
      "type": "function"
    },
    {
      "inputs": [],
      "name": "endRaffle",
      "outputs": [],
      "stateMutability": "nonpayable",
      "type": "function"
    },
    {
      "inputs": [],
      "name": "endTime",
      "outputs": [
        {
          "internalType": "uint256",
          "name": "",
          "type": "uint256"
        }
      ],
      "stateMutability": "view",
      "type": "function"
    },
    {
      "inputs": [],
      "name": "erc721EscrowClaimed",
      "outputs": [
        {
          "internalType": "bool",
          "name": "",
          "type": "bool"
        }
      ],
      "stateMutability": "view",
      "type": "function"
    },
    {
      "inputs": [],
      "name": "getMinTicketLimit",
      "outputs": [
        {
          "internalType": "uint256",
          "name": "",
          "type": "uint256"
        }
      ],
      "stateMutability": "view",
      "type": "function"
    },
    {
      "inputs": [],
      "name": "hasPrize",
      "outputs": [
        {
          "internalType": "bool",
          "name": "",
          "type": "bool"
        }
      ],
      "stateMutability": "view",
      "type": "function"
    },
    {
      "inputs": [],
      "name": "i_vrfCoordinator",
      "outputs": [
        {
          "internalType": "contract VRFCoordinatorV2PlusInterface",
          "name": "",
          "type": "address"
        }
      ],
      "stateMutability": "view",
      "type": "function"
    },
    {
      "inputs": [
        {
          "internalType": "address",
          "name": "_manager",
          "type": "address"
        },
        {
          "internalType": "string",
          "name": "_name",
          "type": "string"
        },
        {
          "internalType": "bool",
          "name": "_hasPrize",
          "type": "bool"
        },
        {
          "internalType": "uint256",
          "name": "_startTime",
          "type": "uint256"
        },
        {
          "internalType": "uint256",
          "name": "_duration",
          "type": "uint256"
        },
        {
          "internalType": "uint256",
          "name": "_winnersCount",
          "type": "uint256"
        },
        {
          "internalType": "bool",
          "name": "_isEscrowedPrize",
          "type": "bool"
        },
        {
          "internalType": "address",
          "name": "_prizeCollection",
          "type": "address"
        },
        {
          "internalType": "address",
          "name": "_creator",
          "type": "address"
        },
        {
          "internalType": "uint256",
          "name": "_ticketLimit",
          "type": "uint256"
        },
        {
          "internalType": "uint256",
          "name": "_ticketPrice",
          "type": "uint256"
        },
        {
          "internalType": "uint256",
          "name": "_maxTicketsPerParticipant",
          "type": "uint256"
        },
        {
          "internalType": "enum PrizeTypes.Standard",
          "name": "_standard",
          "type": "uint8"
        },
        {
          "internalType": "uint256",
          "name": "_prizeTokenId",
          "type": "uint256"
        },
        {
          "internalType": "uint256",
          "name": "_amountPerWinner",
          "type": "uint256"
        }
      ],
      "name": "initialize",
      "outputs": [],
      "stateMutability": "nonpayable",
      "type": "function"
    },
    {
      "inputs": [],
      "name": "isEscrowedPrize",
      "outputs": [
        {
          "internalType": "bool",
          "name": "",
          "type": "bool"
        }
      ],
      "stateMutability": "view",
      "type": "function"
    },
    {
      "inputs": [],
      "name": "maxTicketsPerParticipant",
      "outputs": [
        {
          "internalType": "uint256",
          "name": "",
          "type": "uint256"
        }
      ],
      "stateMutability": "view",
      "type": "function"
    },
    {
      "inputs": [],
      "name": "name",
      "outputs": [
        {
          "internalType": "string",
          "name": "",
          "type": "string"
        }
      ],
      "stateMutability": "view",
      "type": "function"
    },
    {
      "inputs": [],
      "name": "owner",
      "outputs": [
        {
          "internalType": "address",
          "name": "",
          "type": "address"
        }
      ],
      "stateMutability": "view",
      "type": "function"
    },
    {
      "inputs": [
        {
          "internalType": "uint256",
          "name": "",
          "type": "uint256"
        }
      ],
      "name": "participants",
      "outputs": [
        {
          "internalType": "address",
          "name": "",
          "type": "address"
        }
      ],
      "stateMutability": "view",
      "type": "function"
    },
    {
      "inputs": [],
      "name": "paused",
      "outputs": [
        {
          "internalType": "bool",
          "name": "",
          "type": "bool"
        }
      ],
      "stateMutability": "view",
      "type": "function"
    },
    {
      "inputs": [
        {
          "internalType": "bytes",
          "name": "performData",
          "type": "bytes"
        }
      ],
      "name": "performUpkeep",
      "outputs": [],
      "stateMutability": "nonpayable",
      "type": "function"
    },
    {
      "inputs": [],
      "name": "prizeCollection",
      "outputs": [
        {
          "internalType": "address",
          "name": "",
          "type": "address"
        }
      ],
      "stateMutability": "view",
      "type": "function"
    },
    {
      "inputs": [],
      "name": "prizeTokenId",
      "outputs": [
        {
          "internalType": "uint256",
          "name": "",
          "type": "uint256"
        }
      ],
      "stateMutability": "view",
      "type": "function"
    },
    {
      "inputs": [],
      "name": "prizesClaimedCount",
      "outputs": [
        {
          "internalType": "uint256",
          "name": "",
          "type": "uint256"
        }
      ],
      "stateMutability": "view",
      "type": "function"
    },
    {
      "inputs": [],
      "name": "processBatch",
      "outputs": [],
      "stateMutability": "nonpayable",
      "type": "function"
    },
    {
      "inputs": [],
      "name": "protocolFeePercentage",
      "outputs": [
        {
          "internalType": "uint256",
          "name": "",
          "type": "uint256"
        }
      ],
      "stateMutability": "view",
      "type": "function"
    },
    {
      "inputs": [
        {
          "internalType": "uint256",
          "name": "quantity",
          "type": "uint256"
        }
      ],
      "name": "purchaseTickets",
      "outputs": [],
      "stateMutability": "payable",
      "type": "function"
    },
    {
      "inputs": [],
      "name": "randomRequested",
      "outputs": [
        {
          "internalType": "bool",
          "name": "",
          "type": "bool"
        }
      ],
      "stateMutability": "view",
      "type": "function"
    },
    {
      "inputs": [],
      "name": "randomSeed",
      "outputs": [
        {
          "internalType": "uint256",
          "name": "",
          "type": "uint256"
        }
      ],
      "stateMutability": "view",
      "type": "function"
    },
    {
      "inputs": [
        {
          "internalType": "uint256",
          "name": "requestId",
          "type": "uint256"
        },
        {
          "internalType": "uint256[]",
          "name": "randomWords",
          "type": "uint256[]"
        }
      ],
      "name": "rawFulfillRandomWords",
      "outputs": [],
      "stateMutability": "nonpayable",
      "type": "function"
    },
    {
      "inputs": [
        {
          "internalType": "address",
          "name": "",
          "type": "address"
        }
      ],
      "name": "refundableAmount",
      "outputs": [
        {
          "internalType": "uint256",
          "name": "",
          "type": "uint256"
        }
      ],
      "stateMutability": "view",
      "type": "function"
    },
    {
      "inputs": [],
      "name": "refundablePercentage",
      "outputs": [
        {
          "internalType": "uint256",
          "name": "",
          "type": "uint256"
        }
      ],
      "stateMutability": "view",
      "type": "function"
    },
    {
      "inputs": [],
      "name": "renounceOwnership",
      "outputs": [],
      "stateMutability": "nonpayable",
      "type": "function"
    },
    {
      "inputs": [],
      "name": "requestRandomWords",
      "outputs": [],
      "stateMutability": "nonpayable",
      "type": "function"
    },
    {
      "inputs": [],
      "name": "resetVRFRequest",
      "outputs": [],
      "stateMutability": "nonpayable",
      "type": "function"
    },
    {
      "inputs": [],
      "name": "retryCount",
      "outputs": [
        {
          "internalType": "uint256",
          "name": "",
          "type": "uint256"
        }
      ],
      "stateMutability": "view",
      "type": "function"
    },
    {
      "inputs": [],
      "name": "retryVRF",
      "outputs": [],
      "stateMutability": "nonpayable",
      "type": "function"
    },
    {
      "inputs": [],
      "name": "revenueSharePercentage",
      "outputs": [
        {
          "internalType": "uint256",
          "name": "",
          "type": "uint256"
        }
      ],
      "stateMutability": "view",
      "type": "function"
    },
    {
      "inputs": [],
      "name": "revenueSharing",
      "outputs": [
        {
          "internalType": "bool",
          "name": "",
          "type": "bool"
        }
      ],
      "stateMutability": "view",
      "type": "function"
    },
    {
      "inputs": [],
      "name": "s_vrf_callbackGasLimit",
      "outputs": [
        {
          "internalType": "uint32",
          "name": "",
          "type": "uint32"
        }
      ],
      "stateMutability": "view",
      "type": "function"
    },
    {
      "inputs": [],
      "name": "s_vrf_keyHash",
      "outputs": [
        {
          "internalType": "bytes32",
          "name": "",
          "type": "bytes32"
        }
      ],
      "stateMutability": "view",
      "type": "function"
    },
    {
      "inputs": [],
      "name": "s_vrf_lastRequestId",
      "outputs": [
        {
          "internalType": "uint256",
          "name": "",
          "type": "uint256"
        }
      ],
      "stateMutability": "view",
      "type": "function"
    },
    {
      "inputs": [],
      "name": "s_vrf_requestConfirmations",
      "outputs": [
        {
          "internalType": "uint16",
          "name": "",
          "type": "uint16"
        }
      ],
      "stateMutability": "view",
      "type": "function"
    },
    {
      "inputs": [],
      "name": "s_vrf_subscriptionId",
      "outputs": [
        {
          "internalType": "uint256",
          "name": "",
          "type": "uint256"
        }
      ],
      "stateMutability": "view",
      "type": "function"
    },
    {
      "inputs": [],
      "name": "shuffleStartIndex",
      "outputs": [
        {
          "internalType": "uint256",
          "name": "",
          "type": "uint256"
        }
      ],
      "stateMutability": "view",
      "type": "function"
    },
    {
      "inputs": [],
      "name": "standard",
      "outputs": [
        {
          "internalType": "enum PrizeTypes.Standard",
          "name": "",
          "type": "uint8"
        }
      ],
      "stateMutability": "view",
      "type": "function"
    },
    {
      "inputs": [],
      "name": "startTime",
      "outputs": [
        {
          "internalType": "uint256",
          "name": "",
          "type": "uint256"
        }
      ],
      "stateMutability": "view",
      "type": "function"
    },
    {
      "inputs": [],
      "name": "state",
      "outputs": [
        {
          "internalType": "enum IRaffle.RaffleState",
          "name": "",
          "type": "uint8"
        }
      ],
      "stateMutability": "view",
      "type": "function"
    },
    {
      "inputs": [],
      "name": "ticketLimit",
      "outputs": [
        {
          "internalType": "uint256",
          "name": "",
          "type": "uint256"
        }
      ],
      "stateMutability": "view",
      "type": "function"
    },
    {
      "inputs": [],
      "name": "ticketPrice",
      "outputs": [
        {
          "internalType": "uint256",
          "name": "",
          "type": "uint256"
        }
      ],
      "stateMutability": "view",
      "type": "function"
    },
    {
      "inputs": [
        {
          "internalType": "address",
          "name": "",
          "type": "address"
        }
      ],
      "name": "ticketsPurchased",
      "outputs": [
        {
          "internalType": "uint256",
          "name": "",
          "type": "uint256"
        }
      ],
      "stateMutability": "view",
      "type": "function"
    },
    {
      "inputs": [],
      "name": "totalCreatorRevenue",
      "outputs": [
        {
          "internalType": "uint256",
          "name": "",
          "type": "uint256"
        }
      ],
      "stateMutability": "view",
      "type": "function"
    },
    {
      "inputs": [],
      "name": "totalRefundableAmount",
      "outputs": [
        {
          "internalType": "uint256",
          "name": "",
          "type": "uint256"
        }
      ],
      "stateMutability": "view",
      "type": "function"
    },
    {
      "inputs": [
        {
          "internalType": "address",
          "name": "newOwner",
          "type": "address"
        }
      ],
      "name": "transferOwnership",
      "outputs": [],
      "stateMutability": "nonpayable",
      "type": "function"
    },
    {
      "inputs": [],
      "name": "usesCustomPrice",
      "outputs": [
        {
          "internalType": "bool",
          "name": "",
          "type": "bool"
        }
      ],
      "stateMutability": "view",
      "type": "function"
    },
    {
      "inputs": [],
      "name": "wasDeletedForFullRefund",
      "outputs": [
        {
          "internalType": "bool",
          "name": "",
          "type": "bool"
        }
      ],
      "stateMutability": "view",
      "type": "function"
    },
    {
      "inputs": [
        {
          "internalType": "uint256",
          "name": "",
          "type": "uint256"
        }
      ],
      "name": "winners",
      "outputs": [
        {
          "internalType": "address",
          "name": "",
          "type": "address"
        }
      ],
      "stateMutability": "view",
      "type": "function"
    },
    {
      "inputs": [],
      "name": "winnersCount",
      "outputs": [
        {
          "internalType": "uint256",
          "name": "",
          "type": "uint256"
        }
      ],
      "stateMutability": "view",
      "type": "function"
    },
    {
      "inputs": [],
      "name": "winnersSelected",
      "outputs": [
        {
          "internalType": "uint256",
          "name": "",
          "type": "uint256"
        }
      ],
      "stateMutability": "view",
      "type": "function"
    },
    {
      "inputs": [
        {
          "internalType": "address",
          "name": "",
          "type": "address"
        }
      ],
      "name": "winsPerAddress",
      "outputs": [
        {
          "internalType": "uint256",
          "name": "",
          "type": "uint256"
        }
      ],
      "stateMutability": "view",
      "type": "function"
    },
    {
      "inputs": [],
      "name": "withdrawCreatorRevenue",
      "outputs": [],
      "stateMutability": "nonpayable",
      "type": "function"
    }
  ],
  "bytecode": "0x608080604052346100695760008054336001600160a01b0319821681178355916001600160a01b03909116907f8be0079c531659141344cd1fd0a4f28419497f9722a3daafe3b4186f6b6457e09080a36001805560ff1960025416600255614986908161006f8239f35b600080fdfe608080604052600436101561001357600080fd5b600090813560e01c90816302d05d3f14613039575080630631c5c21461301b57806306fdde0314612f485780630b747d9114612f2a5780630b78824b14612f0c5780630f15f4c014612e8e5780630fb5a6b414612e7057806310a4410014612e4d578063116546a014612e2a5780631209b1f614612e0c5780631b355bd814612cc55780631fe543e314612b4e5780632cc0af3b146124515780633197cbb61461243357806335c1d349146123d75780633d1705e0146123b95780633d6ad9621461212357806342b72afa146120ea5780634457dba4146120c85780634585e33b14611f185780634971381114611efa5780634cd6bfbc14611e84578063521a9ab414611e665780635a3b7e4214611e3a5780635c975abb14611e175780635d7dd42314611df95780635e321dfc14611ddb5780635fef4b4e14611bef578063677375c314611bd1578063696917ba14611bae5780636ccda0a614611b755780636e04ff0d14611b395780636e61a16014611b1657806370740ac914611797578063715018a61461173d57806378e979251461171f578063813e88b914611701578063888dc198146116e35780638bc53285146116c55780638d7fe478146116a25780638da5cb5b1461167b5780638e50e5091461165d5780639dd62cfc14611639578063a1277600146111ea578063a2fb11751461118a578063aebc45501461115d578063af78ed0a1461113f578063afaca1a114611122578063b5545a3c14610db0578063b5ad841214610bee578063c19d93fb14610bbf578063c2e784bd14610ba1578063c913d4ed14610b83578063cc7d49ec14610b60578063d17d135914610b27578063d447e9bc14610aee578063d56a9e8414610acb578063d91043f214610aad578063e0c8628914610841578063e214f95514610695578063e9e8c6af1461060d578063ee095c0e14610473578063ef11753c14610455578063f1d2a977146103b7578063f2fde38b146103265763fb687df4146102f757600080fd5b34610323578060031936011261032357600e5460405160089190911c6001600160a01b03168152602090f35b80fd5b503461032357602036600319011261032357610340613193565b6103486132a1565b6001600160a01b0381161561036357610360906132f9565b80f35b60405162461bcd60e51b815260206004820152602660248201527f4f776e61626c653a206e6577206f776e657220697320746865207a65726f206160448201526564647265737360d01b6064820152608490fd5b503461032357806003193601126103235760018060a01b039060208282541692600e5460081c1615156024604051809581936357a27bf960e11b835260048301525afa9081156104495790610412575b602090604051908152f35b506020813d8211610441575b8161042b60209383613132565b8101031261043c5760209051610407565b600080fd5b3d915061041e565b604051903d90823e3d90fd5b50346103235780600319360112610323576020602454604051908152f35b503461032357806003193601126103235760ff60195460081c1660098110156105f95760016104a291146133ed565b600a5442108015906105ec575b801561056e575b6104bf90613ef8565b601a546105615761080061ff001960195416176019556104dd613f30565b7f47d47f3f9acb18246ebd9ffa696c95f75f7dcb084ab80c02b3a1edb84ae0f0278180a15b60ff6028541680610555575b6105155780f35b61271061053361052a601a54600d54906133a6565b602554906133a6565b048061053d575080f35b8061054d61036092602a54613cb0565b602a55613dc0565b5060ff600e541661050e565b610569613d13565b610502565b5080546040516336b87bd760e11b815233600482015290602090829060249082906001600160a01b03165afa80156105e1576104bf9183916105b3575b5090506104b6565b6105d4915060203d81116105da575b6105cc8183613132565b81019061352f565b386105ab565b503d6105c2565b6040513d84823e3d90fd5b50601a54601154146104af565b634e487b7160e01b82526021600452602482fd5b503461032357806003193601126103235780546040516336b87bd760e11b815233600482015290602090829060249082906001600160a01b03165afa9081156105e1578291610677575b501561066557610360614625565b6040516327e1f1e560e01b8152600490fd5b61068f915060203d81116105da576105cc8183613132565b38610657565b503461032357806003193601126103235780546040516336b87bd760e11b815233600482015290602090829060249082906001600160a01b03165afa9081156105e1578291610823575b50156106655760195460ff8160081c1660098110158061080f576003821480928115610800575b50156107bb57601f5460ff8116156107765760ff1916601f5561076257610750575b507f0f329a82a34948003efb1f5e7a8a8be8790b0e7cd658c5d447fb073fa9b790ed8180a180f35b61ff0019166102001760195538610728565b634e487b7160e01b83526021600452602483fd5b60405162461bcd60e51b815260206004820152601a60248201527f4e6f20616374697665207265717565737420746f2072657365740000000000006044820152606490fd5b60405162461bcd60e51b815260206004820152601760248201527f496e76616c696420737461746520666f722072657365740000000000000000006044820152606490fd5b91505060026000911438610706565b634e487b7160e01b84526021600452602484fd5b61083b915060203d81116105da576105cc8183613132565b386106df565b503461032357806003193601126103235780546040516336b87bd760e11b81523360048201526020916001600160a01b03919083908290602490829086165afa908115610aa2578491610a85575b50156106655760ff60195460081c16600981101561080f5760026108b391146133ed565b601a5415610a1a5760ff601f54166109e1579080610947849360025460081c1660045460035461ffff6007541663ffffffff60055416906109016040516108f9816130ab565b8a81526148ca565b926040519461090f866130c6565b855287850152604084015260608301526001608083015260a0820152604051958680948193634d8e1c2f60e11b835260048301614148565b03925af180156109d657839061099b575b6000805160206148f1833981519152925080600655600160ff19601f541617601f5561030061ff001960195416176019558360215583602255604051908152a180f35b508082813d83116109cf575b6109b18183613132565b8101031261043c576000805160206148f18339815191529151610958565b503d6109a7565b6040513d85823e3d90fd5b60405162461bcd60e51b8152600481018390526011602482015270105b1c9958591e481c995c5d595cdd1959607a1b6044820152606490fd5b60405162461bcd60e51b815260048101839052603c60248201527f43616e6e6f7420726571756573742072616e646f6d6e65737320666f7220612060448201527f726166666c652077697468206e6f207061727469636970616e74732e000000006064820152608490fd5b610a9c9150833d85116105da576105cc8183613132565b3861088f565b6040513d86823e3d90fd5b50346103235780600319360112610323576020602754604051908152f35b5034610323578060031936011261032357602060ff602354166040519015158152f35b5034610323576020366003190112610323576020906040906001600160a01b03610b16613193565b168152601683522054604051908152f35b5034610323576020366003190112610323576020906040906001600160a01b03610b4f613193565b168152601583522054604051908152f35b5034610323578060031936011261032357602060ff602c54166040519015158152f35b50346103235780600319360112610323576020600454604051908152f35b50346103235780600319360112610323576020600654604051908152f35b503461032357806003193601126103235760ff60195460081c1660405190600981101561076257602092508152f35b5034610323578060031936011261032357610c07613cbd565b600f546001600160a01b039081163303610d7c5760ff60195460081c1660098110156107625760058114610d2957806004610c4b9214908115610d1e575b50613d7d565b602a54908115610ce257828080938193610c82610c78612710610c70602754866133a6565b048094613cb0565b9284602a55613dc0565b600f54165af1610c90613d4d565b5015610c9d576001805580f35b60405162461bcd60e51b815260206004820152601a60248201527f5472616e7366657220746f2063726561746f72206661696c65640000000000006044820152606490fd5b60405162461bcd60e51b81526020600482015260146024820152734e6f20726576656e756520617661696c61626c6560601b6044820152606490fd5b600791501438610c45565b60405162461bcd60e51b815260206004820152602560248201527f43616e6e6f742077697468647261772066726f6d20612064656c6574656420726044820152646166666c6560d81b6064820152608490fd5b60405162461bcd60e51b815260206004820152600c60248201526b27b7363c9031b932b0ba37b960a11b6044820152606490fd5b5034610323578060031936011261032357610dc9613cbd565b60ff60195460081c16600981101590816107625760048114918215611114575b8215611103575b5050156110bf57602c5460ff1615610fed57338152601c602052604081205415610f9c5760ff6028541680610f90575b15610f3657338152601c602052610e3e6040822054600d54906133a6565b338252601c6020528160408120555b8015610efb578180808084335af1610e63613d4d565b5015610ebd5760ff60195460081c16600981101561076257600514610e8b575b506001805580f35b6040519081527f09ad5d6198f1a18763fefd71aa9d3c5f1baa44169a1992a0cb95ce389355704560203392a238610e83565b60405162461bcd60e51b81526020600482015260166024820152751499599d5b99081d1c985b9cd9995c8819985a5b195960521b6044820152606490fd5b60405162461bcd60e51b8152602060048201526013602482015272139bc8185b5bdd5b9d081d1bc81c99599d5b99606a1b6044820152606490fd5b60405162461bcd60e51b815260206004820152602c60248201527f526566756e6473206e6f74206170706c696361626c6520666f7220746869732060448201526b3930b3333632903a3cb8329760a11b6064820152608490fd5b5060ff600e5416610e20565b60405162461bcd60e51b8152602060048201526024808201527f4e6f207469636b6574732070757263686173656420666f72207468697320726160448201526366666c6560e01b6064820152608490fd5b3381526015602052604081205461106b573381526029602052604081205415611026573381526029602052604081208181549155610e4d565b60405162461bcd60e51b815260206004820152601c60248201527f4e6f207374616e6461726420726566756e6420617661696c61626c65000000006044820152606490fd5b60405162461bcd60e51b815260206004820152602660248201527f57696e6e6572732063616e6e6f7420636c61696d2061207374616e64617264206044820152651c99599d5b9960d21b6064820152608490fd5b606460405162461bcd60e51b815260206004820152602060248201527f526166666c65206e6f7420696e206120726566756e6461626c652073746174656044820152fd5b9091506105f9576005143880610df0565b506007811491506000610de9565b503461032357806003193601126103235760208054604051908152f35b50346103235780600319360112610323576020602a54604051908152f35b503461032357806003193601126103235760025460405160089190911c6001600160a01b03168152602090f35b503461032357602036600319011261032357600435601b548110156111e657601b6000527f3ad8aa4f87544323a9d1e5dd902f40c356527a7955687113db5f9a85ad579dc101546040516001600160a01b039091168152602090f35b5080fd5b506020806003193601126111e657600435611203613cbd565b60ff60195460081c1691600983101561080f576001809314611224816133ed565b15611601578354604051638da5cb5b60e01b81526001600160a01b039183908290600490829086165afa80156115f657829187916115ba575b501633141590816115ab575b501561155157811561151657600d5480156114da57338552601c8252611293836040872054613383565b60105410611495576112af6112a884836133a6565b3414613bfa565b601a906112bd848354613383565b60115410611465576112a8846112d2926133a6565b338552601c8252604085206112e8848254613383565b9055845b8381106114045750907fe11731cb4f1eb3ec3dd09bdc96809bb07365f4c881cda3192b397a4bc0b6da409160ff602854166000146113f657600e5460ff16156113f65761133b84600d546133a6565b6127108061134b602554846133a6565b049060ff60195416156000146113d8576113836113af9361137e6113a493611375602654846133a6565b04948592613cb0565b613cb0565b91338a526029865260408a2061139a828254613383565b9055602b54613383565b602b55602a54613383565b602a555b54601154146113cb575b6040519283523392a2805580f35b6113d3613d13565b6113bd565b506113e6906113ee92613cb0565b602a54613383565b602a556113b3565b6113ff34613dc0565b6113b3565b815490600160401b82101561144f57611445611427838861144a9501865561320b565b81546001600160a01b0360039290921b91821b19163390911b179055565b613c3d565b6112ec565b634e487b7160e01b600052604160045260246000fd5b60405162461bcd60e51b815260048101849052600860248201526714dbdb19081bdd5d60c21b6044820152606490fd5b60405162461bcd60e51b815260048101839052601b60248201527f45786365656473206d617820706572207061727469636970616e7400000000006044820152606490fd5b60405162461bcd60e51b8152600481018390526014602482015273151a58dad95d081c1c9a58d9481b9bdd081cd95d60621b6044820152606490fd5b6064906040519062461bcd60e51b82526004820152601460248201527305175616e74697479206d757374206265203e20360641b6044820152fd5b6084906040519062461bcd60e51b82526004820152602d60248201527f70726f746f636f6c2061646d696e20616e642063726561746f722063616e6e6f60448201526c7420706172746963697061746560981b6064820152fd5b9050600f541633141538611269565b809250848092503d83116115ef575b6115d38183613132565b810103126115eb576115e58291613340565b3861125d565b8580fd5b503d6115c9565b6040513d88823e3d90fd5b6064906040519062461bcd60e51b825260048201526011602482015270526166666c65206e6f742061637469766560781b6044820152fd5b5034610323578060031936011261032357602063ffffffff60055416604051908152f35b50346103235780600319360112610323576020602554604051908152f35b5034610323578060031936011261032357546040516001600160a01b039091168152602090f35b5034610323578060031936011261032357602060ff601f54166040519015158152f35b50346103235780600319360112610323576020602254604051908152f35b50346103235780600319360112610323576020601854604051908152f35b50346103235780600319360112610323576020601454604051908152f35b50346103235780600319360112610323576020600954604051908152f35b50346103235780600319360112610323576117566132a1565b600080546001600160a01b0319811682556001600160a01b03167f8be0079c531659141344cd1fd0a4f28419497f9722a3daafe3b4186f6b6457e08280a380f35b50346103235780600319360112610323576117b0613cbd565b60ff60195460081c1660098110156105f9576004146117ce816133ed565b600e546001600160a01b03919060081c821615611ad1576117ee90613d7d565b33825260209160158352611807604082205415156147e5565b33815260168352611825604082205460158552604083205411614820565b338152601683526040812061183a8154613c3d565b9055611847601854613c3d565b60185560195460ff1615611a525760ff6012541660028110156105f9576119e9576001600c540361198f5733815260168352600160408220540361193e5760135491600e5460081c16803b156111e657604051632142170760e11b8152306004820152336024820152604481018490529082908290606490829084905af180156105e15761192a575b50505b601854600c5414611916575b6040518181527f95681e512bc0fe659e195e06c283eada494316f3d801213e48e7101af92bf770833392a260018055604051908152f35b61070061ff001960195416176019556118df565b6119348291613098565b61032357806118d0565b60405162461bcd60e51b815260048101849052602360248201527f45524337323120457363726f77207072697a6520616c726561647920636c61696044820152621b595960ea1b6064820152608490fd5b60405162461bcd60e51b815260048101849052602c60248201527f45524337323120457363726f77207072697a652063616e206f6e6c792068617660448201526b329037b732903bb4b73732b960a11b6064820152608490fd5b60135491600e5460081c16601454813b15611a4e57611a2483928392604051948580948193637921219560e11b83528a3330600486016133b9565b03925af180156105e157611a3a575b50506118d3565b611a448291613098565b6103235780611a33565b8280fd5b9060ff601254166002811015610762578291611a6f85921561486c565b600e5460081c166024604051809481936335313c2160e11b83523360048401525af19182156104495791611aa4575b506118d3565b90508181813d8311611aca575b611abb8183613132565b8101031261043c575138611a9e565b503d611ab1565b60405162461bcd60e51b815260206004820152601c60248201527f526166666c6520686173206e6f206f6e2d636861696e207072697a65000000006044820152606490fd5b5034610323578060031936011261032357602060ff601754166040519015158152f35b503461032357611b4836613258565b5050611b52613464565b90611b7160405192839215158352604060208401526040830190613153565b0390f35b5034610323576020366003190112610323576020906040906001600160a01b03611b9d613193565b168152601c83522054604051908152f35b5034610323578060031936011261032357602060ff601954166040519015158152f35b50346103235780600319360112610323576020602b54604051908152f35b503461032357806003193601126103235780546040516336b87bd760e11b81523360048201526020916001600160a01b03919083908290602490829086165afa908115610aa2578491611dbe575b50156106655760ff60195460081c16600981101561080f576002611c619114613ef8565b600382541015611d82579080611ce7849360025460081c1660045460035463ffffffff60055416611c9f604051611c97816130ab565b8981526148ca565b9160405193611cad856130c6565b8452868401526003604084015260608301526001608083015260a0820152604051958680948193634d8e1c2f60e11b835260048301614148565b03925af180156109d6578390611d47575b6000805160206148f1833981519152925080600655611d178254613c3d565b8255600160ff19601f541617601f5561030061ff001960195416176019558360215583602255604051908152a180f35b508082813d8311611d7b575b611d5d8183613132565b8101031261043c576000805160206148f18339815191529151611cf8565b503d611d53565b60405162461bcd60e51b815260048101839052601460248201527313585e081c995d1c9a595cc8195e18d95959195960621b6044820152606490fd5b611dd59150833d85116105da576105cc8183613132565b38611c3d565b50346103235780600319360112610323576020601154604051908152f35b50346103235780600319360112610323576020600354604051908152f35b5034610323578060031936011261032357602060ff600254166040519015158152f35b503461032357806003193601126103235760ff6012541660405190600281101561076257602092508152f35b50346103235780600319360112610323576020602654604051908152f35b503461032357806003193601126103235780546040516336b87bd760e11b815233600482015290602090829060249082906001600160a01b03165afa9081156105e1578291611edc575b5015610665576103606141cc565b611ef4915060203d81116105da576105cc8183613132565b38611ece565b50346103235780600319360112610323576020600c54604051908152f35b503461032357611f2736613258565b81019060209182828203126120c45781356001600160401b0381116120c057611f5092016131c4565b8051908201207f92de14aefacad220bb2090f938253bcc8dcd013bca59e1e4989ee4284f8fd0668103611fec5750611f8f60ff60195460081c16613354565b6001600052815260ff6040600020541615611fad5750610360613547565b6064906040519062461bcd60e51b82526004820152601860248201527724b73b30b634b21039ba30ba32903a3930b739b4ba34b7b760411b6044820152fd5b7fb211c41431cb2ca48378336f2516973e558099603e57f407043f92b991ce07bb14612016575080f35b60ff60195460081c16600981101561076257600161203491146133ed565b600a5442108015906120b3575b8015612052575b6104bf9150613ef8565b5081546040516336b87bd760e11b8152336004820152908290829060249082906001600160a01b03165afa9081156109d6576104bf928492612096575b5050612048565b6120ac9250803d106105da576105cc8183613132565b388061208f565b50601a5460115414612041565b8480fd5b8380fd5b5034610323578060031936011261032357602061ffff60075416604051908152f35b5034610323576020366003190112610323576020906040906001600160a01b03612112613193565b168152602983522054604051908152f35b503461032357806003193601126103235761213c613cbd565b60ff60195460081c1660098110156105f957600461215a9114613d7d565b338152602060158152604082205460168252612190604084205461217f8315156147e5565b61218a838210614820565b82613cb0565b908115612374573384526016835260408420556121af81601854613383565b60185560195460ff16156122ef5760ff60125416600281101561080f571561229c576121de83916014546133a6565b600e5460135460089190911c6001600160a01b031691823b156120c45761222092849283604051809681958294637921219560e11b84523330600486016133b9565b03925af180156105e157612288575b50507f95681e512bc0fe659e195e06c283eada494316f3d801213e48e7101af92bf770601354916040519283523392a25b601854600c541115612274575b6001805580f35b61070061ff0019601954161760195561226d565b61229190613098565b6111e657813861222f565b60405162461bcd60e51b815260048101839052602560248201527f43616e6e6f7420626174636820636c61696d20616e20457363726f7765642045604482015264524337323160d81b6064820152608490fd5b60125460ff1692915060028310156105f95761230c82931561486c565b600e5460081c6001600160a01b0316803b1561237057604051632cfe929360e21b8152336004820152602481019290925282908290604490829084905af180156105e15761235c575b5050612260565b61236590613098565b610323578038612355565b5050fd5b60405162461bcd60e51b815260048101849052601760248201527f4e6f207072697a6573206c65667420746f20636c61696d0000000000000000006044820152606490fd5b50346103235780600319360112610323576020601054604051908152f35b503461032357602036600319011261032357600435601a548110156111e657601a6000527f057c384a7d1c54f3a1b2e5e67b2617b8224fdfd1ea7234eea573a6ff665ff63e01546040516001600160a01b039091168152602090f35b50346103235780600319360112610323576020600a54604051908152f35b5034610323576101e03660031901126103235761246c613193565b906024356001600160401b0381116111e65761248c9036906004016131c4565b916044351515604435036111e65760c435151560c435036111e6576001600160a01b039060e4358083169003611a4e578161010435168061010435036120c45760026101843510156120c45782845416612b13576124e9826132f9565b6bffffffffffffffffffffffff60a01b600f541617600f5560405163ec644ddd60e01b815260a0816004818686165afa8015610aa2578485869187948894612a9e575b509161ffff949163ffffffff9360025490610100600160a81b039060081b1690610100600160a81b031916176002556003556004551663ffffffff1960055416176005551661ffff196007541617600755828052601d602052604083206001845260205260408320600160ff19825416179055601d602052604083206002845260205260408320600160ff19825416179055601d602052604083206003845260205260408320600160ff19825416179055601d602052604083206004845260205260408320600160ff19825416179055601d602052604083206007845260205260408320600160ff19825416179055828052601d602052604083206005845260205260408320600160ff19825416179055828052601d602052604083206006845260205260408320600160ff1982541617905560018352601d602052604083206008845260205260408320600160ff1982541617905560038352601d602052604083206002845260205260408320600160ff1982541617905583516001600160401b038111612a8a576126c060085461305e565b601f8111612a23575b506020601f82116001146129ab5791816060928594879888926129a0575b50508160011b916000199060031b1c1916176008555b612714606435806009556084359081600b55613383565b600a5560a435600c5560ff196028541660ff6044351515161760285561014435600d5561016435601055600460405180948193631a35245160e31b8352165afa9081156109d65783918491859161295f575b50602755602655602555600e8054610100600160a81b03191660e43560081b610100600160a81b03168181178355610124356011559192919060443515612943575060ff196019541660ff60c4351515161760195582549281610100600160a81b0319851617815560ff196012541660ff6101843516176012556101a43593846013556101c4359283601455604435604435612937575b61291d575b50505060c435612820575b505050505b61ff00196019541660195580f35b6101843561289d57508060e435163b1561237057604051632142170760e11b8152610104356001600160a01b031660048201523060248201526044810192909252829082906064908290849060e435165af180156105e157612889575b50505b8038808061280d565b61289290613098565b61032357803861287d565b600161018494939435146128b5575b50505050612880565b6128c19060a4356133a6565b908060e435163b15611a4e576128f39383604051809681958294637921219560e11b84523061010435600486016133b9565b039260e435165af180156105e15761290e575b8181806128ac565b61291790613098565b38612906565b6001600160a81b0319909116176001179055388080612802565b506101443515156127fd565b9350505060ff1960195416601955558060135580601455612812565b925050506060813d8211612998575b8161297b60609383613132565b810103126123705780516040602083015192015190919038612766565b3d915061296e565b0151905038806126e7565b6008855260008051602061491183398151915295855b601f1984168110612a0b5750828697869593600193606096601f198116106129f2575b505050811b016008556126fd565b015160001960f88460031b161c191690553880806129e4565b828201518855600190970196602092830192016129c1565b60088552601f820160051c6000805160206149118339815191520160208310612a75575b601f820160051c600080516020614911833981519152018110612a6a57506126c9565b858155600101612a47565b50600080516020614911833981519152612a47565b634e487b7160e01b84526041600452602484fd5b94505050505060a0813d8211612b0b575b81612abc60a09383613132565b810103126120c457612acd81613340565b602082015191604081015160608201519163ffffffff83168303612b0757608001519261ffff84168403612b07579193909161ffff61252c565b8780fd5b3d9150612aaf565b60405162461bcd60e51b8152602060048201526013602482015272105b1c9958591e481a5b9a5d1a585b1a5e9959606a1b6044820152606490fd5b5034610323576040366003190112610323576024906004356001600160401b0383358181116120c457366023820112156120c45780600401359182116120c457848260051b820101913683116120c05760025460081c6001600160a01b03163303612c8157612bbc816141a1565b90612bca6040519283613132565b815260209283820192870184845b838310612c7157505050506006548403612c38575115612c2457907fd26ff88a1db9b3b7e9a6a7cd0abec5d2c8efce0a95a30bf024b29e7365f81f0d915180601e55604051908152a280f35b5050634e487b7160e01b8252506032600452fd5b60405162461bcd60e51b81526004810184905260128188015271125b9d985b1a59081c995c5d595cdd08125160721b6044820152606490fd5b8235815291810191869101612bd8565b60405162461bcd60e51b8152602060048201819052818801527f4f6e6c792056524620436f6f7264696e61746f722063616e2066756c66696c6c6044820152606490fd5b503461032357806003193601126103235760195460ff8160081c16600981101561076257801590612cf5826133ed565b8354612d1690336001600160a01b0391821614908115612dfe575b50613429565b8115612df3575b5015612d9f57602c805460ff1916600117905560ff16612d92575b61050061ff001960195416176019557fe465c22b8ec96fc194d9a0791b76171272fb36c68a84e2c807ed610cb9c7b9b18180a17fc8f49e7f8c3de84987e9efaa8a2721980f588c4badeaf4790e2a60631648db7c8180a180f35b612d9a613f30565b612d38565b60405162461bcd60e51b815260206004820152602660248201527f526166666c652063616e6e6f742062652064656c65746564206174207468697360448201526520737461676560d01b6064820152608490fd5b600191501438612d1d565b9050600f5416331438612d10565b50346103235780600319360112610323576020600d54604051908152f35b5034610323578060031936011261032357602060ff600e54166040519015158152f35b5034610323578060031936011261032357602060ff602854166040519015158152f35b50346103235780600319360112610323576020600b54604051908152f35b5034610323578060031936011261032357612eb060ff60195460081c16613354565b6001825260205260ff60408220541615612ecc57610360613547565b60405162461bcd60e51b815260206004820152601860248201527724b73b30b634b21039ba30ba32903a3930b739b4ba34b7b760411b6044820152606490fd5b50346103235780600319360112610323576020601354604051908152f35b50346103235780600319360112610323576020601e54604051908152f35b50346103235780600319360112610323576040519080600854612f6a8161305e565b80855291600191808316908115612ff15750600114612fa8575b611b7185612f9481870382613132565b604051918291602083526020830190613153565b9250600883526000805160206149118339815191525b828410612fd9575050508101602001612f9482611b71612f84565b80546020858701810191909152909301928101612fbe565b869550611b7196935060209250612f9494915060ff191682840152151560051b8201019293612f84565b50346103235780600319360112610323576020602154604051908152f35b9050346111e657816003193601126111e657600f546001600160a01b03168152602090f35b90600182811c9216801561308e575b602083101461307857565b634e487b7160e01b600052602260045260246000fd5b91607f169161306d565b6001600160401b03811161144f57604052565b602081019081106001600160401b0382111761144f57604052565b60c081019081106001600160401b0382111761144f57604052565b608081019081106001600160401b0382111761144f57604052565b604081019081106001600160401b0382111761144f57604052565b606081019081106001600160401b0382111761144f57604052565b90601f801991011681019081106001600160401b0382111761144f57604052565b919082519283825260005b84811061317f575050826000602080949584010152601f8019910116010190565b60208183018101518483018201520161315e565b600435906001600160a01b038216820361043c57565b6001600160401b03811161144f57601f01601f191660200190565b81601f8201121561043c578035906131db826131a9565b926131e96040519485613132565b8284526020838301011161043c57816000926020809301838601378301015290565b601a5481101561324257601a6000527f057c384a7d1c54f3a1b2e5e67b2617b8224fdfd1ea7234eea573a6ff665ff63e0190600090565b634e487b7160e01b600052603260045260246000fd5b90602060031983011261043c576004356001600160401b039283821161043c578060238301121561043c57816004013593841161043c576024848301011161043c576024019190565b6000546001600160a01b031633036132b557565b606460405162461bcd60e51b815260206004820152602060248201527f4f776e61626c653a2063616c6c6572206973206e6f7420746865206f776e65726044820152fd5b600080546001600160a01b039283166001600160a01b03198216811783559216907f8be0079c531659141344cd1fd0a4f28419497f9722a3daafe3b4186f6b6457e09080a3565b51906001600160a01b038216820361043c57565b600981101561336d57600052601d602052604060002090565b634e487b7160e01b600052602160045260246000fd5b9190820180921161339057565b634e487b7160e01b600052601160045260246000fd5b8181029291811591840414171561339057565b929060c0949260018060a01b0380921685521660208401526040830152606082015260a06080820152600060a08201520190565b156133f457565b60405162461bcd60e51b815260206004820152600d60248201526c496e76616c696420737461746560981b6044820152606490fd5b1561343057565b60405162461bcd60e51b815260206004820152600c60248201526b155b985d5d1a1bdc9a5e995960a21b6044820152606490fd5b60ff60195460081c16600981101561336d57801580613523575b6134f3576001146134a0575b600090604051613499816130ab565b6000815290565b600a544210601a5460115411158115916134eb575b501561348a5760405190602080830152600360408301526211539160ea1b6060830152606082526134e5826130e1565b60019190565b9050386134b5565b50604051906020808301526008604083015267414354495641544560c01b6060830152606082526134e5826130e1565b5060095442101561347e565b9081602091031261043c5751801515810361043c5790565b60008054604080516336b87bd760e11b81523360048083019190915260209390916001600160a01b039182169060249086818381865afa908115613868578891613b65575b508015613b5c575b8015613b0b575b6135a490613429565b60ff918260195460081c166009811015613af957613ac0576009544210613a90578682918751928380926316accbeb60e01b8252308a8301525afa908115613868578891613a73575b5015613a38578160285416613626575b5050505050506000805160206149318339815191529061010061ff0019601954161760195580a1565b81601254166002811015613a2657806138ee575082600e5460081c1685516303aa30b960e11b815287818781855afa9081156138e45789916138ab575b5084309116036138725786859187519283809263cc54cce360e01b82525afa90811561386857889161384b575b501561380957816028541691826137fc575b826137d3575b50506136cf575b50505050600080516020614931833981519152905b9038808080806135fd565b8390600e5460081c16835192838092633f6615ab60e11b82525afa8491816137a4575b50613738575061373692507f5072697a6520737570706c7920636865636b206661696c65640000000000000090519161372a836130fc565b60198352820152613b82565b565b600c54116137595750506000805160206149318339815191523880806136af565b6137369250807f496e73756666696369656e74207072697a6520737570706c7920666f72207769646e6e65727360d81b92519361379585613117565b60258552840152820152613b82565b9091508381813d83116137cc575b6137bc8183613132565b810103126120c0575190386136f2565b503d6137b2565b60125416915060028210156137eb57501538806136a8565b634e487b7160e01b87526021845286fd5b60195481161592506136a2565b5050505061373692507f4d696e74657220617070726f76616c206e6f74206c6f636b656400000000000090519161383f836130fc565b601a8352820152613b82565b6138629150873d89116105da576105cc8183613132565b38613690565b86513d8a823e3d90fd5b5050505050613736925072135a5b9d195c881b9bdd08185c1c1c9bdd9959606a1b90519161389f836130fc565b60138352820152613b82565b90508781813d83116138dd575b6138c28183613132565b810103126138d9576138d390613340565b38613663565b8880fd5b503d6138b8565b87513d8b823e3d90fd5b90506001915092919214613916575b50505050600080516020614931833981519152906136c4565b613925600c54601454906133a6565b9182156139e557600e546013548551627eeac760e11b8152309481019485526020850191909152928692849260081c16908290819060400103915afa9081156139db5785916139ae575b501061397c5780806138fd565b61373692507f496e73756666696369656e74207072697a652062616c616e636500000000000090519161383f836130fc565b90508381813d83116139d4575b6139c58183613132565b810103126120c057513861396f565b503d6139bb565b83513d87823e3d90fd5b50505061373692507f5072697a6520616d6f756e74206e6f7420636f6e666967757265640000000000905191613a1a836130fc565b601b8352820152613b82565b50634e487b7160e01b87526021845286fd5b505050506137369250752737ba103932b3b4b9ba32b932b2103337b9102b292360511b905191613a67836130fc565b60168352820152613b82565b613a8a9150873d89116105da576105cc8183613132565b386135ed565b855162461bcd60e51b8152808601889052600b818401526a139bdd081cdd185c9d195960aa1b6044820152606490fd5b855162461bcd60e51b8152808601889052601481840152734e6f7420696e2070656e64696e6720737461746560601b6044820152606490fd5b634e487b7160e01b8952602186528289fd5b508451638195195d60e01b8152338582015286818381865afa90811561386857906135a4918991613b3f575b50905061359b565b613b569150883d8a116105da576105cc8183613132565b38613b37565b50813314613594565b613b7c9150873d89116105da576105cc8183613132565b3861358c565b613bdd7f515924659ee8a39e742910640f0276d96e2f177a5b04c956e3c18899d99bb2159160195461060061ff001982161760195560ff602854169081613bef575b50613be257604051918291602083526020830190613153565b0390a1565b613bea613f30565b612f94565b60ff91501638613bc4565b15613c0157565b60405162461bcd60e51b8152602060048201526014602482015273125b98dbdc9c9958dd0811551208185b5bdd5b9d60621b6044820152606490fd5b60001981146133905760010190565b601b54600160401b81101561144f576001810180601b5581101561324257601b6000527f3ad8aa4f87544323a9d1e5dd902f40c356527a7955687113db5f9a85ad579dc10180546001600160a01b0319166001600160a01b03909216919091179055565b9190820391821161339057565b600260015414613cce576002600155565b60405162461bcd60e51b815260206004820152601f60248201527f5265656e7472616e637947756172643a207265656e7472616e742063616c6c006044820152606490fd5b61020061ff0019601954161760195542600a557f502fd88d3ee98597d4546d25e71901684f153dccc5308b79f0f9ad3c660537a6600080a1565b3d15613d78573d90613d5e826131a9565b91613d6c6040519384613132565b82523d6000602084013e565b606090565b15613d8457565b60405162461bcd60e51b8152602060048201526014602482015273149859999b19481b9bdd0818dbdb5c1b195d195960621b6044820152606490fd5b6000805460405163524d530b60e01b815260209390916001600160a01b039085908490600490829085165afa928315610aa2578493613ec1575b50821615613e7c579082916040519085820191635e5bc1c560e11b835281602482015260248152613e2a81613117565b51925af1613e36613d4d565b5015613e3f5750565b6064906040519062461bcd60e51b82526004820152601660248201527514995d995b9d594819195c1bdcda5d0819985a5b195960521b6044820152fd5b60405162461bcd60e51b815260048101859052601760248201527f526576656e7565206d616e61676572206e6f74207365740000000000000000006044820152606490fd5b9092508481813d8311613ef1575b613ed98183613132565b810103126120c457613eea90613340565b9138613dfa565b503d613ecf565b15613eff57565b60405162461bcd60e51b8152602060048201526009602482015268139bdd08195b99195960ba1b6044820152606490fd5b60ff60125416600281101561336d576140055760018060a01b0380600e5460081c1690600f5416601354823b1561043c57604051632142170760e11b81523060048201526001600160a01b039290921660248301526044820152906000908290606490829084905af19081613ff6575b50613736577f57c4f3f79365b804b336642da6dbe76f9b4eb0a77462e9451861600c70974cea6060604051602081526014602082015273115490cdcc8c481c99599d5b990819985a5b195960621b6040820152a1565b613fff90613098565b38613fa0565b600e54601354604051627eeac760e11b81523060048201526024810182905260209260081c6001600160a01b0390811691908482604481865afa91821561413c5760009261410d575b508161405c575b5050505050565b600f541691803b1561043c5761408e936000809460405196879586948593637921219560e11b855230600486016133b9565b03925af190816140fe575b506140f85760607f57c4f3f79365b804b336642da6dbe76f9b4eb0a77462e9451861600c70974cea9160156040519180835282015274115490cc4c4d4d481c99599d5b990819985a5b1959605a1b6040820152a15b3880808080614055565b506140ee565b61410790613098565b38614099565b90918582813d8311614135575b6141248183613132565b81010312610323575051903861404e565b503d61411a565b6040513d6000823e3d90fd5b60e060a061419e9360208452805160208501526020810151604085015261ffff604082015116606085015263ffffffff8060608301511660808601526080820151168285015201519160c0808201520190613153565b90565b6001600160401b03811161144f5760051b60200190565b80518210156132425760209160051b010190565b60195460ff8160081c16600981101561336d576003036143bf57601e54801561437a5760225490600c549081831015614369576142309350601a546142146021548092613cb0565b61421e8585613cb0565b600086614335575050506001916143fb565b60005b8181106142e557508061424b61425692602154613383565b602155602254613383565b80602255600c5411156142d1575b6040519060208083018184528251809152816040850193019160005b8281106142b4575050505090807f32a1b5731a757f192a06ca973715ca4dbc42c2d15323cabaa74e0a2d5dc088e4920390a1565b83516001600160a01b031685529381019392810192600101614280565b61040061ff00196019541617601955614264565b614330906001600160a01b03614306816142ff84886141b8565b5116613c4c565b61431082866141b8565b5116600052601560205260406000206143298154613c3d565b9055613c3d565b614233565b50808210156143615750915b60fa8311614358575b826143fb57600192506143fb565b60fa925061434a565b905091614341565b50505061ff00191661040017601955565b60405162461bcd60e51b815260206004820152601760248201527f52616e646f6d6e657373206e6f742072656365697665640000000000000000006044820152606490fd5b60405162461bcd60e51b81526020600482015260146024820152734e6f7420696e2064726177696e6720737461746560601b6044820152606490fd5b929493919091601a95865480156145ee578461441691613cb0565b8084116145e6575b508061442a8484613383565b116145d2575b5081156145b15792949190614444816141a1565b9360409661445488519687613132565b828652601f19614463846141a1565b01602090368289013760009889965b8588106144855750505050505050509190565b909192939495969961449c8b61137e8a8554613cb0565b80156145785761456c91896145608e61455a614555614536614525848f8f9a8f9b8f9c6145669d6144d0866144f196613383565b81519283019384528183015281526144e781613117565b5190200689613383565b976144fb8961320b565b9054600391821b1c6001600160a01b039081169a8b979290916145369161452a6145258888613383565b61320b565b9054911b1c169161320b565b90919082549060031b9160018060a01b03809116831b921b1916179055565b613383565b8d6141b8565b52613c3d565b9a613c3d565b96959493929190614472565b835162461bcd60e51b81526004810186905260126024820152714e6f20617661696c61626c6520736c6f747360701b6044820152606490fd5b5050505090506040516145c3816130ab565b60008152600036813790600090565b819250906145df91613cb0565b9038614430565b92503861441e565b60405162461bcd60e51b815260206004820152600f60248201526e4e6f207061727469636970616e747360881b6044820152606490fd5b60195460ff8160081c16600981101561336d576003036147b257600a546201518081018091116133905742111561478157601e5480156147475760225490600c549081831015614369576146a09350601a546146846021548092613cb0565b61468e8585613cb0565b600086614711575050506001916143fb565b9060005b8281106146e85750506146c96146bc82602254613383565b9182602255602154613383565b602155600c5411156146d757565b61040061ff00196019541617601955565b61470c906001600160a01b03614702816142ff84876141b8565b61431082856141b8565b6146a4565b508082101561473f5750915b6101f4808411614737575b50826143fb57600192506143fb565b925038614728565b90509161471d565b60405162461bcd60e51b815260206004820152601260248201527114985b991bdb5b995cdcc81b9bdd081cd95d60721b6044820152606490fd5b60405162461bcd60e51b8152602060048201526009602482015268546f6f206561726c7960b81b6044820152606490fd5b60405162461bcd60e51b815260206004820152600b60248201526a4e6f742064726177696e6760a81b6044820152606490fd5b156147ec57565b60405162461bcd60e51b815260206004820152600c60248201526b2737ba1030903bb4b73732b960a11b6044820152606490fd5b1561482757565b60405162461bcd60e51b815260206004820152601c60248201527f416c6c207072697a65732068617665206265656e20636c61696d6564000000006044820152606490fd5b1561487357565b60405162461bcd60e51b815260206004820152602960248201527f4d696e7461626c65207072697a6573206d757374206265204552432d3732312060448201526839ba30b73230b9321760b91b6064820152608490fd5b6040519063125fa26760e31b602083015251151560248201526024815261419e8161311756fef81446731d23d202ea16cf590daf64c6087251171612b2adde6acbef4b375802f3f7a9fe364faab93b216da50a3214154f22a0a2b415b23a84c8169e8b636ee3eead26bfdc5d23664466d2cc00a3a33910b6133271f450ca9b4bb44bf191a754a264697066735822122095603cee9a302d09700d9401ec2b60202be7c01aa332426ce3678f580b83022864736f6c63430008130033",
  "linkReferences": {},
  "deployedLinkReferences": {}
}