{
  "_format": "hh-sol-artifact-1",
  "contractName": "RaffleDeployer",
  "sourceName": "contracts/RaffleDeployer.sol",
  "abi": [
    {
      "inputs": [
        {
          "internalType": "address",
          "name": "_raffleImplementation",
          "type": "address"
        },
        {
          "internalType": "address",
          "name": "_manager",
          "type": "address"
        }
      ],
      "stateMutability": "nonpayable",
      "type": "constructor"
    },
    {
      "anonymous": false,
      "inputs": [
        {
          "indexed": true,
          "internalType": "address",
          "name": "previousOwner",
          "type": "address"
        },
        {
          "indexed": true,
          "internalType": "address",
          "name": "newOwner",
          "type": "address"
        }
      ],
      "name": "OwnershipTransferred",
      "type": "event"
    },
    {
      "anonymous": false,
      "inputs": [
        {
          "indexed": true,
          "internalType": "address",
          "name": "collection",
          "type": "address"
        }
      ],
      "name": "PrizeCollectionCreated",
      "type": "event"
    },
    {
      "anonymous": false,
      "inputs": [
        {
          "indexed": true,
          "internalType": "address",
          "name": "raffle",
          "type": "address"
        },
        {
          "indexed": true,
          "internalType": "address",
          "name": "creator",
          "type": "address"
        }
      ],
      "name": "RaffleCreated",
      "type": "event"
    },
    {
      "inputs": [
        {
          "internalType": "string",
          "name": "name",
          "type": "string"
        },
        {
          "internalType": "uint256",
          "name": "startTime",
          "type": "uint256"
        },
        {
          "internalType": "uint256",
          "name": "duration",
          "type": "uint256"
        },
        {
          "internalType": "uint256",
          "name": "ticketLimit",
          "type": "uint256"
        },
        {
          "internalType": "uint256",
          "name": "winnersCount",
          "type": "uint256"
        },
        {
          "internalType": "uint256",
          "name": "maxTicketsPerParticipant",
          "type": "uint256"
        },
        {
          "internalType": "bool",
          "name": "hasPrize",
          "type": "bool"
        },
        {
          "internalType": "uint256",
          "name": "customTicketPrice",
          "type": "uint256"
        },
        {
          "internalType": "bool",
          "name": "useMintableWorkflow",
          "type": "bool"
        },
        {
          "internalType": "address",
          "name": "prizeCollection",
          "type": "address"
        },
        {
          "internalType": "enum PrizeTypes.Standard",
          "name": "standard",
          "type": "uint8"
        },
        {
          "internalType": "uint256",
          "name": "prizeTokenId",
          "type": "uint256"
        },
        {
          "internalType": "uint256",
          "name": "amountPerWinner",
          "type": "uint256"
        },
        {
          "internalType": "string",
          "name": "collectionName",
          "type": "string"
        },
        {
          "internalType": "string",
          "name": "collectionSymbol",
          "type": "string"
        },
        {
          "internalType": "string",
          "name": "collectionBaseURI",
          "type": "string"
        },
        {
          "internalType": "address",
          "name": "creator",
          "type": "address"
        },
        {
          "internalType": "uint256",
          "name": "royaltyPercentage",
          "type": "uint256"
        },
        {
          "internalType": "address",
          "name": "royaltyRecipient",
          "type": "address"
        },
        {
          "internalType": "uint256",
          "name": "maxSupply",
          "type": "uint256"
        }
      ],
      "name": "createRaffle",
      "outputs": [
        {
          "internalType": "address",
          "name": "",
          "type": "address"
        }
      ],
      "stateMutability": "payable",
      "type": "function"
    },
    {
      "inputs": [],
      "name": "owner",
      "outputs": [
        {
          "internalType": "address",
          "name": "",
          "type": "address"
        }
      ],
      "stateMutability": "view",
      "type": "function"
    },
    {
      "inputs": [],
      "name": "raffleImplementation",
      "outputs": [
        {
          "internalType": "address",
          "name": "",
          "type": "address"
        }
      ],
      "stateMutability": "view",
      "type": "function"
    },
    {
      "inputs": [],
      "name": "raffleManager",
      "outputs": [
        {
          "internalType": "address",
          "name": "",
          "type": "address"
        }
      ],
      "stateMutability": "view",
      "type": "function"
    },
    {
      "inputs": [],
      "name": "renounceOwnership",
      "outputs": [],
      "stateMutability": "nonpayable",
      "type": "function"
    },
    {
      "inputs": [
        {
          "internalType": "address",
          "name": "newOwner",
          "type": "address"
        }
      ],
      "name": "transferOwnership",
      "outputs": [],
      "stateMutability": "nonpayable",
      "type": "function"
    },
    {
      "inputs": [],
      "name": "transferOwnershipToManager",
      "outputs": [],
      "stateMutability": "nonpayable",
      "type": "function"
    }
  ],
  "bytecode": "0x60a034620000d257601f62001e8838819003918201601f19168301916001600160401b03831184841017620000d7578084926040948552833981010312620000d2576200005a60206200005283620000ed565b9201620000ed565b600080546001600160a01b03198082163390811784556040519591946001600160a01b039490938516907f8be0079c531659141344cd1fd0a4f28419497f9722a3daafe3b4186f6b6457e09080a360805216906001541617600155611d85908162000103823960805181818161022f01526105430152f35b600080fd5b634e487b7160e01b600052604160045260246000fd5b51906001600160a01b0382168203620000d25756fe6080604052600436101561001257600080fd5b6000803560e01c8063379848071461025e5780633d1da5ed14610219578063715018a6146101bf5780638da5cb5b14610198578063a9dd23051461012d578063aa6527d9146101045763f2fde38b1461006a57600080fd5b34610101576020366003190112610101576004356001600160a01b0381168082036100fc57610097611bd7565b156100a8576100a590611c2f565b80f35b60405162461bcd60e51b815260206004820152602660248201527f4f776e61626c653a206e6577206f776e657220697320746865207a65726f206160448201526564647265737360d01b6064820152608490fd5b600080fd5b80fd5b50346101015780600319360112610101576001546040516001600160a01b039091168152602090f35b503461010157806003193601126101015780546001600160a01b03908116330361015e576100a59060015416611c2f565b60405162461bcd60e51b815260206004820152601260248201527127b7363c9034b734ba34b0b61037bbb732b960711b6044820152606490fd5b5034610101578060031936011261010157546040516001600160a01b039091168152602090f35b50346101015780600319360112610101576101d8611bd7565b600080546001600160a01b0319811682556001600160a01b03167f8be0079c531659141344cd1fd0a4f28419497f9722a3daafe3b4186f6b6457e08280a380f35b50346101015780600319360112610101576040517f00000000000000000000000000000000000000000000000000000000000000006001600160a01b03168152602090f35b506102803660031901126101015760043567ffffffffffffffff81116108615761028c903690600401611b80565b60c435151560c4350361086157610104351515610104350361086157610124356001600160a01b0381169003610861576002610144351015908161092f576101a43567ffffffffffffffff81116109f3576102eb903690600401611b80565b6101c43567ffffffffffffffff8111611b305761030c903690600401611b80565b926101e43567ffffffffffffffff8111611b2c5761032e903690600401611b80565b92610204356001600160a01b0381169003611b2c5761024435906001600160a01b0382168203611b28576001546001600160a01b03169460c435611a81575b6040516357a27bf960e11b815260c435151560048201528895906020816024818b5afa908115610c03578a91611a4f575b50604080516360f1eaf560e01b81529190826004818c5afa918215611a44578b92611a21575b50606435106119dc57606435116119975760c435156118e25760e4358015611885575b935b8415611840576040518060a081011067ffffffffffffffff60a08301111761182c5760a081016040528a81528a60208201528a60408201528a60608201528a60808201526040516360f1eaf560e01b81526040816004818d5afa8015611799578c918d9161180b575b506020830152815260408051632f3dc77560e11b815290816004818d5afa8015611799578c918d916117da575b5060608301526040820152604051630ac2c18d60e01b81526020816004818d5afa908115611799578c916117a4575b5060808201526040516320a72b6560e11b81526020816004818d5afa908115611799578c9161177a575b50611743574260243511156116fe5780516064351015806116ee575b156116b2576105066084351515611ca4565b60643560843511611674576040810151604435101580611664575b1561162c5760a4351515908161161b575b50156115d65760c43515611560575b7f0000000000000000000000000000000000000000000000000000000000000000608881901c62ffffff16763d602d80600a3d3981f3363d3d373d3d3d363d73000000178b5260781b6e5af43d82803e903d91602b57fd5bf3176020526001600160a01b03603760098cf01698891561152257610124356001600160a01b038116151597889081611515575b81611509575b6114f5576101443515611430575b508b98600161014435146113d0575b60c435806113c9575b806113bf575b806113b1575b6112ef575b60c435156111525750508761113e576001610144351461108e575b8615610e265750505050604051637bf046a960e01b8152602081600481895afa908115610e1b578891610dfc575b5015610da757600154604051630dedf14b60e41b81526001600160a01b0361012435811660048301529091169190602081602481865afa908115610aec578991610d88575b5015610d43578791610124359561010435159161010435610c36575b5061010435156109f7575b505b6001546001600160a01b031690883b156109f357610703946040519586948594632cc0af3b60e01b865260048601526101e060248601526101e4850190611d0f565b9160c435151560448501526024356064850152604435608485015260843560a4850152151560c484015260018060a01b03881660e484015260018060a01b03610204351661010484015260643561012484015261014483015261016460a43581840152610184906101443582850152356101a4840152356101c4830152038183895af180156109e8576109d1575b508492919060c43590816109c6575b816109be575b50610884575b50803b156108615760405163060bc28b60e11b815260048101849052828160248183865af1908115610865578391610870575b5050803b15610861578190602460405180948193638da33c0760e01b83528760048401525af180156108655761084d575b60405160209083610204356001600160a01b0316817f9c47a29f5025e2caaa94993068aa476939fb2a69f283de301e96ce91e46e0c518880a38152f35b6108578391611b34565b6108615738610810565b5080fd5b6040513d85823e3d90fd5b61087990611b34565b6108615781386107df565b6040516301ffc9a760e01b8152632cfe929360e21b6004820152909250602081602481610124356001600160a01b03165afa9081156109b3578591610984575b50156109335783916001600160a01b0381163b1561092f57604051631c38258960e01b8152600481018590529083908290602490829084906001600160a01b03165af190811561086557839161091b575b506107ac565b61092490611b34565b610861578138610915565b8280fd5b60405162461bcd60e51b815260206004820152602360248201527f436f6c6c656374696f6e206c61636b73206261746368206d696e7420737570706044820152621bdc9d60ea1b6064820152608490fd5b6109a6915060203d6020116109ac575b61099e8183611b5e565b810190611c76565b386108c4565b503d610994565b6040513d87823e3d90fd5b9050386107a6565b6101043591506107a0565b6109df909591939295611b34565b93909138610791565b6040513d88823e3d90fd5b8380fd5b909250610c225761014435610af7576040516331a9108f60e11b8152610164356004820152602081602481610124356001600160a01b03165afa908115610aec578991610abd575b506001600160a01b03610204358116911603610a5e5787915b386106bf565b60405162461bcd60e51b815260206004820152603160248201527f43726561746f7220646f6573206e6f74206f776e20746865207370656369666960448201527032b21022a921969b991890383934bd329760791b6064820152608490fd5b610adf915060203d602011610ae5575b610ad78183611b5e565b810190611cf0565b38610a3f565b503d610acd565b6040513d8b823e3d90fd5b610184356084358160843502048114608435151715610c0e57604051627eeac760e11b81526001600160a01b0361020435811660048301526101643560248301529091906020908390604490829061012435165afa918215610c03578a92610bcb575b506084350211610b6b578791610a58565b60405162461bcd60e51b815260206004820152603260248201527f43726561746f7227732062616c616e636520697320696e73756666696369656e6044820152713a103337b91030b636103bb4b73732b9399760711b6064820152608490fd5b9091506020813d602011610bfb575b81610be760209383611b5e565b81010312610bf757519038610b5a565b8980fd5b3d9150610bda565b6040513d8c823e3d90fd5b634e487b7160e01b89526011600452602489fd5b634e487b7160e01b88526021600452602488fd5b604051631a74b3f360e01b8152610124356001600160a01b0316600482015292945060209150829060249082905afa908115610aec578991610d24575b5015610cd057879161014435610c8b578892386106b4565b60405162461bcd60e51b815260206004820152601860248201527f4d696e7461626c65206f6e6c7920666f722045524337323100000000000000006044820152606490fd5b60405162461bcd60e51b815260206004820152602660248201527f4d696e7461626c65206f6e6c7920666f7220696e7465726e616c20636f6c6c656044820152656374696f6e7360d01b6064820152608490fd5b610d3d915060203d6020116109ac5761099e8183611b5e565b38610c73565b60405162461bcd60e51b815260206004820152601760248201527f436f6c6c656374696f6e206e6f7420617070726f7665640000000000000000006044820152606490fd5b610da1915060203d6020116109ac5761099e8183611b5e565b38610698565b60405162461bcd60e51b815260206004820152602760248201527f5573696e67206578697374696e6720636f6c6c656374696f6e7320697320646960448201526639b0b13632b21760c91b6064820152608490fd5b610e15915060203d6020116109ac5761099e8183611b5e565b38610653565b6040513d8a823e3d90fd5b909192939650610144356110335761010435610fc8576084356102643510610f835760015460405163d63843cd60e01b81528b9591602090829060049082906001600160a01b03165afa9081156109e857610ecf9560209588928394610f5e575b50610ee1610ebd9495604051998a9889978896634fd63f0960e01b88528860048901526101206024890152610124880190611d0f565b86810360031901604488015290611d0f565b84810360031901606486015290611d0f565b6001600160a01b0361020435811660848501526102243560a485015291821660c48401526102643560e484015261010483018f90529190910393165af1908115610f53578291610f34575b5093816106c1565b610f4d915060203d602011610ae557610ad78183611b5e565b38610f2c565b6040513d84823e3d90fd5b610ebd9450610f7c610ee191893d8b11610ae557610ad78183611b5e565b9450610e87565b60405162461bcd60e51b815260206004820152601d60248201527f4d617820737570706c79206d75737420636f7665722077696e6e6572730000006044820152606490fd5b60405162461bcd60e51b815260206004820152603d60248201527f43616e6e6f7420757365206d696e7461626c6520776f726b666c6f772077686560448201527f6e206465706c6f79696e672061206e657720636f6c6c656374696f6e2e0000006064820152608490fd5b60405162461bcd60e51b815260206004820152602d60248201527f4e657720636f6c6c656374696f6e732063616e206f6e6c79206265204552432d60448201526c1b99189039ba30b73230b9321760991b6064820152608490fd5b61018435156110f957610124356001600160a01b03166106255760405162461bcd60e51b8152602060048201526024808201527f45524331313535206d75737420757365206578697374696e6720636f6c6c65636044820152633a34b7b760e11b6064820152608490fd5b60405162461bcd60e51b815260206004820152601d60248201527f416d6f756e74207065722077696e6e6572206d757374206265203e20300000006044820152606490fd5b634e487b7160e01b8b52602160045260248bfd5b959450975050505083611284576101043561122257610164356111cf576101843561117e5787916106c1565b60405162461bcd60e51b815260206004820152602360248201527f43616e6e6f74207370656369667920616d6f756e7420776974686f7574207072604482015262697a6560e81b6064820152608490fd5b60405162461bcd60e51b815260206004820152602560248201527f43616e6e6f74207370656369667920746f6b656e20494420776974686f7574206044820152647072697a6560d81b6064820152608490fd5b60405162461bcd60e51b815260206004820152603460248201527f43616e6e6f7420757365206d696e7461626c6520776f726b666c6f77206966206044820152731b9bc81c1c9a5e99481a5cc81cd95b1958dd195960621b6064820152608490fd5b60405162461bcd60e51b815260206004820152603760248201527f43616e6e6f742073706563696679207072697a6520636f6c6c656374696f6e2060448201527f6966206e6f207072697a652069732073656c65637465640000000000000000006064820152608490fd5b604051633f6615ab60e11b81528d90602081600481610124356001600160a01b03165afa9182156113a5579161136f575b50608435111561060a5760405162461bcd60e51b815260206004820152601d60248201527f496e73756666696369656e7420617661696c61626c6520737570706c790000006044820152606490fd5b90506020813d60201161139d575b8161138a60209383611b5e565b81010312611399575138611320565b8d80fd5b3d915061137d565b604051903d90823e3d90fd5b508c99506101443515610605565b50610104356105ff565b50886105f9565b61018435156113eb576113e66084351515611ca4565b6105f0565b60405162461bcd60e51b815260206004820152601c60248201527f416d6f756e74207065722077696e6e6572206d757374206265203e30000000006044820152606490fd5b600161018435036114a557611446575b386105e1565b600160843503156114405760405162461bcd60e51b815260206004820152602660248201527f457363726f7765642045524337323120737570706f727473206f6e6c792031206044820152653bb4b73732b960d11b6064820152608490fd5b60405162461bcd60e51b815260206004820152602260248201527f455243373231207265717569726573203120746f6b656e207065722077696e6e60448201526132b960f11b6064820152608490fd5b634e487b7160e01b8d52602160045260248dfd5b610104351591506105d3565b505061014435158c6105cd565b60405162461bcd60e51b8152602060048201526016602482015275115490cc4c4d8dce8818dc99585d194819985a5b195960521b6044820152606490fd5b600160a43503156105415760405162461bcd60e51b815260206004820152603960248201527f4e6f6e2d7072697a656420726166666c6573206d7573742068617665206d617860448201527f2031207469636b657420706572207061727469636970616e74000000000000006064820152608490fd5b60405162461bcd60e51b815260206004820152601b60248201527f496e76616c6964206d617820706572207061727469636970616e7400000000006044820152606490fd5b60809150015160a435111538610532565b60405162461bcd60e51b815260206004820152601060248201526f24b73b30b634b210323ab930ba34b7b760811b6044820152606490fd5b5060608101516044351115610521565b60405162461bcd60e51b815260206004820152601660248201527557696e6e65727320657863656564207469636b65747360501b6044820152606490fd5b60405162461bcd60e51b8152602060048201526014602482015273125b9d985b1a59081d1a58dad95d081b1a5b5a5d60621b6044820152606490fd5b50602081015160643511156104f4565b60405162461bcd60e51b815260206004820152601c60248201527f53746172742074696d65206d75737420626520696e20667574757265000000006044820152606490fd5b60405162461bcd60e51b815260206004820152600f60248201526e10dc99585d1a5bdb881c185d5cd959608a1b6044820152606490fd5b611793915060203d6020116109ac5761099e8183611b5e565b386104d8565b6040513d8e823e3d90fd5b90506020813d6020116117d2575b816117bf60209383611b5e565b810103126117ce5751386104ae565b8b80fd5b3d91506117b2565b90506117fe915060403d604011611804575b6117f68183611b5e565b810190611c8e565b3861047f565b503d6117ec565b9050611826915060403d604011611804576117f68183611b5e565b38610452565b634e487b7160e01b8b52604160045260248bfd5b60405162461bcd60e51b815260206004820152601860248201527f5469636b6574207072696365206d757374206265203e203000000000000000006044820152606490fd5b5060405163043ddbd760e51b81526020816004818b5afa908115610c03578a916118b0575b506103e7565b90506020813d6020116118da575b816118cb60209383611b5e565b81010312610bf75751386118aa565b3d91506118be565b60405163043ddbd760e51b81526020816004818b5afa908115610c03578a91611965575b509360e435156103e95760405162461bcd60e51b815260206004820152602760248201527f4e6f6e2d7072697a656420726166666c65206d7573742075736520676c6f62616044820152666c20707269636560c81b6064820152608490fd5b90506020813d60201161198f575b8161198060209383611b5e565b81010312610bf7575138611906565b3d9150611973565b60405162461bcd60e51b815260206004820152601a60248201527f5469636b6574206c696d69742061626f7665206d6178696d756d0000000000006044820152606490fd5b60405162461bcd60e51b815260206004820152601a60248201527f5469636b6574206c696d69742062656c6f77206d696e696d756d0000000000006044820152606490fd5b611a3b91925060403d604011611804576117f68183611b5e565b905090386103c4565b6040513d8d823e3d90fd5b90506020813d602011611a79575b81611a6a60209383611b5e565b81010312610bf757513861039e565b3d9150611a5d565b604051632bc3a32360e21b81526020816004818a5afa908115610aec578991611b0a575b5061036d5760405162461bcd60e51b815260206004820152603260248201527f5072697a656420726166666c6573206172652063757272656e746c792064697360448201527130b13632b210313c903a34329030b236b4b760711b6064820152608490fd5b611b22915060203d81116109ac5761099e8183611b5e565b38611aa5565b8680fd5b8580fd5b8480fd5b67ffffffffffffffff8111611b4857604052565b634e487b7160e01b600052604160045260246000fd5b90601f8019910116810190811067ffffffffffffffff821117611b4857604052565b81601f820112156100fc5780359067ffffffffffffffff8211611b485760405192611bb5601f8401601f191660200185611b5e565b828452602083830101116100fc57816000926020809301838601378301015290565b6000546001600160a01b03163303611beb57565b606460405162461bcd60e51b815260206004820152602060248201527f4f776e61626c653a2063616c6c6572206973206e6f7420746865206f776e65726044820152fd5b600080546001600160a01b039283166001600160a01b03198216811783559216907f8be0079c531659141344cd1fd0a4f28419497f9722a3daafe3b4186f6b6457e09080a3565b908160209103126100fc575180151581036100fc5790565b91908260409103126100fc576020825192015190565b15611cab57565b60405162461bcd60e51b815260206004820152601a60248201527f4174206c6561737420312077696e6e65722072657175697265640000000000006044820152606490fd5b908160209103126100fc57516001600160a01b03811681036100fc5790565b919082519283825260005b848110611d3b575050826000602080949584010152601f8019910116010190565b602081830181015184830182015201611d1a56fea2646970667358221220aded5aca0ae0b76c8dd7686895eac7394f74a5940032a133dbb3f86a4e17fb5c64736f6c63430008130033",
  "linkReferences": {},
  "deployedLinkReferences": {}
}